:100000000C9405010C94EE070C941F080C945008F6
:100010000C9481080C94B2080C94E3080C94140915
:100020000C9445090C9432010C9432010C94320169
:100030000C9432010C9432010C9432010C94320174
:100040000C9432010C9432010C9432010C94320164
:100050000C9432010C9432010C9432010C94760908
:100060000C9432010C946B020C9467030C943201D3
:100070000C9432010C9432010C9432010C94320134
:100080000C9432010C9432010C9432010C94320124
:100090000C94AA020C94A6030C9432010C945A11ED
:1000A0000C9432010C9432010C9432010C94320104
:1000B0000C9432010C9432010C9432010C943201F4
:1000C0000C9432010C9432010C948D100C94E902C2
:1000D0000C94E5030C9432010C9428030C94240432
:1000E0000C94320100002100240027002A002D007A
:1000F0003000330001010000040107010A01000083
:100100002200250028002B002E00310034000201BF
:100110000000050108010B0100002000230026005B
:1001200029002C002F00320000010000030106010D
:10013000090105050505070508080808020202026D
:100140000A0A080804040404010101010101010173
:100150000303030303030303040707070C0C0C0C3E
:100160000C0C0C0C02020202060606060606060627
:100170000B0B0B0B0B0B0B0B0102102020080810B4
:100180002040102040800201020108040201010207
:1001900004081020408080402010080402018004E0
:1001A000020180402010080402010804020101023B
:1001B0000408102040800102040810204080000044
:1001C000090A02080B0C0D070603040100000000D9
:1001D000000000000000000000000000000000001F
:1001E0000000000000000000000011100F000000DF
:1001F00000000000000000000000000000000000FF
:10020000000000009405CA06FE1311241FBECFEFA4
:10021000D1E2DEBFCDBF00E00CBF13E0A0E0B2E052
:10022000E8E0FEE600E00BBF02C007900D92A83E9A
:10023000B107D9F71BBE19E0A8EEB3E001C01D92CB
:10024000A036B107E1F712E0CAE0D2E004C022977D
:10025000FE010E94FE36C430D107C9F70E94970FF5
:100260000C9402370C9400000F931F93CF93DF93ED
:10027000689F8001699F100D789F100D1124C8019F
:100280000E945001EC01009729F060E070E0A801A5
:100290000E945B02CE01DF91CF911F910F910895D3
:1002A000CF93DF93BC018230910510F462E070E0DF
:1002B000A0915E09B0915F09ED01E0E0F0E040E05F
:1002C00050E021C0888199818617970769F48A8157
:1002D0009B81309719F09383828304C090935F09C8
:1002E00080935E09FE0134C06817790738F4411520
:1002F000510519F08417950708F4AC01FE018A81B5
:100300009B819C01E9012097E9F641155105A9F16E
:10031000CA01861B970B049708F4BA01E0E0F0E0ED
:100320002AC08D919C91119784179507F9F4641751
:10033000750781F412968D919C911397309719F05F
:100340009383828304C090935F0980935E09FD01CB
:1003500032964CC0CA01861B970BFD01E80FF91FAE
:100360006193719302978D939C9340C0FD018281AC
:1003700093819C01D9011097A1F680915C0990911D
:100380005D09892B41F480911103909112039093A0
:100390005D0980935C09409113035091140341154A
:1003A000510541F44DB75EB780910F039091100352
:1003B000481B590B20915C0930915D09CA01821BD1
:1003C000930B8617970780F0AB014E5F5F4F841742
:1003D000950750F0420F531F50935D0940935C09FD
:1003E000F9016193719302C0E0E0F0E0CF01DF9189
:1003F000CF910895CF93DF93009709F450C0EC019B
:1004000022971B821A82A0915E09B0915F09109712
:1004100009F140E050E0AC17BD0708F1BB83AA83A7
:10042000FE0121913191E20FF31FAE17BF0779F45E
:100430008D919C911197280F391F2E5F3F4F398363
:10044000288312968D919C9113979B838A834115E3
:10045000510571F4D0935F09C0935E0920C01296D4
:100460008D919C911397AD01009711F0DC01D3CFD2
:10047000FA01D383C28321913191E20FF31FCE178A
:10048000DF0769F488819981280F391F2E5F3F4F5C
:10049000FA01318320838A819B8193838283DF9158
:1004A000CF910895FB01DC0102C001900D924150F3
:1004B0005040D8F70895DC0101C06D934150504081
:1004C000E0F70895FB01DC018D9101908019011086
:1004D000D9F3990B08951F920F920FB60F920BB696
:1004E0000F9211242F933F934F938F939F93EF93EA
:1004F000FF938091C00082FD1DC04091C6002091F5
:100500002804309129042F5F3F4F2F733070809162
:100510002A0490912B042817390771F0E0912804E0
:10052000F0912904E851FC4F408330932904209333
:10053000280402C08091C600FF91EF919F918F9196
:100540004F913F912F910F900BBE0F900FBE0F90C8
:100550001F9018951F920F920FB60F920BB60F9225
:1005600011242F933F934F938F939F93EF93FF9378
:100570008091C80082FD1DC04091CE002091B00442
:100580003091B1042F5F3F4F2F7330708091B204D0
:100590009091B3042817390771F0E091B004F091FD
:1005A000B104E059FB4F40833093B1042093B00471
:1005B00002C08091CE00FF91EF919F918F914F915A
:1005C0003F912F910F900BBE0F900FBE0F901F9079
:1005D00018951F920F920FB60F920BB60F9211241F
:1005E0002F933F934F938F939F93EF93FF9380911C
:1005F000D00082FD1DC04091D60020913805309179
:1006000039052F5F3F4F2F73307080913A059091DD
:100610003B052817390771F0E0913805F09139054D
:10062000E850FB4F4083309339052093380502C0D2
:100630008091D600FF91EF919F918F914F913F91C3
:100640002F910F900BBE0F900FBE0F901F9018951B
:100650001F920F920FB60F920BB60F9211242F9389
:100660003F934F938F939F93EF93FF93809130012C
:1006700082FD1DC0409136012091C0053091C10519
:100680002F5F3F4F2F7330708091C2059091C3054B
:100690002817390771F0E091C005F091C105E058C5
:1006A000FA4F40833093C1052093C00502C080916A
:1006B0003601FF91EF919F918F914F913F912F9133
:1006C0000F900BBE0F900FBE0F901F9018951F92AA
:1006D0000F920FB60F920BB60F9211242F933F93E8
:1006E0008F939F93EF93FF9320916C0430916D044F
:1006F00080916E0490916F042817390731F480912E
:10070000C1008F7D8093C10014C0E0916E04F09110
:100710006F04E45DFB4F208180916E0490916F0423
:1007200001968F73907090936F0480936E04209362
:10073000C600FF91EF919F918F913F912F910F9064
:100740000BBE0F900FBE0F901F9018951F920F9227
:100750000FB60F920BB60F9211242F933F938F93E6
:100760009F93EF93FF932091F4043091F5048091CF
:10077000F6049091F7042817390731F48091C900E5
:100780008F7D8093C90014C0E091F604F091F704C6
:10079000EC54FB4F20818091F6049091F704019670
:1007A0008F7390709093F7048093F6042093CE009B
:1007B000FF91EF919F918F913F912F910F900BBEE1
:1007C0000F900FBE0F901F9018951F920F920FB6AB
:1007D0000F920BB60F9211242F933F938F939F93F9
:1007E000EF93FF9320917C0530917D0580917E05EC
:1007F00090917F052817390731F48091D1008F7DC2
:100800008093D10014C0E0917E05F0917F05E45CF7
:10081000FA4F208180917E0590917F0501968F731C
:10082000907090937F0580937E052093D600FF9172
:10083000EF919F918F913F912F910F900BBE0F9051
:100840000FBE0F901F9018951F920F920FB60F9228
:100850000BB60F9211242F933F938F939F93EF9397
:10086000FF93209104063091050680910606909131
:1008700007062817390731F4809131018F7D809365
:10088000310114C0E0910606F0910706EC53FA4FCF
:100890002081809106069091070601968F739070D3
:1008A000909307068093060620933601FF91EF91FF
:1008B0009F918F913F912F910F900BBE0F900FBE84
:1008C0000F901F901895AF92BF92DF92EF92FF9218
:1008D0000F931F93CF93DF93EC017A018B01DD24FB
:1008E000403081EE580780E0680780E0780711F01B
:1008F000DD24D39491E0A92EB12CEC89FD89DD2073
:1009000069F0C50108A002C0880F991F0A94E2F798
:10091000808360E079E08DE390E005C0108260E8BC
:1009200074E88EE190E0A80197010E94DA36215028
:10093000304040405040569547953795279580E187
:100940002030380720F0DD2011F0DD24D6CFE889F3
:10095000F9893083EA89FB89208319A2EE89FF890E
:10096000408121E030E0C9010C8C02C0880F991F42
:100970000A94E2F7482B4083EE89FF894081C90140
:100980000D8C02C0880F991F0A94E2F7482B408310
:10099000EE89FF894081C9010E8C02C0880F991F22
:1009A0000A94E2F7482B4083EE89FF8980810F8CFF
:1009B00002C0220F331F0A94E2F7209528232083D8
:1009C000DF91CF911F910F91FF90EF90DF90BF903B
:1009D000AF900895DC011C96ED91FC911D97E05CB1
:1009E000FF4F2191319180819181281B390B2F7309
:1009F0003070C9010895DC011C96ED91FC911D97A2
:100A0000E05CFF4F20813181E054F040DF01AE5BBC
:100A1000BF4F8D919C9111972817390719F42FEF2B
:100A20003FEF07C08D919C91E80FF91F8081282F1F
:100A300030E0C9010895DC011C96ED91FC911D97F1
:100A4000E05CFF4F20813181E054F040DF01AE5B7C
:100A5000BF4F8D919C9111972817390719F42FEFEB
:100A60003FEF10C08D919C911197E80FF91F2081E5
:100A70008D919C91119701968F73907011969C9314
:100A80008E9330E0C9010895DC0191968C91919785
:100A9000882339F05496ED91FC915597808186FF1B
:100AA000F9CF91961C920895CF93DF93EC01EE85D8
:100AB000FF85E05CFF4F20813181E054F0402F5FE3
:100AC0003F4F2F733070DF01AE5BBF4F8D919C9114
:100AD000119728173907D1F3E05CFF4F808191818E
:100AE000E054F040E80FF91F6083EE85FF85E05C7D
:100AF000FF4F31832083EE89FF89208181E090E0E0
:100B00000F8C02C0880F991F0A94E2F7282B2083CC
:100B100081E089A3EC89FD8980818064808381E004
:100B200090E0DF91CF9108951F9310920B061092E1
:100B30000A0628EE33E040E050E020930C063093A4
:100B40000D0640930E0650930F0662EC73E070930F
:100B500009066093080688EE93E09093150680934B
:100B600014068CE294E0909317068093160685ECA9
:100B700090E0909319068093180684EC90E090938F
:100B80001B0680931A0680EC90E090931D068093DC
:100B90001C0681EC90E090931F0680931E0682EC69
:100BA00090E0909321068093200686EC90E090934D
:100BB00023068093220614E010932406B3E0B0933A
:100BC0002506A7E0A0932606F5E0F0932706E1E0CE
:100BD000E093280610922D0610922C0620932E06E4
:100BE00030932F06409330065093310670932B06B6
:100BF00060932A0680E794E0909337068093360648
:100C000084EB94E090933906809338068DEC90E065
:100C100090933B0680933A068CEC90E090933D06CF
:100C200080933C0688EC90E090933F0680933E06CC
:100C300089EC90E090934106809340068AEC90E026
:100C400090934306809342068EEC90E09093450685
:100C50008093440610934606B0934706A093480637
:100C6000F0934906E0934A0610924F0610924E0602
:100C700020935006309351064093520650935306EA
:100C800070934D0660934C0688EF94E0909359065C
:100C9000809358068CE395E090935B0680935A0608
:100CA00085ED90E090935D0680935C0684ED90E086
:100CB00090935F0680935E0680ED90E090936106CE
:100CC0008093600681ED90E09093630680936206C6
:100CD00082ED90E0909365068093640686ED90E047
:100CE000909367068093660610936806B093690632
:100CF000A0936A06F0936B06E0936C06109271065F
:100D00001092700620937206309373064093740617
:100D10005093750670936F0660936E0680E895E0B9
:100D200090937B0680937A0684EC95E090937D0601
:100D300080937C0685E391E090937F0680937E0606
:100D400084E391E0909381068093800680E391E0B4
:100D5000909383068093820681E391E090938506C9
:100D60008093840682E391E09093870680938606C1
:100D700086E391E0909389068093880610938A0613
:100D8000B0938B06A0938C06F0938D06E0938E06AD
:100D90001F91089582ED93E09093910680939006C1
:100DA0001092920610929306109294061092950655
:100DB00008958F929F92AF92BF92CF92DF92EF925F
:100DC000FF920F931F93CF93DF934C016B017C0134
:100DD000AA24BB24C0E0D0E0C601F70162814AE04A
:100DE00050E00E94DC078C01C6016EE20E944507BC
:100DF000080F191FA00EB11E21960894E11CF11CCA
:100E0000C330D10549F7C601F40165814AE050E0DD
:100E10000E94DC079501280F391FC901DF91CF918E
:100E20001F910F91FF90EF90DF90CF90BF90AF9008
:100E30009F908F900895CF92DF92EF92FF920F9341
:100E40001F93CF93DF937C016B018A01C0E0D0E058
:100E50000FC0D6016D916D01D701ED91FC9101900C
:100E6000F081E02DC7011995C80FD91F015010401E
:100E70000115110571F7CE01DF91CF911F910F91EF
:100E8000FF90EF90DF90CF900895DC01ED91FC9101
:100E90000190F081E02D19950895CF93DF93EC0137
:100EA0006115710519F420E030E00FC0DB010D90F1
:100EB0000020E9F71197A61BB70BE881F9810280A2
:100EC000F381E02DAD0119959C01C901DF91CF910E
:100ED00008954F925F927F928F929F92AF92BF92AE
:100EE000CF92DF92EF92FF920F931F93DF93CF93F6
:100EF000CDB7DEB7A1970FB6F894DEBF0FBECDBF5A
:100F00002C01742ECB01223008F42AE019A231E220
:100F1000C32ED12CCC0EDD1E822E9924AA24BB24F4
:100F2000672D752FA50194010E94DA3679018A0197
:100F3000C801B701A50194010E94BB36472D461B8D
:100F40000894C108D1084A3014F4405D01C0495CDE
:100F5000F6014083E114F1040105110521F07E2C16
:100F60005F2DC801DDCFC201B6010E944D07A196D9
:100F70000FB6F894DEBF0FBECDBFCF91DF911F91AA
:100F80000F91FF90EF90DF90CF90BF90AF909F9028
:100F90008F907F905F904F900895DC01211531056F
:100FA00041F4ED91FC910190F081E02D642F1995B1
:100FB00008950E9469070895EF92FF920F931F937F
:100FC0009A01E62EFF2400E010E0B801A7010E947C
:100FD000CD071F910F91FF90EF9008951F920F92F0
:100FE0000FB60F920BB60F9211242F933F934F938E
:100FF0005F936F937F938F939F93AF93BF93EF9381
:10100000FF9380919A0690919B06892B29F0E0919D
:101010009A06F0919B061995FF91EF91BF91AF91C0
:101020009F918F917F916F915F914F913F912F9100
:101030000F900BBE0F900FBE0F901F9018951F9230
:101040000F920FB60F920BB60F9211242F933F936E
:101050004F935F936F937F938F939F93AF93BF93C0
:10106000EF93FF9380919C0690919D06892B29F028
:10107000E0919C06F0919D061995FF91EF91BF912B
:10108000AF919F918F917F916F915F914F913F9120
:101090002F910F900BBE0F900FBE0F901F901895C1
:1010A0001F920F920FB60F920BB60F9211242F932F
:1010B0003F934F935F936F937F938F939F93AF93E0
:1010C000BF93EF93FF9380919E0690919F06892B8B
:1010D00029F0E0919E06F0919F061995FF91EF91FE
:1010E000BF91AF919F918F917F916F915F914F9140
:1010F0003F912F910F900BBE0F900FBE0F901F903E
:1011000018951F920F920FB60F920BB60F921124E3
:101110002F933F934F935F936F937F938F939F93FF
:10112000AF93BF93EF93FF938091A0069091A10698
:10113000892B29F0E091A006F091A1061995FF9165
:10114000EF91BF91AF919F918F917F916F915F913F
:101150004F913F912F910F900BBE0F900FBE0F90AC
:101160001F9018951F920F920FB60F920BB60F9209
:1011700011242F933F934F935F936F937F938F939C
:101180009F93AF93BF93EF93FF93809196069091B7
:101190009706892B29F0E0919606F091970619950C
:1011A000FF91EF91BF91AF919F918F917F916F913F
:1011B0005F914F913F912F910F900BBE0F900FBEFB
:1011C0000F901F9018951F920F920FB60F920BB6AB
:1011D0000F9211242F933F934F935F936F937F93BD
:1011E0008F939F93AF93BF93EF93FF938091980654
:1011F00090919906892B29F0E0919806F091990633
:101200001995FF91EF91BF91AF919F918F917F9130
:101210006F915F914F913F912F910F900BBE0F9067
:101220000FBE0F901F9018951F920F920FB60F923E
:101230000BB60F9211242F933F934F935F936F93AD
:101240007F938F939F93AF93BF93EF93FF9380917F
:10125000A2069091A306892B29F0E091A206F091B5
:10126000A3061995FF91EF91BF91AF919F918F9137
:101270007F916F915F914F913F912F910F900BBE96
:101280000F900FBE0F901F9018951F920F920FB6E0
:101290000F920BB60F9211242F933F934F935F93AE
:1012A0006F937F938F939F93AF93BF93EF93FF932E
:1012B0008091A4069091A506892B29F0E091A406BF
:1012C000F091A5061995FF91EF91BF91AF919F9174
:1012D0008F917F916F915F914F913F912F910F90DF
:1012E0000BBE0F900FBE0F901F9018951F920F927C
:1012F0000FB60F9211242F933F938F939F93AF9329
:10130000BF938091AA069091AB06A091AC06B091D4
:10131000AD063091AE060196A11DB11D232F2D5FA4
:101320002D3720F02D570196A11DB11D2093AE063B
:101330008093AA069093AB06A093AC06B093AD063B
:101340008091A6069091A706A091A806B091A90643
:101350000196A11DB11D8093A6069093A706A093A8
:10136000A806B093A906BF91AF919F918F913F912D
:101370002F910F900FBE0F901F9018958FB7F89474
:101380002091AA063091AB064091AC065091AD0673
:101390008FBFB901CA0108959B01AC017FB7F894D2
:1013A0008091A6069091A706A091A806B091A906E3
:1013B00066B5A89B05C06F3F19F00196A11DB11D30
:1013C0007FBFBA2FA92F982F8827860F911DA11DA7
:1013D000B11D62E0880F991FAA1FBB1F6A95D1F744
:1013E000BC012DC0FFB7F8948091A6069091A70686
:1013F000A091A806B091A906E6B5A89B05C0EF3F4D
:1014000019F00196A11DB11DFFBFBA2FA92F982F6A
:1014100088278E0F911DA11DB11DE2E0880F991F35
:10142000AA1FBB1FEA95D1F7861B970B885E9340D6
:10143000C8F2215030404040504068517C4F211547
:1014400031054105510571F60895789484B582609F
:1014500084BD84B5816084BD85B5826085BD85B558
:10146000816085BDEEE6F0E0808181608083E1E807
:10147000F0E010828081826080838081816080833F
:10148000E0E8F0E0808181608083E1EBF0E0808142
:1014900084608083E0EBF0E0808181608083E1E91B
:1014A000F0E0808182608083808181608083E0E9D8
:1014B000F0E0808181608083E1EAF0E080818260F9
:1014C0008083808181608083E0EAF0E080818160B8
:1014D0008083E1E2F1E080818260808380818160AD
:1014E0008083E0E2F1E0808181608083EAE7F0E0E0
:1014F000808184608083808182608083808181603C
:1015000080838081806880831092C10008951F933A
:10151000CF93DF93182FEB0161E00E94670B2097B8
:1015200009F4CAC0CF3FD10509F4C9C0E12FF0E0EA
:10153000E254FE4F8491893009F466C08A30B0F4D9
:101540008430F1F1853040F4823059F1833070F508
:10155000813009F0AEC020C0873009F443C0883024
:1015600008F048C0863009F0A4C034C08D3009F4BA
:1015700078C08E3038F48B3009F45AC08C3008F0C3
:1015800066C04CC0803109F480C0813109F487C045
:101590008F3009F08EC06FC084B5806884BDC7BD30
:1015A00092C084B5806284BDC8BD8DC0809180002A
:1015B000806880938000D0938900C093880083C0A6
:1015C00080918000806280938000D0938B00C093D4
:1015D0008A0079C08091B00080688093B000C09389
:1015E000B30071C08091B00080628093B000C0935E
:1015F000B40069C080919000806880939000D0937F
:101600009900C09398005FC08091900080628093A1
:101610009000D0939B00C0939A0055C08091900099
:10162000886080939000D0939D00C0939C004BC035
:101630008091A00080688093A0008091A0008F7BA3
:101640008093A000D093A900C093A8003CC08091D3
:10165000A00080628093A000D093AB00C093AA004A
:1016600032C08091A00088608093A000D093AD002C
:10167000C093AC0028C08091200180688093200135
:10168000D0932901C09328011EC08091200180625F
:1016900080932001D0932B01C0932A0114C0809124
:1016A0002001886080932001D0932D01C0932C01EC
:1016B0000AC0C038D1051CF4812F60E002C0812F20
:1016C00061E00E941A0CDF91CF911F910895CF9392
:1016D000DF93482F50E0CA0188589E4FFC01349197
:1016E0004E5C5E4FFA018491882369F190E0880F87
:1016F000991FFC01EC51FF4FA591B491FC01E25000
:10170000FF4FC591D491662351F42FB7F8948C9173
:10171000932F909589238C93888189230BC0623005
:1017200061F42FB7F8948C91932F909589238C9323
:101730008881832B88832FBF06C09FB7F8948C9134
:10174000832B8C939FBFDF91CF910895893009F44B
:1017500049C08A30A0F4843051F1853040F48230A1
:1017600079F1833000F5813009F063C026C08730FD
:1017700079F1883098F5863009F05BC025C08D304E
:1017800009F442C08E3028F48B30B1F18C30C0F5B2
:101790002DC0803109F442C0813109F445C08F3039
:1017A00009F047C037C0809180008F7703C08091D7
:1017B00080008F7D80938000089584B58F7702C06C
:1017C00084B58F7D84BD08958091B0008F7703C06C
:1017D0008091B0008F7D8093B0000895809190003B
:1017E0008F7707C0809190008F7D03C0809190001B
:1017F000877F8093900008958091A0008F7707C025
:101800008091A0008F7D03C08091A000877F80938E
:10181000A0000895809120018F7703C0809120015E
:101820008F7D80932001089580912001877F809390
:1018300020010895FF920F931F93F62E482F50E03A
:10184000CA0182549E4FFC012491CA0188589E4FC0
:10185000FC0114914E5C5E4FFA0104910023C9F023
:10186000222319F0822F0E94A60BE02FF0E0EE0F4A
:10187000FF1FE250FF4FA591B4919FB7F894FF204E
:1018800021F48C911095812302C08C91812B8C9333
:101890009FBF1F910F91FF90089580E090E0089501
:1018A000EF92FF920F931F93CF93DF93162F072F83
:1018B0007A01E9011982188288E096E00E94EA0420
:1018C000892BD1F0812F902F9C01890110C088E0D5
:1018D00096E00E941B052FEF8F3F920741F0F80121
:1018E00081938F018881998101969983888388816A
:1018F00099818E159F0558F380E090E0DF91CF919C
:101900001F910F91FF90EF900895EF92FF920F9328
:101910001F938A01790188E096E00E941B07F70176
:101920001183008380E090E01F910F91FF90EF9072
:1019300008950E94250A88E096E040E052EC61E0BC
:1019400070E00E94630404C088E096E00E941B05DA
:1019500088E096E00E94EA04892BB1F780E090E0ED
:1019600008950895EDE7F8E08EEADF011D928A956B
:10197000E9F78EE199E0909384088093830881E2EF
:1019800099E09093BE088093BD0882E199E090931E
:10199000920880939108F093E808E093E708F093A9
:1019A0008208E093810881E090E090931F09809382
:1019B0001E0980E092E0909388088093870823E2D4
:1019C00039E0309322092093210980E090E0A0E2E1
:1019D000B1E480931A0990931B09A0931C09B0935A
:1019E0001D098DEC9CECACE4BEE38093120990934E
:1019F0001309A0931409B093150988E290E5A4E9AE
:101A0000B2EA8093FC089093FD08A093FE08B0937F
:101A1000FF088AE696EFA4E1B4EA80930009909368
:101A20000109A0930209B093030985E193ECAFE6A5
:101A3000BDEF8093040990930509A0930609B09324
:101A400007098BE194E5A2E7BEE080930809909333
:101A50000909A0930A09B0930B0987EC96E09093CB
:101A6000800880937F0881EC96E09093C80680936D
:101A7000C70686ED93E09093C2068093C1069093CB
:101A8000C4068093C3069093C6068093C5068CE077
:101A900099E09093CC068093CB068CEF98E09093DE
:101AA000CA068093C9063093CE062093CD068CE1FA
:101AB000EBE2F9E0DF011D928A95E9F785E1E7E4C1
:101AC000F9E0DF011D928A95E9F7EFEAF6E082E19D
:101AD000DF011D928A95E9F7F0930D09E0930C0957
:101AE0008EE090E09093B0068093AF0685E193E09E
:101AF0009093B2068093B10681E393E09093B4068D
:101B00008093B3068DE493E09093B6068093B50678
:101B100081E593E09093B8068093B7068091950392
:101B200061E00E94670B8091A5039091A603A091AC
:101B3000A703B091A8038093470990934809A09305
:101B40004909B0934A0982E080935B0980E090E004
:101B5000A0E0B0E080934B0990934C09A0934D090D
:101B6000B0934E090895AF92BF92CF92DF92EF9259
:101B7000FF920F931F936091A1037091A203809134
:101B8000A3039091A403209133093091340940912B
:101B90003509509136090E9458369B01AC0160917D
:101BA0004709709148098091490990914A090E941A
:101BB0000E356093470970934809809349099093C3
:101BC0004A09E0902B09F0902C0900912D09109101
:101BD0002E09C801B70120E030E040E050E00E944B
:101BE0005436181614F481E01AC0C801B70120E079
:101BF00030E040E050E00E947235882314F48FEF0B
:101C00000EC0C801B70120E030E040E050E00E9483
:101C10007235882319F410925B0903C082E0809327
:101C20005B098BE399E06DE379E04FE359E021E450
:101C300039E003E419E0F5E4EF2EF9E0FF2EEBE4E0
:101C4000CE2EE9E0DE2E0E94EB16A0901A09B0908D
:101C50001B09C0901C09D0901D09C601B50120E0E8
:101C600030E040E85FEB0E947235882331F1E0916B
:101C70002109F0912209E080F18002811381C601DF
:101C8000B501A80197010E940D355B016C01C801E7
:101C9000B70120E030E040E054E30E9458369B0159
:101CA000AC01C601B5010E945436181634F082E129
:101CB00092E090937E0880937D088091200988238C
:101CC00031F082E192E090937E0880937D0800914C
:101CD00021091091220960910E0970910F098091DC
:101CE0001009909111096F5F7F4F8F4F9F4F609345
:101CF0000E0970930F0980931009909311090E94A7
:101D0000A235209112093091130940911409509184
:101D100015090E945836F80160837183828393838A
:101D20008091160990911709A0911809B09119098D
:101D30000196A11DB11D8093160990931709A093D8
:101D40001809B09319091F910F91FF90EF90DF9040
:101D5000CF90BF90AF900895CF92DF92EF92FF9215
:101D60000F931F938091B503813049F480919D03B7
:101D700090919E03A0919F03B091A00308C0809111
:101D8000990390919A03A0919B03B0919C03809337
:101D90002B0990932C09A0932D09B0932E09E09064
:101DA0002B09F0902C0900912D0910912E09C801E2
:101DB000B70120E030E040E050E00E9454361816B1
:101DC00024F480915B09181674F4C801B70120E06F
:101DD00030E040E050E00E9472351816A4F0809187
:101DE0005B09813081F48091A5039091A603A091B5
:101DF000A703B091A8038093470990934809A09343
:101E00004909B0934A098091470990914809A091E6
:101E10004909B0914A0980932F0990933009A09302
:101E20003109B09332098BE399E06DE379E04FE338
:101E300059E021E439E003E419E0B5E4EB2EB9E020
:101E4000FB2EABE4CA2EA9E0DA2E0E949E1560910B
:101E50003B0970913C09882777FD8095982F0E9457
:101E6000A4352091A9033091AA034091AB0350916E
:101E7000AC030E940D352091AD033091AE0340912B
:101E8000AF035091B0030E945836609333097093AA
:101E9000340980933509909336096091B1037091AC
:101EA000B2038091B3039091B40320912F09309134
:101EB000300940913109509132090E9458367B0116
:101EC0008C0120E030E040E853E40E94723587FD49
:101ED00002C06FEF10C0C801B70120E030E040E061
:101EE00050E00E94543687FF02C060E004C0C80181
:101EF000B7010E9476358091950370E00E94870AB1
:101F0000E0912109F091220980819181A281B38120
:101F10008093370990933809A0933909B0933A090F
:101F20001F910F91FF90EF90DF90CF900895BF9297
:101F3000CF92DF92EF92FF920F931F93DF93CF9395
:101F40000F92CDB7DEB70E94250A80E090E060E0F6
:101F500070E00E94321E0E94B20C0091D4031091D6
:101F6000D503C80183569F4F0E94301E82E090E047
:101F70000E943C1E1982F8018281938162E070E028
:101F8000AE014F5F5F4F0E945B1E8981882339F04D
:101F90000D551F4F81E0F8018083035A10400E94C5
:101FA000311E8BEC93EF9093250180932401809157
:101FB00073008E7F80937300809120018C7F8093CB
:101FC000200180912101877E809321018091210150
:101FD000856080932101809121018D7F8093210173
:101FE0008091730081608093730083EAE82EF12C66
:101FF000E00EF11E6E010894C11CD11CBB24B394E9
:1020000010C01982F8018281938162E070E0A6011C
:102010000E94481E8981882311F0F701B0820E9436
:10202000421EF80180819181892B21F4F701808182
:10203000882339F382E090E00E94391E68EE73E055
:1020400080E090E00E94CC090E94B10CF89480E0FE
:1020500090E00F90CF91DF911F910F91FF90EF9043
:10206000DF90CF90BF9008950F931F932091D506D6
:102070002F5F2093D506215049F081E090E09093A6
:10208000D4068093D3062093D50644C078940E944A
:10209000AC0E82E090E00E943F1E0091D4031091AC
:1020A000D5030C551F4FD801ED91FC914081518112
:1020B0006281738180E090E00E94451E0B501040C9
:1020C000F80160817181828193810E94A2352DEC9B
:1020D0003CEC4CE45EE30E945836AB01BC0181E06D
:1020E00090E00E94451E0E94B30DF8948091D506A1
:1020F00081508093D5069091D806992359F080910C
:10210000D606882339F47894F89491509093D806A1
:102110001092D6061F910F9108951F920F920FB63D
:102120000F920BB60F9211242F933F934F935F930F
:102130006F937F938F939F93AF93BF93EF93FF938F
:102140008BEC93EF90932501809324010E9434102F
:10215000FF91EF91BF91AF919F918F917F916F917F
:102160005F914F913F912F910F900BBE0F900FBE3B
:102170000F901F901895382F413210F040E042C068
:1021800080915F078823E1F791E090935F072093A8
:102190005D078FEF8093600710923B07415040939B
:1021A0003C074F5F90933A0780913A07330F832B98
:1021B00080933A0780915E07813041F410925E0768
:1021C00080913A078093BB0085EC01C085EE809337
:1021D000BC0080915F078130E1F380913B07841759
:1021E00010F440913B0720E030E00AC0FB01E20F11
:1021F000F31FD901A35CB84F8C9180832F5F3F4FB1
:102200002417A0F3842F08950F931F93582F122F94
:10221000413210F081E045C080915F078823E1F7EB
:1022200082E080935F0700935D078FEF80936007E4
:1022300010923B0740933C07ADE3B7E0FB0102C0BF
:1022400081918D938E2F861B8417D0F310923A07BD
:1022500080913A07550F852B80933A0780915E074E
:10226000813041F410925E0780913A078093BB0061
:1022700085EC01C085EE8093BC001123A9F080910C
:102280005F07823089F4FBCF80916007803211F4C0
:1022900082E007C080916007803311F084E001C0C4
:1022A00083E01F910F910895809160078F3F61F740
:1022B00080E0F7CF1F920F920FB60F920BB60F92DE
:1022C00011242F933F934F935F936F937F938F933B
:1022D0009F93AF93BF93EF93FF938091B90090E0EA
:1022E000887F90708036910509F4F2C0813691059F
:1022F000CCF58832910509F47BC089329105B4F49C
:102300008031910509F46FC0813191053CF400974B
:1023100009F447C1089709F04FC165C0883191059C
:1023200009F466C0809709F047C182C080349105E6
:1023300009F4A4C08134910544F48033910509F473
:1023400082C0C89709F038C189C08035910509F469
:1023500089C08835910509F496C08834910509F043
:102360002BC1AEC08839910509F413C18939910593
:10237000ECF48837910509F4ABC0893791054CF42A
:102380008836910509F4A4C08037910509F014C17D
:102390009FC08838910509F4FCC08039910509F483
:1023A0009DC08038910509F007C198C0803B910518
:1023B00009F4C6C0813B91054CF4803A910509F4BB
:1023C0009FC0883A910509F0F7C0BAC0803C9105DA
:1023D00009F4E3C0883C910509F4DFC0883B91050E
:1023E00009F0EAC0C2C080913A078093BB00CFC019
:1023F00090913B0780913C07981768F490913B07B8
:10240000E92FF0E0E35CF84F80818093BB009F5F91
:1024100090933B07BCC080915D07882309F44BC0B3
:1024200085ED8093BC008091BC0084FDFCCFC2C0D0
:1024300080E28093600785ED8093BC008091BC00B2
:1024400084FDFCCFB7C080E38093600785ED809367
:10245000BC008091BC0084FDFCCFACC088E38093BD
:1024600060079BC080913B079091BB00E82FF0E094
:10247000E35CF84F90838F5F80933B0790913B071D
:1024800080913C0782C080913B079091BB00E82F70
:10249000F0E0E35CF84F90838F5F80933B0780917F
:1024A0005D07882341F085ED8093BC008091BC00DE
:1024B00084FDFCCF7FC081E080935E0784EA6EC01C
:1024C00085ED8093BC008091BC0084FDFCCF72C080
:1024D00083E080935F071092610759C08091610784
:1024E000803208F056C0809161079091BB00E82FC0
:1024F000F0E0EE59F84F90838F5F8093610747C0FB
:1025000080916107803230F4E0916107F0E0EE598C
:10251000F84F108285ED8093BC008091BC0084FD53
:10252000FCCF10925F0760916107E0918207F09104
:10253000830782E697E070E01995109261072DC03D
:1025400084E080935F071092840710928507E091E2
:102550008607F0918707199580918507882329F4CC
:1025600081E0809385071092880790918407E92F76
:10257000F0E0E857F84F80818093BB009F5F909315
:1025800084079091840780918507981710F485EC53
:1025900001C085E88093BC000FC085EC8093BC002F
:1025A00009C01092600785ED8093BC008091BC004B
:1025B00084FDFCCF10925F07FF91EF91BF91AF9127
:1025C0009F918F917F916F915F914F913F912F914B
:1025D0000F900BBE0F900FBE0F901F9018954132B9
:1025E00008F040E2862F69ED76E00E94BB10109261
:1025F000F9068093FA06089521E00E94EF120895EB
:102600000F93062F8091FB066CEF76E040911D073B
:1026100021E00E94041110921C0710921D071092D5
:102620001E070F91089561E00E9400130895DF9343
:10263000CF930F92CDB7DEB7FC01698380911E075F
:102640008823C9F080911D07803238F081E090E046
:102650009383828320E030E01AC080911C07E82F2A
:10266000F0E0E450F94F998190838F5F80931C07CD
:1026700080931D070AC080915F07843031F481E0A8
:102680008093850789818093880721E030E0C90124
:102690000F90CF91DF910895CF92DF92EF92FF924A
:1026A0000F931F93CF93DF936C018B017A0180917D
:1026B0001E078823A1F0C0E0D0E00DC0D601ED9147
:1026C000FC91D801AC0FBD1F0190F081E02DC60137
:1026D0006C9119952196CE15DF0580F313C0413218
:1026E00088F480915F07843069F4E0928507562F63
:1026F000A8E8B7E0FB0102C081918D938E2F851B66
:102700008417D0F3C701DF91CF911F910F91FF90F4
:10271000EF90DF90CF9008952091FA0630E08091FD
:10272000F906281B3109C90108954091F9068091E5
:10273000FA06481718F02FEF3FEF0AC0E42FF0E039
:10274000E752F94F8081282F30E04F5F4093F90620
:10275000C9010895E091F9068091FA06E81718F08A
:10276000EFEFFFEF06C0F0E0E752F94F8081E82F6E
:10277000F0E0CF0108950895FF920F931F93CF9338
:10278000DF93F42E122F032F91E090931E07809376
:10279000FB0610921C0710921D078FE197E00E9424
:1027A0001713212F302FC901EC0110E006C08FE173
:1027B00097E069910E9417131F5F1F15C0F38FE107
:1027C00097E00E94131390E0882309F491E0892F89
:1027D000DF91CF911F910F91FF900895DF93CF93D9
:1027E0000F92CDB7DEB7498341E09E012F5F3F4F87
:1027F0000E94BC130F90CF91DF9108951092220791
:102800001092210788EE93E0A0E0B0E080932307C8
:1028100090932407A0932507B09326078BED93E0B0
:102820009093200780931F0788E680932B070895D5
:102830002F923F924F925F926F927F928F929F92D0
:10284000AF92BF92CF92DF92EF92FF920F931F93BE
:10285000DF93CF9300D00F920F92CDB7DEB7882EC3
:102860006983942E3B832A830E94BE095B016C011D
:10287000FF24EE24292C332428016624772461C008
:1028800021E020931E078092FB0610921C071092F5
:102890001D078FE197E069810E9417138FE197E090
:1028A0000E94131331E030931E078092FB061092B2
:1028B0001C0710921D07A1014E1951094132510503
:1028C00014F040E250E08FE197E0682D0E94FC1286
:1028D0008F2D992787FD9095EA81FB818E0F9F1F91
:1028E0009D838C830FC0E92FF0E0E752F94F808180
:1028F000282F9F5F9093F906EC81FD812193FD8342
:10290000EC83F3949091FA068091F906981709F4F4
:1029100050C00115110561F00E94BE096A197B09BA
:102920008C099D09641575058605970508F041C059
:102930009091F9068091FA069817A8F22FEF3FEFD1
:10294000DBCFE91408F49CCF01151105C9F00E94F2
:10295000BE096A197B098C099D09980140E050E085
:10296000621773078407950758F02F2D332727FD2B
:102970003095892D90E02817390714F4FF24FA9434
:102980008F2D0F900F900F900F900F90CF91DF91A0
:102990001F910F91FF90EF90DF90CF90BF90AF907D
:1029A0009F908F907F906F905F904F903F902F906F
:1029B00008958FE197E00E941313892DF0E2F91535
:1029C00008F480E2E80EBDCFEF92FF920F931F93C1
:1029D0007C019C012F5F3F4F0091B6031091B7031C
:1029E000FC01808167E442E00E941814F7019181A4
:1029F00080E0228130E0282B392BC9011F910F91F3
:102A0000FF90EF900895EF92FF920F931F937C0138
:102A10009C012F5F3F4F0091B6031091B703FC015B
:102A2000808165E442E00E941814F701918180E002
:102A3000228130E0282B392BC9011F910F91FF9083
:102A4000EF900895EF92FF920F931F937C019C01EA
:102A50002F5F3F4F0091B6031091B703FC018081B7
:102A600063E442E00E941814F701918180E0228122
:102A700030E0282B392BC9011F910F91FF90EF9067
:102A80000895EF92FF920F931F937C019C012F5F9B
:102A90003F4F0091B6031091B703FC0180816FE3B3
:102AA00042E00E941814F701918180E0228130E019
:102AB000282B392BC9011F910F91FF90EF9008959A
:102AC000EF92FF920F931F937C019C012F5F3F4F6A
:102AD0000091B6031091B703FC0180816DE342E0E1
:102AE0000E941814F701918180E0228130E0282BA8
:102AF000392BC9011F910F91FF90EF900895EF922C
:102B0000FF920F931F937C019C012F5F3F4F009119
:102B1000B6031091B703FC0180816BE342E00E9491
:102B20001814F701918180E0228130E0282B392BA5
:102B3000C9011F910F91FF90EF9008956F927F92BE
:102B40008F929F92AF92BF92CF92DF92EF92FF92BD
:102B50000F931F93CF93DF93EC015B014A0139017F
:102B6000F601608171818281938120E030E040E84C
:102B70005FE30E947235882349F58BE297E00E945B
:102B80002215998388838BE297E00E940315F50153
:102B9000918380838BE297E00E94E414F401918397
:102BA00080838BE297E00E947F15F30191838083FD
:102BB0008BE297E00E946015F801918380838BE29D
:102BC00097E00E944115F70191838083DF91CF91B7
:102BD0001F910F91FF90EF90DF90CF90BF90AF903B
:102BE0009F908F907F906F9008950F931F93FA019D
:102BF000890141E09F010E9418141F910F910895CF
:102C0000DF92EF92FF920F931F93DF93CF930F9278
:102C1000CDB7DEB7E82ED62EF42E122F2091B603B4
:102C20003091B703AE014F5F5F4F0E94F5158823C7
:102C300041F1212F30E04F2D50E04F5F5F4F421B9D
:102C4000530B81E090E002C0880F991F1A95E2F7BC
:102C50000197042E02C0880F991F0A94E2F7202FD3
:102C600030E002C0220F331F4A95E2F7482F40950B
:102C7000598145238223482B49838E2D6D2D0E9437
:102C8000EE130F90CF91DF911F910F91FF90EF9076
:102C9000DF9008950F93FC01062F80816BE642E0E0
:102CA00023E00E9400160F9108950F93FC01062F58
:102CB00080816CE144E022E00E9400160F910895AB
:102CC0000F93FC01062F80816BE144E022E00E941B
:102CD00000160F910895EF92FF920F931F93DF93C9
:102CE000CF930F92CDB7DEB7F82EE62E042F122F1A
:102CF0002091B6033091B703AE014F5F5F4F0E9442
:102D0000F5152981112351F081E090E002C0880F70
:102D1000991F0A95E2F7422F482B0AC081E090E004
:102D200002C0880F991F0A95E2F7482F4095422369
:102D300049838F2D6E2D0E94EE130F90CF91DF915E
:102D40001F910F91FF90EF900895FC01262F808135
:102D50006BE646E00E946B1608950F931F938C015B
:102D600061E00E944A16C80160E00E946016C80136
:102D700060E00E945516C80160E00E94A5161F91F0
:102D80000F91089510925F0781E080935D07109284
:102D90005E0784E161E00E941A0C85E161E00E9417
:102DA0001A0CE9EBF0E080818E7F808380818D7F3B
:102DB000808388E48093B80085E48093BC00089504
:102DC0001092F9061092FA0610921C0710921D0735
:102DD0000E94C2160895CF92DF92CF93DF93E6014F
:102DE000688179818A819B8120E030E040E85FE35F
:102DF0000E947235882381F08FE197E00E94E016EF
:102E00008BE297E00E94AD1680E090E0A0E8BFE37F
:102E100088839983AA83BB83DF91CF91DF90CF9082
:102E20000895AF92BF92CF92DF92EF92FF920F93ED
:102E30001F935C016A017B0100E010E020E030E0BC
:102E40000E946B20C501B701A60101E010E020E05F
:102E500030E00E946B201F910F91FF90EF90DF9068
:102E6000CF90BF90AF90089560E070E080E090E078
:102E70000E94432061E070E080E090E00E944320E7
:102E800008950F931F938C0160E070E080E090E064
:102E9000A8010E94DA1F61E070E080E090E0A801E4
:102EA0000E94DA1F1F910F910895CF92DF92EF9247
:102EB000FF920F931F93DF93CF9300D00F92CDB764
:102EC000DEB77C018091AF079091B0078E159F050A
:102ED0000CF58091AD079091AE07009731F00E94FC
:102EE000FA011092B0071092AF07C7010E9450017B
:102EF0009093AE078093AD07009741F400E010E097
:102F000083E0C82ED12CCC0EDD1E1CC0F092B00781
:102F1000E092AF0700E010E06E010894C11CD11CE4
:102F200027C08091AB079091AC0761E070E0A601EB
:102F300021EB37E00E940B31882311F58B819C81B6
:102F4000080F191F0E151F0564F31AC0B701601B87
:102F5000710B200F311F8091AB079091AC07A60138
:102F60000E940B31882361F489819A81080F191F0F
:102F70002091AD073091AE070E151F053CF302C03E
:102F800020E030E0C9010F900F900F900F90CF918B
:102F9000DF911F910F91FF90EF90DF90CF900895F8
:102FA000AF92BF92CF92DF92FF920F931F93DF9366
:102FB000CF93CDB7DEB72A970FB6F894DEBF0FBE1A
:102FC000CDBF8B016A01A0E0B0E08B839C83AD8311
:102FD000BE83CB01AA2797FDA095BA2F8F83988730
:102FE000A987BA878091AB079091AC0768E070E041
:102FF000AE014D5F5F4F5E010894A11CB11C9501AD
:103000000E940630F82E8823B9F489819A810897A6
:1030100099F4C114D10491F08091AB079091AC0761
:10302000B801A60195010E940630882329F4898100
:103030009A818017910711F0FF24F3948F2D2A961F
:103040000FB6F894DEBF0FBECDBFCF91DF911F91B9
:103050000F91FF90DF90CF90BF90AF900895AF9207
:10306000BF92CF92DF92EF92FF920F931F93DF9365
:10307000CF93CDB7DEB72C970FB6F894DEBF0FBE57
:10308000CDBF7C016B01CA0159010E945517FC019B
:103090000097D1F481E090E0A0E0B0E08D839E83C2
:1030A000AF83B8878FEF9FEFAFEFBFEF89879A8726
:1030B000AB87BC87C70168E070E0AE014B5F5F4F34
:1030C0000E94D01711E04FC000811181228133810D
:1030D00009831A832B833C838BE1E816F10461F0AA
:1030E0008CE1E816F10451F53496C601BF01A9013F
:1030F00098010E944C2506C03496C601B501AF0167
:103100000E944029182F8823C9F029813A814B81D8
:103110005C8181E090E0A0E0B0E08D839E83AF838E
:10312000B88729873A874B875C87C70168E070E0DA
:10313000AE014B5F5F4F0E94D01715C089819A8105
:10314000AB81BC811D821E821F82188689879A8767
:10315000AB87BC87C70168E070E0AE014B5F5F4F93
:103160000E94D017182F812F2C960FB6F894DEBF2F
:103170000FBECDBFCF91DF911F910F91FF90EF90C8
:10318000DF90CF90BF90AF900895EF92FF920F9392
:103190001F93DF93CF93CDB7DEB72C970FB6F8947C
:1031A000DEBF0FBECDBF8C01CB017A010E94551747
:1031B000FC010097D1F481E090E0A0E0B0E08D83C5
:1031C0009E83AF83B8878FEF9FEFAFEFBFEF898705
:1031D0009A87AB87BC87C80168E070E0AE014B5F9F
:1031E0005F4F0E94D01781E028C060817181828189
:1031F000938169837A838B839C830D31110531F030
:103200000E31110531F40E94011F03C0A7010E9475
:10321000B41E89819A81AB81BC811D821E821F826E
:10322000188689879A87AB87BC87C80168E070E0F9
:10323000AE014B5F5F4F0E94D0172C960FB6F894EB
:10324000DEBF0FBECDBFCF91DF911F910F91FF90D9
:10325000EF9008950F931F938C011092AA0710927C
:10326000A90760E070E080E090E0A8010E943328A8
:1032700061E070E080E090E0A8010E943328809136
:10328000AB079091AC070E94252F1F910F910895D5
:10329000CF92DF92EF92FF920F931F936B017C010D
:1032A00089019A018091AB079091AC07B701A60103
:1032B0000E94242F1F910F91FF90EF90DF90CF90ED
:1032C00008951F938091AB079091AC070E940B2F3C
:1032D000182F882361F460E070E080E090E00E94A5
:1032E000372761E070E080E090E00E943727812F6F
:1032F0001F9108952F923F924F925F926F927F920B
:103300008F929F92AF92BF92CF92DF92EF92FF92F5
:103310000F931F93DF93CF93CDB7DEB72A970FB6E6
:10332000F894DEBF0FBECDBF5B016C012A01809116
:10333000AA07882309F46FC08E010D5F1F4FC801D3
:10334000B601A50192010E9443281E010894211C88
:10335000311C09871A8752C00D811E81060D171D69
:10336000F801E080F180428153818091AB07909118
:10337000AC07B70191010E940630882309F048C0CC
:1033800089819A818E159F0509F042C0F801E48079
:10339000F5801E141F048CF4468157818091AB0781
:1033A0009091AC07B70191010E940630882381F506
:1033B00089819A818E159F0559F5C401880F991F3F
:1033C000EF81F885E80FF91F80819181B601A50191
:1033D0000E942D1F0894811C911C88E090E0680ECB
:1033E000791E8B819C81881699060CF4B5CF89854E
:1033F0009A85B601A50192010E9443288B819C8188
:103400001816190644F48824992466247724E9CFF1
:10341000C2010E942A192A960FB6F894DEBF0FBE89
:10342000CDBFCF91DF911F910F91FF90EF90DF9073
:10343000CF90BF90AF909F908F907F906F905F9054
:103440004F903F902F9008951F93CF93DF93EC01FF
:1034500060E070E080E090E00E94971E60E070E025
:1034600080E090E0AE010E947A1960E070E080E0B8
:1034700090E0AE010E9465278091AD079091AE0764
:10348000009731F00E94FA011092AE071092AD073A
:1034900061E070E080E090E00E94971E61E070E0E3
:1034A00080E090E0AE010E947A1961E070E080E077
:1034B00090E0AE010E9465278091AD079091AE0724
:1034C000009731F00E94FA011092AE071092AD07FA
:1034D0008091A907882311F410E00BC084E190E0EB
:1034E00060E070E040E050E00E94D017182F10928A
:1034F000A9078091AA07882341F01092AA0781E0CA
:1035000090E09093BB038093BA038091AB079091B6
:10351000AC070E942A338091AB079091AC070E94C0
:10352000232F812FDF91CF911F9108952F923F92EA
:103530004F925F926F927F928F929F92AF92BF92C3
:10354000CF92DF92EF92FF920F931F93DF93CF936F
:10355000CDB7DEB7A0970FB6F894DEBF0FBECDBFD4
:103560006C017B012A018091AA07882359F480917C
:10357000AB079091AC076AEA77E00E940D2F882391
:1035800009F012C38091AA07882309F40DC31A8297
:10359000198200E010E058E0652E712C4BE0842E7B
:1035A000912C8C0E9D1E5E010894A11CB11CB301D0
:1035B000601B710B9401200F311F8091AB0790911C
:1035C000AC07A5010E940B31282F882351F4898173
:1035D0009A81080F191F0115110519F008301105FE
:1035E00034F389819A81222309F0DBC21816190667
:1035F0000CF0DAC28091A907882321F41B861C866F
:103600001D861E868B859C85AD85BE858630910581
:10361000A105B10509F468C087309105A105B10580
:1036200010F582309105A105B10509F4BAC28330C5
:103630009105A105B10558F40097A105B10509F45C
:1036400068C00197A105B10509F0AEC24BC2843034
:103650009105A105B10509F458C10597A105B1056A
:1036600009F0A2C281C189309105A105B10509F413
:1036700090C28A309105A105B10558F487309105B3
:10368000A105B105D1F10897A105B10509F08CC2DA
:1036900026C08B309105A105B10509F476C28B30A7
:1036A0009105A105B10508F463C20F97A105B10505
:1036B00009F07AC2D6011696ED91FC911797808198
:1036C0009181A281B3818B839C83AD83BE8385E18D
:1036D00090E064E070E0AE014D5F5F4F2DC16F85FB
:1036E00078898DE190E059C24F8558898BE190E04F
:1036F000B601970108EB13E009C04F8558898CE1AA
:1037000090E0B6012FEF3FEF09EB13E00E942F1876
:103710004BC2D6011496ED91FC9115970081118151
:10372000F801F281FD8FD8011396BC91BE8FF8018C
:10373000F081FB8FD8011196BC91BC8F30E1832EB4
:10374000912CA12CB12C8B8A9C8AAD8ABE8A88E0F0
:1037500090E0A0E0B0E08F8B988FA98FBA8F23E123
:10376000422E512C4C0E5D1E8091AB079091AC0700
:1037700068E070E0A2013E010894611C711C930195
:103780000E940630882309F0BAC089819A8108977F
:1037900009F0B5C0F801E080F18088E090E0E80E23
:1037A000F91EEE0CFF1CEE0CFF1CC7010E9450011D
:1037B0008F8F98A38C011C01009709F4A2C08B8AFB
:1037C0009C8AAD8ABE8AC701AA2797FDA095BA2F09
:1037D0008F8B988FA98FBA8F8091AB079091AC0790
:1037E00068E070E0A20193010E940630882309F08E
:1037F00088C089819A81089709F083C04B8D5C8DC0
:10380000D6011296ED91FC911397A080B180C280F1
:10381000D380D801AD92BD92CD92DC921397A48053
:10382000B580C680D7801496AD92BD92CD92DC92C1
:103830001797A084B184C284D3841896AD92BD92A8
:10384000CD92DC921B9784859585A685B785F80176
:1038500084879587A687B787D80150961D921D92B9
:103860001D921C92539784E090E0A0E0B0E0848B1E
:10387000958BA68BB78B8091BA039091BB03A0E088
:10388000B0E0808F918FA28FB38FCA01AA2797FDD6
:10389000A095BA2F848F958FA68FB78F2D8D3E8DD3
:1038A000C901BC012F8D38A1C901FC0120E030E025
:1038B0000CC0DB018D919D91BD01A0E0B0E0848F33
:1038C000958FA68FB78F2F5F3F4F349624173507FC
:1038D00084F38091AB079091AC07B701A8019E01DA
:1038E0002F5F3F4F0E940630882359F489819A81C7
:1038F0008E159F0531F481E08093A90702C0222430
:103900003324C1010E94FA014FC18F8598890E941A
:103910005517BC018E01095F1F4F009781F481E0AC
:1039200090E0A0E0B0E08F839887A987BA8782E112
:1039300090E064E070E0A8010E94D01735C1C60194
:103940000E9432241F82188619861A8682E190E02E
:1039500064E070E0A8010E94D017882309F024C118
:1039600081E08093A80720C1D6011496ED91FC91C7
:1039700015970190F081E02DA084B184A114B104C9
:1039800009F495C0D5016D907C908280938000E011
:1039900010E060E070E040E050E021C0F501A2815D
:1039A000B381A40FB51F1296ED91FC911397EE0F02
:1039B000FF1FE80DF91D2081318116968D919C9194
:1039C0001797DC012A9FC0012B9F900D3A9F900D05
:1039D0001124080F191F6F5F7F4F485F5F4F6615F7
:1039E0007705E4F283E190E0A0E0B0E08B8B9C8B64
:1039F000AD8BBE8BC801AA2797FDA095BA2F8F8BE0
:103A0000988FA98FBA8F8091AB079091AC0768E02F
:103A100070E0AE014D5E5F4F6E010894C11CD11C79
:103A200096010E940630882309F0BEC089819A81E0
:103A3000089709F0B9C0EE24FF2400E010E0260149
:103A400032C0F501A281B381A00FB11F1296ED9192
:103A5000FC911397EE0FFF1FE80DF91D20813181B6
:103A600016968D919C911797289F6001299FD00CE5
:103A7000389FD00C11244D915C918091AB079091AF
:103A8000AC07B60192010E940630882309F08CC071
:103A9000085F1F4F89819A818C159D0509F084C0AC
:103AA0000894E11CF11CE614F7045CF27DC083E18C
:103AB00090E0A0E0B0E08B8B9C8BAD8BBE8B1F8A1F
:103AC000188E198E1A8E8091AB079091AC0768E022
:103AD00070E0AE014D5E5F4F9E012F5F3F4F0E9431
:103AE000063062C081E190E060E070E040E050E0CC
:103AF0000E94D017882309F057C060E070E080E092
:103B000090E00E94971E8091B407882339F060E00E
:103B100070E080E090E0A7010E947A1960E070E018
:103B200080E090E0A7010E94652761E070E080E0FE
:103B300090E00E94971E8091B407882339F061E0DD
:103B400070E080E090E0A7010E947A1961E070E0E7
:103B500080E090E0A7010E9465271092AA071092CA
:103B6000A9078091AB079091AC070E941A2F1CC047
:103B700081E090E09093B3078093B20786E190E0F4
:103B800060E070E040E050E0D7CE81E0D2018C935D
:103B90000BC06F8578898EE190E0A7010E94C5185F
:103BA00003C0C7010E942A19A0960FB6F894DEBF81
:103BB0000FBECDBFCF91DF911F910F91FF90EF907E
:103BC000DF90CF90BF90AF909F908F907F906F903D
:103BD0005F904F903F902F9008950F931F938C010B
:103BE00060E070E080E090E0A8010E947A1961E056
:103BF00070E080E090E0A8010E947A191F910F9177
:103C000008958091AB079091AC070E941D2F0895F5
:103C10000F931F93CF93DF93EC018B010E94202F12
:103C20009093AC078093AB07009719F4C9EAD2E0F0
:103C300007C0BE01A8010E94A832EC01009751F014
:103C40008091AB079091AC070E94232F1092AC0794
:103C50001092AB07CE01DF91CF911F910F91089584
:103C60000895089580E090E060E070E00E94081EF2
:103C700008950E94241A08950E94611908950E94CF
:103C8000411708950E94341708950E94111708954E
:103C9000CF93DF939C01EB018091BA039091BB031A
:103CA000049731F0C9010E94961ACE010E94ED1DC1
:103CB000DF91CF910895EF92FF920F931F93CF93CF
:103CC000DF937C018B01EA010E94011E882399F495
:103CD0001BC060E070E080E090E028ED38EB45E04C
:103CE00050E00E944819C701B801AE010E94961A1F
:103CF000C8010E94ED1D8091B2079091B307892BF6
:103D000019F48881882329F38091BA039091BB0329
:103D1000049731F083E090E09093BB038093BA0363
:103D2000DF91CF911F910F91FF90EF90089524E4C0
:103D300030E0629FF001639FF00D729FF00D11243F
:103D4000EB54F84F828993890497029760F485E0D9
:103D500090E0938B828B8FEF9FEFAFEFBFEF828F5F
:103D6000938FA48FB58F0895CF93DF9324E430E031
:103D7000629FD001639FB00D729FB00D1124AB54B0
:103D8000B84F1092B4079D961C921E929C9760E0CB
:103D900070E020E030E0C1E0D0E019C01A96ED916B
:103DA000FC911B97E20FF31F82819381181619066D
:103DB00054F48481958197838683918780871386C5
:103DC0001286D183C0836F5F7F4F225F3F4F64179E
:103DD000750724F39B961C921E929A97D9961C9273
:103DE0001E92D897FD01FE961082118212821382D4
:103DF00082E090E053969C938E935297DF91CF91FF
:103E0000089524E430E0629FF001639FF00D729FFB
:103E1000F00D1124EB54F84F82899389813091057C
:103E2000D8F08530910518F00597B1F40DC08FEFEB
:103E30009FEFAFEFBFEF828F938FA48FB58F85E099
:103E400090E0938B828B08958FEF9FEFAFEFBFEFE2
:103E5000828F938FA48FB58F089524E430E0429F22
:103E6000F001439FF00D529FF00D1124EB54F84FD9
:103E70009C01220F331FC90143E0880F991F4A9507
:103E8000E1F7821B930B0284F385E02DE80FF91F05
:103E900081E08093B4078285938591878087208510
:103EA00031858681978140E050E02817390711F469
:103EB00041E050E0518340830895EF92FF920F93C9
:103EC0001F93CF93DF93DC01EA01F9011496ED9083
:103ED000FC90159712964D915C911397288139812A
:103EE00018968D919C9119978217930730F08D91B8
:103EF0009C911197892B09F43FC08701040F151F6E
:103F0000A801421B530B18968D919C9119978E19FD
:103F10009F09840F951F861797070CF443C0260F3F
:103F2000371F888199812017310728F471836083B6
:103F3000938382832EC05183408393838283CB01FA
:103F4000841B950B95838483181619061CF080E05A
:103F500090E004C014968D919C9115979783868369
:103F600014968D919C91159724813581820F931F12
:103F70009983888380E017C018968D919C9119973A
:103F8000821B930B861797076CF0718360833383D2
:103F90002283158214821782168288819981860F66
:103FA000971FE6CF81E0DF91CF911F910F91FF9096
:103FB000EF900895EF92FF920F931F93CF93DF93AB
:103FC0007B018C01FA0184E490E0E89EE001E99E27
:103FD000D00DF89ED00D1124CB54D84F8A899B89DF
:103FE000009709F449C00197C1F48AA59BA52A8DC1
:103FF0003B8D4C8D5D8D01969BA78AA70197AA27C3
:1040000097FDA095BA2F82179307A407B507A1F5CE
:10401000C801B701AF010E94B41E8A899B8903972A
:1040200059F58AA59BA52E8D3F8D48A159A10196D2
:104030009BA78AA70197AA2797FDA095BA2F821759
:104040009307A407B507C4F08EAD9FAD9BA78AA7C1
:1040500084E090E09B8B8A8B8AAD9BADACADBDAD0F
:10406000181619061A061B063CF4FE01EE5BFF4FFC
:1040700081E090E091838083DF91CF911F910F9138
:10408000FF90EF90089524E430E0629FF001639F79
:10409000F00D729FF00D1124EB54F84F8289938933
:1040A0000097C1F00497B1F482A593A5019693A758
:1040B00082A7AA2797FDA095BA2F26893789408D18
:1040C000518D82179307A407B50721F485E090E08E
:1040D000938B828B08952F923F924F925F926F92B3
:1040E0007F928F929F92AF92BF92CF92DF92EF9288
:1040F000FF920F931F93DF93CF93CDB7DEB7CC54CE
:10410000D0400FB6F894DEBF0FBECDBF27969FAF4D
:104110008EAF27974DA75EA76FA778AB2B960CAFF6
:104120001DAF2EAF3FAF2B9784E490E029962EADC4
:104130003FAD2997289F4001299F900C389F900CF4
:10414000112445EB57E0840E951ED4011A960D906C
:10415000BC91A02D2596BFAFAEAF2597F401828903
:104160009389029709F025C186A597A5A0A9B1A9B1
:104170000097A105B10529F484E090E0938B828B30
:1041800018C1D40154968D919C9155972796EEAD08
:10419000FFAD2797E817F90709F00BC1D6962D91C7
:1041A0003C91D7973EAF2DAF1DAA1EAA1FAA18AEED
:1041B0001CAA1BAACBC0D401D2964D905C90D39779
:1041C000EBA9FCA94E0E5F1ED20112960D90BC9178
:1041D000A02DBCAFABAFB695A795B695A795BAAFD6
:1041E000A9AFF40180AD91AD892B09F489C0E6A097
:1041F000F7A000A511A56DAC7EACD2012D903C902E
:1042000021961FAE1EAE219771C0F40182A193A129
:10421000892B61F1D101AD90BD90CD90DC90C601AC
:10422000B501A80197010E94543688235CF0F30180
:104230006081718182819381A80197010E9472350A
:1042400087FD98C0C601B501A80197010E945436A8
:10425000181664F4D3016D917D918D919C91A80104
:1042600097010E947235882309F484C0F40184A167
:1042700095A1892B61F1D101AD90BD90CD90DC90DD
:10428000C601B501A80197010E94723588235CF42C
:10429000F3016081718182819381A80197010E945D
:1042A000543687FF67C0C601B501A80197010E9477
:1042B0007235882361F4D3016D917D918D919C912C
:1042C000A80197010E94543618160CF453C0219689
:1042D000EEADFFAD219731962196FFAFEEAF21975E
:1042E00024E030E0620E731E220E331E21964EAD86
:1042F0005FAD219789AD9AAD481759070CF485CF6A
:10430000D2016C9111967C918DAD9EAD4BAD5CADA3
:104310000E945202E9ADFAADEE0FFF1FEE0FFF1F34
:104320002DAD3EAD2E0F3F1F3EAF2DAF8DA99EA9E7
:10433000AFA9B8AD0196A11DB11D8DAB9EABAFABC2
:10434000B8AFABA9BCA91496BCABABABF40186A5C6
:1043500097A5A0A9B1A92DA93EA94FA958AD281785
:1043600039074A075B070CF426CF81E090E091AF54
:1043700080AF1FC0F401868D978DA0A1B1A10097D9
:10438000A105B10549F484E090E0938B828B86AD62
:1043900097AD93A782A70DC083E090E0D401539618
:1043A0009C938E93529781E090E09B969C938E9382
:1043B0009A97F401828993898230910571F482ADD4
:1043C00093ADA4ADB5AD181619061A061B060CF070
:1043D0002FC2A1E02A2E312C05C0049709F028C273
:1043E0002224332427968EAD9FAD2797880F991FDF
:1043F0007C01E3E0EE0CFF1CEA95E1F7E81AF90A0C
:1044000025962EAD3FAD2597E20EF31ED7011296ED
:104410006D917C9113976115710519F480E090E01E
:10442000FAC1F701868197819A838983FE01799683
:1044300084E1DF011D928A95E9F72B962CAD3DAD05
:104440004EAD5FAD2B9729A73AA74BA75CA72114C8
:10445000310409F446C0F401FE9620813181428185
:104460005381F40182AD93ADA4ADB5AD28173907E2
:104470004A075B07B1F5D70114964D915C911597EA
:10448000640F751F1896ED91FC91199784819581A1
:10449000A681B7819C018B839C83AD83BE83285FFB
:1044A0003F4FF70180859185820F931F9187808709
:1044B00080859185861B970B97FD04C0480F591F77
:1044C000518740873C832B83F401FE968081918144
:1044D000A281B3810197A109B10980839183A2834D
:1044E000B383C70164E170E08E010F5F1F4FA80125
:1044F0009E012F5E3F4F0E945D1F90E0009709F0E4
:104500008AC18D8D9E8DAF8DB8A10C96A11DB11D58
:104510008D8F9E8FAF8FB8A3C70164E070E0A801B4
:104520009E01275F3F4F0E945D1F282F30E03AAB6E
:1045300029AB232B09F06DC18D8D9E8DAF8DB8A158
:104540000496A11DB11D8D8F9E8FAF8FB8A38E01D4
:10455000035D1F4F49855A858B859C85B8010E9454
:1045600052026F8578896115710551F029853A8568
:10457000200F311F4D855E85CB01B9010E9452028B
:104580001D821E821F82188627964EAD5FAD27972B
:10459000440F551F23965FAF4EAF2397CE0105966C
:1045A0002D969FAF8EAF2D97D4C0C901880F991F4C
:1045B000880F991FF401A085B185A80FB91FED914F
:1045C000FC911197E081EE2309F4B8C0E33009F4BF
:1045D000B5C01296ED91FC91139723962EAD3FAD89
:1045E0002397E20FF31F408051804114510409F4D6
:1045F000A5C089A19AA1ABA1BCA10196A11DB11D25
:1046000089A39AA3ABA3BCA3C70164E070E0AE0189
:104610004F5F5F4F9E01275F3F4F0E945D1F90E0FD
:10462000009709F0F8C08D8D9E8DAF8DB8A10496CE
:10463000A11DB11D8D8F9E8FAF8FB8A349855A855F
:104640008B859C852C966FAD2C972D967FAD2D97E5
:104650000E9452026F8578896115710571F0298574
:104660003A8545E050E04C0F5D1F240F351F4D8506
:104670005E85CB01B9010E945202AA24BB246501C8
:104680006624772450C0D20114960D911C91159781
:10469000060D171DF80162817381C701AE014F5FDE
:1046A0005F4F9E01275F3F4F0E945D1F90E0009784
:1046B00009F0B1C0D80112962D913C91139744276F
:1046C00037FD4095542F8D8D9E8DAF8DB8A1820FF3
:1046D000931FA41FB51F8D8F9E8FAF8FB8A3F801B6
:1046E0006081718149855A858B859C850E94520223
:1046F0006F8578896115710569F0D8012D913C911C
:1047000089859A85280F391F4D855E85CB01B901B2
:104710000E9452020894A11CB11CC11CD11CE4E0EF
:10472000F0E06E0E7F1EF20180819181A281B38143
:10473000A816B906CA06DB060CF4A5CF8D819E81AA
:10474000AF81B8850196A11DB11D8D839E83AF8376
:10475000B8872D813E814F815885F40184819581F0
:10476000A681B781281739074A075B070CF41DCFCC
:1047700089A19AA1ABA1BCA10097A105B10509F43B
:1047800048C08AE190E0A0E0B0E0898F9A8FAB8FBB
:10479000BC8F27962EAD3FAD2797C901AA2797FD5D
:1047A000A095BA2F8DA39EA3AFA3B8A78E01075ED5
:1047B0001F4F49895A898B899C89B8010E945202EE
:1047C0006F89788D6115710551F029893A89200F1B
:1047D000311F4D895E89CB01B9010E945202898146
:1047E0009A81D70117969C938E93169711961C92D7
:1047F0001E922328E9F0F401FE9680819181A28126
:10480000B3810196A11DB11D80839183A283B383DF
:104810000FC089A99AA9232859F4892B49F081E06E
:1048200090E0F40195A784A785E090E0938B828BBC
:10483000C45BDF4F0FB6F894DEBF0FBECDBFCF9184
:10484000DF911F910F91FF90EF90DF90CF90BF907D
:10485000AF909F908F907F906F905F904F903F9020
:104860002F9008952F923F924F925F926F927F9276
:104870008F929F92AF92BF92CF92DF92EF92FF9270
:104880000F931F93DF93CF93CDB7DEB768970FB623
:10489000F894DEBF0FBECDBFDC011496ED91FC9104
:1048A00015970190F081E02D80859185988F8F8BF1
:1048B000A281B381BE8BAD8BFB0181919191A191BE
:1048C000B19189839A83AB83BC83662477244301A7
:1048D00065C09E012B5F3F4FAF0180E1DA010D9073
:1048E000AD01D9010D929D018150C1F730E1432EF8
:1048F000512C4E0E5F1E8D819E8123E0880F991FE3
:104900002A95E1F7EF89F88DA281B381A80FB91F2D
:104910002D903C901197E989FA89EE0FFF1F8D8940
:104920009E89E80FF91F0190F081E02D14968D917A
:104930009C911597892B19F481E090E002C082E0E8
:1049400090E08E9F70018F9FF00C9E9FF00C1124C1
:104950000027F7FC0095102F2D853E854F8558893F
:10496000C801B7010E94BB365B016C0129853A85FD
:104970004B855C85C801B7010E94BB369101260FAB
:10498000371FC901B201A5010E945202F201EA0DCE
:10499000FB1D0894611C711C811C911C89819A81EA
:1049A000AB81BC81681679068A069B060CF491CF10
:1049B00068960FB6F894DEBF0FBECDBFCF91DF91E2
:1049C0001F910F91FF90EF90DF90CF90BF90AF902D
:1049D0009F908F907F906F905F904F903F902F901F
:1049E0000895CF93DF9324E430E0629FE001639F5A
:1049F000D00D729FD00D1124CB54D84F8AA99BA9FA
:104A0000009721F00E94FA011BAA1AAA8EA99FA959
:104A1000009721F00E94FA011FAA1EAA1B8A1A8A77
:104A20001E8A1F8A188E198E1A8E1B8E1C8E1D8E42
:104A30001E8E1F8E18A219A281E090E09BA38AA36C
:104A40001DA21CA280E090E0A0E0B0E08EA39FA396
:104A5000A8A7B9A71BA61AA61DA61CA61EA61FA618
:104A600018AA19AA1BAA1AAA1DAA1CAA1FAA1EAA1A
:104A700019AE18AE1AAE1BAE1CAE1DAEFE01FE96F0
:104A80001082118212821382FE01EE5BFF4F1182AF
:104A90001082DF91CF9108952F923F924F925F92B3
:104AA0006F927F928F929F92AF92BF92CF92DF923E
:104AB000EF92FF920F931F93DF93CF93CDB7DEB7A3
:104AC000AC970FB6F894DEBF0FBECDBF98A38F8F03
:104AD0008B0129A33AA34BA35CA3FB018191919184
:104AE000A191B191AF01BC0189839A83AB83BC834F
:104AF00029A13AA184E490E0289FF001299FF00DBC
:104B0000389FF00D11249F012B54384F3EA32DA345
:104B1000D90155967C936E9354979F012553384F36
:104B2000D80114964D905D906D907C901797D901A7
:104B30004D925D926D927C921397BA016C5F7F4F9C
:104B40009F012153384FDA0114964D905D906D907E
:104B50007C901797D9014D925D926D927C9213973C
:104B6000AB014C5F5F4F9F012D52384FDB01149614
:104B70004D905D906D907C901797D9014D925D920C
:104B80006D927C921397ED51F84FDA0114964D9087
:104B90005D906D907C901797408251826282738203
:104BA000FA013896FE8FED8F0DA11EA1025D1F4FF9
:104BB000C201141415040CF0C3C0880F991F880F8C
:104BC000991F0E9450019C018DA19EA1C296ADA18A
:104BD000BEA1D3963C932E93D297232B09F427C1E1
:104BE0002224332421011A8E198E18A70FA39AA705
:104BF00089A7D496BCA7ABA788C0E9A5FAA5019060
:104C0000F081E02D298D3A8DE20FF31FFC8FEB8FA1
:104C1000DE011996ED8DFE8D80E101900D9281509F
:104C2000E1F7AF8DB8A11496ED91FC911597208115
:104C30003181D9011696ED91FC91179789859A8556
:104C400053E0880F991F5A95E1F7A281B381A80F0D
:104C5000B91F6D907C9011978D899E89880F991F3F
:104C6000F90122813381280F391FF90140815181D7
:104C700014968D919C911597892B19F481E090E001
:104C800002C082E090E02D8D3E8D205F3F4F3E8F31
:104C90002D8F849F7001859FF00C949FF00C112440
:104CA0000027F7FC0095102F29893A894B895C89E8
:104CB000C801B7010E94BB364B015C016B012D8519
:104CC0003E854F855889C801B7010E94BB36660EE4
:104CD000771EAB8DBC8D11967C926E9213969C9232
:104CE0008E921297EBA5FCA580819181C80ED91EEA
:104CF000D182C0820894211C311C411C511C298D79
:104D00003A8D2C5F3F4F3A8F298FEFA1F8A5808114
:104D10009181A281B381281639064A065B060CF4FC
:104D20006CCFADA1BEA1D4968D919C91D5970E94D8
:104D30005001EDA1FEA197AB86AB009709F477C0B7
:104D4000AD8DBE8D2C9111963C91119712964C9180
:104D5000129713965C912D833E834F835887C90128
:104D6000DA01AC01BD01411551056105710539F04C
:104D7000A0E0B0E0423051056105710511F4A1E0F9
:104D8000B0E029A13AA184E490E0289FF001299F96
:104D9000F00D389FF00D1124EB54F84FB3A3A2A3EC
:104DA00015A214A24150504060407040423051055D
:104DB0006105710520F481E090E095A384A384E46B
:104DC00090E0E9A1FAA1E89F9001E99F300DF89FDA
:104DD000300D1124A9014552584FED8DFE8D84816F
:104DE0009581A681B781FA0180839183A283B383E1
:104DF000F901EB54F84F268D378D40A151A157FF93
:104E000010C088279927DC01821B930BA40BB50BDC
:104E100082AF93AFA4AFB5AF168E178E10A211A2BA
:104E200004C012AE13AE14AE15AE80E007C069A187
:104E30007AA18BA19CA10E94F12481E0AC960FB6CF
:104E4000F894DEBF0FBECDBFCF91DF911F910F91C0
:104E5000FF90EF90DF90CF90BF90AF909F908F909A
:104E60007F906F905F904F903F902F900895CF93D9
:104E7000DF939B01AC0184E490E0289FF001299F1F
:104E8000F00D389FF00D1124EB54F84FD901A454C4
:104E9000BC4F8C91882331F084E4EF0119928A95FC
:104EA000E9F71C92148215821682178211861086E9
:104EB00013861286118A108A17861686CA01B901CE
:104EC0000E94F124DF91CF9108952F923F924F924B
:104ED0005F926F927F928F929F92AF92BF92CF928A
:104EE000DF92EF92FF920F931F93DF93CF9300D047
:104EF0000F92CDB7DEB73B014C015A83498384E45E
:104F000090E0689E7001699EF00C789EF00C112470
:104F100085EB97E0E80EF91EF70184819581A68163
:104F2000B7810097A105B10509F486C0AA24BB2466
:104F300065014424552435C0E40DF51D32802380DD
:104F4000232D322DC9019C838B8300E010E017C014
:104F5000AB81BC81ED91FC91309751F084819581BA
:104F60000E94FA01EB81FC81808191810E94FA010B
:104F70000F5F1F4F8B819C8102969C838B83A9813D
:104F8000BA810A171B0724F3832D922D0E94FA0180
:104F90000894A11CB11CC11CD11CE4E0F0E04E0E31
:104FA0005F1ED70114962D913D914D915C911797FD
:104FB0001896ED91FC911997A216B306C406D50672
:104FC0000CF4BACFCF010E94FA01F70182859385D4
:104FD000892BF1F000E010E0CC24DD240CC0EC0DB6
:104FE000FD1D848195810E94FA010F5F1F4F8EE0A5
:104FF00090E0C80ED91ED7011A96ED91FC911B972F
:1050000089819A810817190754F3CF010E94FA0188
:10501000D70150968D919C9151970E94FA01F7010A
:10502000868597850E94FA01C401B3010E94F1248C
:10503000C401B3010E9437270F900F900F900F907B
:10504000CF91DF911F910F91FF90EF90DF90CF9064
:10505000BF90AF909F908F907F906F905F904F9098
:105060003F902F90089524E430E0629FF001639F09
:10507000F00D729FF00D1124EB54F84F138A128A31
:105080000E94652708954F925F926F927F928F9250
:105090009F92AF92BF92CF92DF92EF92FF920F93C7
:1050A0001F93DF93CF9300D00F92CDB7DEB75C0193
:1050B00049835A836B837C83290184E490E0489F71
:1050C0008001499F100D589F100D11240B54184F4B
:1050D000F801828993890497029708F0B4C0F5011A
:1050E0001182108213821282F80115861486882498
:1050F00099246624772460C0F80142855385460DC3
:10510000571DFA0180819181892B09F04EC0C0841E
:10511000D184E280F38066817781F801848595856A
:105120009C01A3E0220F331FAA95E1F7A089B18962
:10513000A20FB31F880F991F26853785280F391FA7
:10514000F90191828082F801848595850196958781
:1051500084871396DC92CE921297FA017387628746
:10516000C616D70670F46C197D0911967C936E9360
:1051700015961C921E92149717961C921E921697C3
:1051800014C0FA0184819581E80EF91EEC18FD081F
:105190001196FC92EE92681B790B15967C936E9398
:1051A000149717969C938E9316970894811C911CC4
:1051B0008EE090E0680E791E841495040CF49CCF68
:1051C000F80184859585F50191838083F801208914
:1051D0003189F50133832283F80126853785F5016E
:1051E00035832483892BB9F5F80182899389059742
:1051F00091F51092B407828D938DA48DB58DAE017B
:105200004F5F5F4F8F5F9F4FAF4FBF4F71F480E293
:1052100090E064E070E00E94D01769817A818B8110
:105220009C81A2010E94332816C08FE190E064E0C7
:1052300070E00E94D017F80113A612A681E090E05A
:10524000938B828B08C0F80115861486F5011182B4
:105250001082138212820F900F900F900F90CF91B7
:10526000DF911F910F91FF90EF90DF90CF90BF9053
:10527000AF909F908F907F906F905F904F90089528
:105280002F923F924F925F926F927F928F929F9256
:10529000AF92BF92CF92DF92EF92FF920F931F9344
:1052A000DF93CF93CDB7DEB7E6970FB6F894DEBFA6
:1052B0000FBECDBF98AB8FA77AAB69AB7A010BABB2
:1052C0001CAB2DAB3EAB84E490E04BA95CA9489F9E
:1052D0009001499F300D589F300D11242B54384FA9
:1052E0003AA729A78BA99CA9ADA9BEA9F9018083DA
:1052F0009183A283B383BC01CD0149A95AA90E941D
:105300006527D7012D913D914D915C91C901E9A58A
:10531000FAA5248335834683578364E070E00E94B6
:105320003401A9A5BAA519969C938E931897009756
:1053300009F04FC104C2E9A5FAA50084F185E02D6A
:10534000298D3A8DE20FF31FFEA7EDA70BA51CA533
:10535000F80181919191A191B1918F019C018D836F
:105360009E83AF83B887220F331FAFA5B8A9ED91F5
:10537000FC91E20FF31F80819181EDA5FEA5918341
:105380008083EBA5FCA584819581A681B781898363
:105390009A83AB83BC8389A99AA962E070E00E94DA
:1053A0003401ADA5BEA513969C938E9312970097DA
:1053B00009F4C5C1F8013496FCA7EBA71F8E18A20B
:1053C00019A21AA2F7C0EBA5FCA580819181A28148
:1053D000B3819C018D839E83AF83B887220F331FD7
:1053E000ADA5BEA512960D911C911397020F131F28
:1053F00081E090E068E070E00E943401F801808371
:1054000091838D819E81880F991FADA5BEA51296AF
:10541000ED91FC911397E80FF91F60807180611482
:10542000710409F48CC10BA51CA50C5F1F4FEBA5E3
:10543000FCA52481358146815781C901D3012D9373
:105440003D934D935C93139764E070E00E943401A8
:10545000F30195838483009709F471C198012C5F4F
:105460003F4F3CA72BA72224332421011CA21BA2BF
:105470008AC0D30114960D90BC91A02DEBA1FCA184
:10548000AE0FBF1FBEA3ADA3DE011996EBA5FCA511
:1054900080E101900D928150E1F7AFA5B8A9149673
:1054A000ED91FC91159720813181D9011696ED91EE
:1054B000FC91179789859A8553E0880F991F5A9513
:1054C000E1F7A281B381A80FB91FED91FC9111976B
:1054D000F8A7EFA38D899E89880F991FF901228172
:1054E0003381280F391FF9014081518114968D9124
:1054F0009C911597892B19F481E090E002C082E01D
:1055000090E02BA53CA5205F3F4F3CA72BA7849F95
:105510007001859FF00C949FF00C11240027F7FC7C
:105520000095102F29893A894B895C89C801B701F8
:105530000E94BB365B016C012D853E854F855889E5
:10554000C801B7010E94BB364FA158A5460F571F8F
:10555000ADA1BEA111965C934E931396BC92AE92F0
:105560001297F301868197818A0D9B1D978386830D
:105570000894211C311C411C511C2BA13CA12C5F07
:105580003F4F3CA32BA3F30180819181A281B38182
:10559000281639064A065B060CF46BCF2F8D38A10E
:1055A00049A15AA12F5F3F4F4F4F5F4F2F8F38A315
:1055B00049A35AA389819A81AB81BC812F8D38A1DF
:1055C00049A15AA1281739074A075B070CF4FBCEFB
:1055D000D8C0A7014C5F5F4F5CA74BA71B8E1C8EEA
:1055E0001D8E1E8E1A8E198EE9A5FAA584819581CD
:1055F000A681B7812B8D3C8D4D8D5E8D2817390787
:105600004A075B070CF497CE89A99AA96EE070E06F
:105610000E943401A9A5BAA51A968C931A971B96D5
:105620009C9344245524222433246624772401E0C7
:10563000C02ED12C5BC0EBA5FCA580819181A281FD
:10564000B3819C0189839A83AB83BC83A9A5BAA546
:105650001A964D915C911B97790137FD70C08A01B4
:10566000060D171DF801D182C0822115310559F0B0
:10567000C9010E945001D80115969C938E931497EE
:10568000009721F45CC0F801158214822BA53CA57B
:105690002C5F3F4F3CA72BA7D8011396FC92EE92AC
:1056A000129714968D919C91159717969C938E93B3
:1056B000169719969C938E9318971B961C921E9280
:1056C0001A9720E030E089819A81AB81BC810097F4
:1056D000A105B10511F021E030E0420E531E0894FF
:1056E000211C311CEEE0F0E06E0E7F1E29A93AA9C4
:1056F000221633060CF49FCFA9A5BAA51D961C92BD
:105700001E921C97C20113E0880F991F1A95E1F7AA
:105710000E945001E9A5FAA5918B808B009779F042
:10572000C201880F991F0E945001A9A5BAA51F9612
:105730009C938E931E97009711F080E009C06BA98F
:105740007CA98DA99EA949A95AA90E94652781E033
:10575000E6960FB6F894DEBF0FBECDBFCF91DF91B6
:105760001F910F91FF90EF90DF90CF90BF90AF907F
:105770009F908F907F906F905F904F903F902F9071
:1057800008952B8D3C8D4D8D5E8D2F5F3F4F4F4F7C
:105790005F4F2B8F3C8F4D8F5E8F498D5A8D4C5FA5
:1057A0005F4F5A8F498F20CF2F923F924F925F9237
:1057B0006F927F928F929F92AF92BF92CF92DF9221
:1057C000EF92FF920F931F93DF93CF93CDB7DEB786
:1057D0002F970FB6F894DEBF0FBECDBF7C016B01D3
:1057E000DB0111968C91882309F4E6C11A821B8291
:1057F0001C821D8219828EE7F7018083818383E0FA
:1058000085878687108A1786128A118AD701539650
:105810001D921D921D921C92569757961C9237010D
:105820000894611C711C32E0432E512C4E0C5F1CFD
:1058300023E0822E912C8E0C9F1C9DE0A92EB12C72
:10584000AE0CBF1CFE013A96FF87EE8781E0282E42
:10585000312CC601BE016F5F7F4F21E030E040E098
:1058600050E08E010E5F1F4F0E944933882309F0DC
:10587000A4C18A819B81AC81BD810197A105B1053D
:1058800051F0D70150961C921E921F9752961C926F
:105890001E92519791C1F7018785908902970397CE
:1058A00008F587899981882329F0178AF0E29F27D4
:1058B000998318C09D3729F09E3741F0933091F4B9
:1058C00008C0E1E0D7015796EC93C3CFD7019C9372
:1058D0002BC0D70152961C921E92519750961C9243
:1058E0001E921F97F701878590898230910509F4F0
:1058F00046C08330910534F4009781F0019709F098
:10590000A8CF27C08430910509F4D6C08430910512
:105910000CF463C0059709F09CCF12C189818E37C2
:1059200009F097CFD7018C9352967C926E92519743
:1059300053968D919D910D90BC91A02D0196A11D26
:10594000B11DF701838B948BA58BB68B308A27868C
:1059500080CF89818E3709F02AC1D7015196ED9108
:10596000FC9152978083F701138A148A158A168A4C
:1059700082E090E0908B8787528A418A6ACFF70154
:1059800083899489A589B6890097A105B10509F095
:105990000EC189810188F289E02D8193D701529649
:1059A000FC93EE93519753968D919D910D90BC91E0
:1059B000A02D0196A11DB11DF701838B948BA58BA2
:1059C000B68B0197A105B10509F043CF83E090E0C4
:1059D000908B8787928A818AABC0F70183899489EB
:1059E000A589B6890497A105B10508F0E0C08981B1
:1059F0000188F289E02D8193D7015296FC93EE93B2
:105A0000519753968D919D910D90BC91A02D01962B
:105A1000A11DB11DF701838B948BA58BB68B0497C9
:105A2000A105B10509F015CFD6012C911A861B8668
:105A30001C861D86F40180819181A281B3818E83B1
:105A40009F83A887B987222389F4DE011696FE0179
:105A50003D968D91808331978E859F85A817B907D4
:105A6000C1F78A859B85AC85BD8504C08E819F81E9
:105A7000A885B985F70183839483A583B683138AA8
:105A8000148A158A168A0097A105B10549F084E0A9
:105A900090E0908B878787819085928B818BD9CE80
:105AA000E5E0F0E0D7015096FC93EE931F975296F5
:105AB000BC92AE925197CDCED70153962D913D9188
:105AC0004D915C91569713968D919D910D90BC913F
:105AD000A02D281739074A075B0708F068C089819D
