:100000000C9404010C9469080C949A080C94CB0885
:100010000C94FC080C942D090C945E090C948F0927
:100020000C94C0090C9431010C9431010C943101F1
:100030000C9431010C9431010C9431010C94310178
:100040000C9431010C9431010C9431010C94310168
:100050000C9431010C9431010C9431010C94F10990
:100060000C9431010C946A020C9466030C943101D7
:100070000C9431010C9431010C9431010C94310138
:100080000C9431010C9431010C9431010C94310128
:100090000C94A9020C94A5030C9431010C94310129
:1000A0000C9431010C9431010C9431010C94310108
:1000B0000C9431010C9431010C9431010C943101F8
:1000C0000C9431010C9431010C94D40F0C94E8027F
:1000D0000C94E4030C9431010C9427030C94230436
:1000E0000C94310100002100240027002A002D007B
:1000F0003000330001010000040107010A01000083
:100100002200250028002B002E00310034000201BF
:100110000000050108010B0100002000230026005B
:1001200029002C002F00320000010000030106010D
:10013000090105050505070508080808020202026D
:100140000A0A080804040404010101010101010173
:100150000303030303030303040707070C0C0C0C3E
:100160000C0C0C0C02020202060606060606060627
:100170000B0B0B0B0B0B0B0B0102102020080810B4
:100180002040102040800201020108040201010207
:1001900004081020408080402010080402018004E0
:1001A000020180402010080402010804020101023B
:1001B0000408102040800102040810204080000044
:1001C000090A02080B0C0D070603040100000000D9
:1001D000000000000000000000000000000000001F
:1001E0000000000000000000000011100F000000DF
:1001F00000000000000000000000000000000000FF
:10020000000000009305C90611241FBECFEFD1E204
:10021000DEBFCDBF00E00CBF13E0A0E0B2E0EAEE2D
:10022000F6E600E00BBF02C007900D92AE3DB107AD
:10023000D9F71BBE18E0AEEDB3E001C01D92AC389B
:10024000B107E1F712E0C8E0D2E004C02297FE0156
:100250000E946F33C430D107C9F70E94DE0E0C94A0
:1002600073330C9400000F931F93CF93DF93689F19
:100270008001699F100D789F100D1124C8010E9404
:100280004F01EC01009729F060E070E0A8010E94A6
:100290005A02CE01DF91CF911F910F910895CF9314
:1002A000DF93BC018230910510F462E070E0A09110
:1002B0008A08B0918B08ED01E0E0F0E040E050E00A
:1002C00021C0888199818617970769F48A819B816B
:1002D000309719F09383828304C090938B088093A6
:1002E0008A08FE0134C06817790738F441155105B2
:1002F00019F08417950708F4AC01FE018A819B81EF
:100300009C01E9012097E9F641155105A9F1CA01BF
:10031000861B970B049708F4BA01E0E0F0E02AC0CE
:100320008D919C91119784179507F9F464177507BF
:1003300081F412968D919C911397309719F09383C5
:10034000828304C090938B0880938A08FD013296C3
:100350004CC0CA01861B970BFD01E80FF91F619382
:10036000719302978D939C9340C0FD01828193818C
:100370009C01D9011097A1F6809188089091890875
:10038000892B41F480911103909112039093890875
:10039000809388084091130350911403411551052F
:1003A00041F44DB75EB780910F0390911003481B45
:1003B000590B2091880830918908CA01821B930B40
:1003C0008617970780F0AB014E5F5F4F8417950744
:1003D00050F0420F531F5093890840938808F90149
:1003E0006193719302C0E0E0F0E0CF01DF91CF9123
:1003F0000895CF93DF93009709F450C0EC01229742
:100400001B821A82A0918A08B0918B08109709F17B
:1004100040E050E0AC17BD0708F1BB83AA83FE01A2
:1004200021913191E20FF31FAE17BF0779F48D913F
:100430009C911197280F391F2E5F3F4F39832883D6
:1004400012968D919C9113979B838A834115510538
:1004500071F4D0938B08C0938A0820C012968D91B6
:100460009C911397AD01009711F0DC01D3CFFA01F5
:10047000D383C28321913191E20FF31FCE17DF079F
:1004800069F488819981280F391F2E5F3F4FFA0147
:10049000318320838A819B8193838283DF91CF91F3
:1004A0000895FB01DC0102C001900D9241505040C3
:1004B000D8F70895DC0101C06D9341505040E0F73A
:1004C0000895FB01DC018D91019080190110D9F391
:1004D000990B08951F920F920FB60F920BB60F92C1
:1004E00011242F933F934F938F939F93EF93FF93F9
:1004F0008091C00082FD1DC04091C60020911E0465
:1005000030911F042F5F3F4F2F7330708091200474
:10051000909121042817390771F0E0911E04F091A1
:100520001F04E252FC4F408330931F0420931E04AB
:1005300002C08091C600FF91EF919F918F914F91E2
:100540003F912F910F900BBE0F900FBE0F901F90F9
:1005500018951F920F920FB60F920BB60F9211249F
:100560002F933F934F938F939F93EF93FF9380919C
:10057000C80082FD1DC04091CE002091A60430919C
:10058000A7042F5F3F4F2F7330708091A804909184
:10059000A9042817390771F0E091A604F091A70487
:1005A000EA59FB4F40833093A7042093A60402C06E
:1005B0008091CE00FF91EF919F918F914F913F914C
:1005C0002F910F900BBE0F900FBE0F901F9018959C
:1005D0001F920F920FB60F920BB60F9211242F930A
:1005E0003F934F938F939F93EF93FF938091D0000E
:1005F00082FD1DC04091D60020912E0530912F051F
:100600002F5F3F4F2F7330708091300590913105EF
:100610002817390771F0E0912E05F0912F05E2516E
:10062000FB4F408330932F0520932E0502C080910D
:10063000D600FF91EF919F918F914F913F912F9114
:100640000F900BBE0F900FBE0F901F9018951F922A
:100650000F920FB60F920BB60F9211242F933F9368
:100660004F938F939F93EF93FF938091300182FD7F
:100670001DC0409136012091B6053091B7052F5F1E
:100680003F4F2F7330708091B8059091B9052817AE
:10069000390771F0E091B605F091B705EA58FA4FC5
:1006A00040833093B7052093B60502C08091360190
:1006B000FF91EF919F918F914F913F912F910F90CB
:1006C0000BBE0F900FBE0F901F9018951F920F92A8
:1006D0000FB60F920BB60F9211242F933F938F9367
:1006E0009F93EF93FF932091620430916304809174
:1006F0006404909165042817390731F48091C10092
:100700008F7D8093C10014C0E0916404F091650472
:10071000EE5DFB4F20818091640490916504019609
:100720008F73907090936504809364042093C60047
:10073000FF91EF919F918F913F912F910F900BBE61
:100740000F900FBE0F901F9018951F920F920FB62B
:100750000F920BB60F9211242F933F938F939F9379
:10076000EF93FF932091EA043091EB048091EC0425
:100770009091ED042817390731F48091C9008F7DDD
:100780008093C90014C0E091EC04F091ED04E655AB
:10079000FB4F20818091EC049091ED0401968F73C2
:1007A00090709093ED048093EC042093CE00FF9121
:1007B000EF919F918F913F912F910F900BBE0F90D2
:1007C0000FBE0F901F9018951F920F920FB60F92A9
:1007D0000BB60F9211242F933F938F939F93EF9318
:1007E000FF9320917205309173058091740590916B
:1007F00075052817390731F48091D1008F7D8093DA
:10080000D10014C0E0917405F0917505EE5CFA4FCB
:100810002081809174059091750501968F73907079
:1008200090937505809374052093D600FF91EF9106
:100830009F918F913F912F910F900BBE0F900FBE04
:100840000F901F9018951F920F920FB60F920BB634
:100850000F9211242F933F938F939F93EF93FF93C6
:100860002091FA053091FB058091FC059091FD05E2
:100870002817390731F4809131018F7D8093310140
:1008800014C0E091FC05F091FD05E654FA4F20817B
:100890008091FC059091FD0501968F739070909367
:1008A000FD058093FC0520933601FF91EF919F9108
:1008B0008F913F912F910F900BBE0F900FBE0F9015
:1008C0001F901895AF92BF92DF92EF92FF920F9315
:1008D0001F93CF93DF93EC017A018B01DD2440302D
:1008E00081EE580780E0680780E0780711F0DD248A
:1008F000D39491E0A92EB12CEC89FD89DD2069F01B
:10090000C50108A002C0880F991F0A94E2F78083EE
:1009100060E079E08DE390E005C0108260E874E863
:100920008EE190E0A80197010E944B3321503040A6
:1009300040405040569547953795279580E12030A7
:10094000380720F0DD2011F0DD24D6CFE889F989C1
:100950003083EA89FB89208319A2EE89FF894081CF
:1009600021E030E0C9010C8C02C0880F991F0A9465
:10097000E2F7482B4083EE89FF894081C9010D8C45
:1009800002C0880F991F0A94E2F7482B4083EE8932
:10099000FF894081C9010E8C02C0880F991F0A94FB
:1009A000E2F7482B4083EE89FF8980810F8C02C0DB
:1009B000220F331F0A94E2F7209528232083DF912A
:1009C000CF911F910F91FF90EF90DF90BF90AF906C
:1009D0000895DC011C96ED91FC911D97E05CFF4FA2
:1009E0002191319180819181281B390B2F733070B7
:1009F000C9010895DC011C96ED91FC911D97E05C06
:100A0000FF4F20813181E054F040DF01AE5BBF4FEA
:100A10008D919C9111972817390719F42FEF3FEF0B
:100A200007C08D919C91E80FF91F8081282F30E03D
:100A3000C9010895DC011C96ED91FC911D97E05CC5
:100A4000FF4F20813181E054F040DF01AE5BBF4FAA
:100A50008D919C9111972817390719F42FEF3FEFCB
:100A600010C08D919C911197E80FF91F20818D91F5
:100A70009C91119701968F73907011969C938E9311
:100A800030E0C9010895DC0191968C9191978823FB
:100A900039F05496ED91FC915597808186FFF9CFFE
:100AA00091961C920895CF93DF93EC01EE85FF851C
:100AB000E05CFF4F20813181E054F0402F5F3F4FD9
:100AC0002F733070DF01AE5BBF4F8D919C911197FA
:100AD00028173907D1F3E05CFF4F80819181E05402
:100AE000F040E80FF91F6083EE85FF85E05CFF4F63
:100AF00031832083EE89FF89208181E090E00F8C93
:100B000002C0880F991F0A94E2F7282B208381E006
:100B100089A3EC89FD8980818064808381E090E0F5
:100B2000DF91CF9108951F93109201061092000655
:100B300028EE33E040E050E02093020630930306B5
:100B4000409304065093050669EC73E07093FF052B
:100B50006093FE058EED93E090930B0680930A065A
:100B600082E294E090930D0680930C0685EC90E071
:100B700090930F0680930E0684EC90E090931106FC
:100B80008093100680EC90E09093130680931206F9
:100B900081EC90E0909315068093140682EC90E02F
:100BA000909317068093160686EC90E090931906B2
:100BB0008093180614E010931A06B3E0B0931B0656
:100BC000A7E0A0931C06F5E0F0931D06E1E0E0939A
:100BD0001E061092230610922206209324063093BC
:100BE00025064093260650932706709321066093AE
:100BF000200686E694E090932D0680932C068AEAE0
:100C000094E090932F0680932E068DEC90E09093C5
:100C10003106809330068CEC90E0909333068093FD
:100C2000320688EC90E0909335068093340689EC88
:100C300090E090933706809336068AEC90E090938C
:100C40003906809338068EEC90E090933B068093B3
:100C50003A0610933C06B0933D06A0933E06F093EF
:100C60003F06E093400610924506109244062093FA
:100C700046063093470640934806509349067093C2
:100C80004306609342068EEE94E090934F06809365
:100C90004E0682E395E0909351068093500685EDD1
:100CA00090E0909353068093520684ED90E09093E9
:100CB00055068093540680ED90E0909357068093FC
:100CC000560681ED90E0909359068093580682ED88
:100CD00090E090935B0680935A0686ED90E09093A7
:100CE0005D0680935C0610935E06B0935F06A0934A
:100CF0006006F0936106E093620610926706109218
:100D00006606209368063093690640936A065093FE
:100D10006B06709365066093640686E795E0909392
:100D20007106809370068AEB95E09093730680932A
:100D3000720685E391E0909375068093740684E3D0
:100D400091E0909377068093760680E391E090930C
:100D500079068093780681E391E090937B068093F7
:100D60007A0682E391E090937D0680937C0686E389
:100D700091E090937F0680937E0610938006B09357
:100D80008106A0938206F0938306E09384061F9168
:100D9000089589ED93E090938706809386061092DC
:100DA00088061092890610928A0610928B06089582
:100DB0008F929F92AF92BF92CF92DF92EF92FF926B
:100DC0000F931F93CF93DF934C016B017C01AA24F7
:100DD000BB24C0E0D0E0C601F70162814AE050E0E8
:100DE0000E94DB078C01C6016EE20E944407080FD7
:100DF000191FA00EB11E21960894E11CF11CC330EE
:100E0000D10549F7C601F40165814AE050E00E942E
:100E1000DB079501280F391FC901DF91CF911F9181
:100E20000F91FF90EF90DF90CF90BF90AF909F9089
:100E30008F900895CF92DF92EF92FF920F931F93BE
:100E4000CF93DF937C016B018A01C0E0D0E00FC03B
:100E5000D6016D916D01D701ED91FC910190F0816A
:100E6000E02DC7011995C80FD91F01501040011579
:100E7000110571F7CE01DF91CF911F910F91FF9076
:100E8000EF90DF90CF900895DC01ED91FC910190FF
:100E9000F081E02D19950895CF93DF93EC01611552
:100EA000710519F420E030E00FC0DB010D90002047
:100EB000E9F71197A61BB70BE881F9810280F3814E
:100EC000E02DAD0119959C01C901DF91CF910895E5
:100ED0004F925F927F928F929F92AF92BF92CF92EA
:100EE000DF92EF92FF920F931F93DF93CF93CDB7D3
:100EF000DEB7A1970FB6F894DEBF0FBECDBF2C01B1
:100F0000742ECB01223008F42AE019A231E2C32E5C
:100F1000D12CCC0EDD1E822E9924AA24BB24672D51
:100F2000752FA50194010E944B3379018A01C801F4
:100F3000B701A50194010E942C33472D461B08944C
:100F4000C108D1084A3014F4405D01C0495CF60183
:100F50004083E114F1040105110521F07E2C5F2D81
:100F6000C801DDCFC201B6010E944C07A1960FB6A1
:100F7000F894DEBF0FBECDBFCF91DF911F910F91CF
:100F8000FF90EF90DF90CF90BF90AF909F908F90A9
:100F90007F905F904F900895DC012115310541F459
:100FA000ED91FC910190F081E02D642F1995089549
:100FB0000E9468070895EF92FF920F931F939A0182
:100FC000E62EFF2400E010E0B801A7010E94CC0744
:100FD0001F910F91FF90EF900895883008F078C02E
:100FE000E82FF0E0EE0FFF1FE457F94F71836083A5
:100FF0008330D9F0843030F4813009F444C0823039
:1010000060F439C0853051F18530D8F0863009F46C
:1010100046C0873009F05CC04FC0809169008C7F6A
:10102000842B80936900E89A089580916900440FA9
:10103000551F440F551F837F842B80936900E99AC5
:1010400008958091690074E0440F551F7A95E1F787
:101050008F7C842B80936900EA9A089580916900BF
:1010600066E0440F551F6A95E1F78F73842B8093D8
:101070006900EB9A089580916A008C7F842B80939D
:101080006A00EC9A089580916A00440F551F440F3E
:10109000551F837F842B80936A00ED9A0895809179
:1010A0006A0024E0440F551F2A95E1F78F7C842BBA
:1010B00080936A00EE9A089580916A0096E0440F4A
:1010C000551F9A95E1F78F73842B80936A00EF9AEE
:1010D00008951F920F920FB60F920BB60F92112424
:1010E0002F933F934F935F936F937F938F939F9330
:1010F000AF93BF93EF93FF938091900690919106E9
:10110000892B29F0E0919006F09191061995FF91B5
:10111000EF91BF91AF919F918F917F916F915F916F
:101120004F913F912F910F900BBE0F900FBE0F90DC
:101130001F9018951F920F920FB60F920BB60F9239
:1011400011242F933F934F935F936F937F938F93CC
:101150009F93AF93BF93EF93FF93809192069091EB
:101160009306892B29F0E0919206F0919306199548
:10117000FF91EF91BF91AF919F918F917F916F916F
:101180005F914F913F912F910F900BBE0F900FBE2B
:101190000F901F9018951F920F920FB60F920BB6DB
:1011A0000F9211242F933F934F935F936F937F93ED
:1011B0008F939F93AF93BF93EF93FF938091940688
:1011C00090919506892B29F0E0919406F09195066F
:1011D0001995FF91EF91BF91AF919F918F917F9161
:1011E0006F915F914F913F912F910F900BBE0F9098
:1011F0000FBE0F901F9018951F920F920FB60F926F
:101200000BB60F9211242F933F934F935F936F93DD
:101210007F938F939F93AF93BF93EF93FF938091AF
:10122000960690919706892B29F0E0919606F09109
:1012300097061995FF91EF91BF91AF919F918F9173
:101240007F916F915F914F913F912F910F900BBEC6
:101250000F900FBE0F901F9018951F920F920FB610
:101260000F920BB60F9211242F933F934F935F93DE
:101270006F937F938F939F93AF93BF93EF93FF935E
:1012800080918C0690918D06892B29F0E0918C0637
:10129000F0918D061995FF91EF91BF91AF919F91BC
:1012A0008F917F916F915F914F913F912F910F900F
:1012B0000BBE0F900FBE0F901F9018951F920F92AC
:1012C0000FB60F920BB60F9211242F933F934F93AB
:1012D0005F936F937F938F939F93AF93BF93EF939E
:1012E000FF9380918E0690918F06892B29F0E091D3
:1012F0008E06F0918F061995FF91EF91BF91AF91F6
:101300009F918F917F916F915F914F913F912F911D
:101310000F900BBE0F900FBE0F901F9018951F924D
:101320000F920FB60F920BB60F9211242F933F938B
:101330004F935F936F937F938F939F93AF93BF93DD
:10134000EF93FF938091980690919906892B29F04D
:10135000E0919806F09199061995FF91EF91BF9150
:10136000AF919F918F917F916F915F914F913F913D
:101370002F910F900BBE0F900FBE0F901F901895DE
:101380001F920F920FB60F920BB60F9211242F934C
:101390003F934F935F936F937F938F939F93AF93FD
:1013A000BF93EF93FF9380919A0690919B06892BB0
:1013B00029F0E0919A06F0919B061995FF91EF9123
:1013C000BF91AF919F918F917F916F915F914F915D
:1013D0003F912F910F900BBE0F900FBE0F901F905B
:1013E00018951F920F920FB60F9211242F933F93CF
:1013F0008F939F93AF93BF938091A0069091A10686
:10140000A091A206B091A3063091A4060196A11D59
:10141000B11D232F2D5F2D3720F02D570196A11DD3
:10142000B11D2093A4068093A0069093A106A093DB
:10143000A206B093A30680919C0690919D06A09170
:101440009E06B0919F060196A11DB11D80939C063A
:1014500090939D06A0939E06B0939F06BF91AF9177
:101460009F918F913F912F910F900FBE0F901F90E2
:1014700018959B01AC017FB7F89480919C069091E0
:101480009D06A0919E06B0919F0666B5A89B05C0DB
:101490006F3F19F00196A11DB11D7FBFBA2FA92F73
:1014A000982F8827860F911DA11DB11D62E0880F1E
:1014B000991FAA1FBB1F6A95D1F7BC012DC0FFB7AA
:1014C000F89480919C0690919D06A0919E06B09103
:1014D0009F06E6B5A89B05C0EF3F19F00196A11D38
:1014E000B11DFFBFBA2FA92F982F88278E0F911DEE
:1014F000A11DB11DE2E0880F991FAA1FBB1FEA952D
:10150000D1F7861B970B885E9340C8F2215030407C
:101510004040504068517C4F21153105410551052F
:1015200071F60895789484B5826084BD84B5816035
:1015300084BD85B5826085BD85B5816085BDEEE6DB
:10154000F0E0808181608083E1E8F0E010828081BA
:1015500082608083808181608083E0E8F0E0808128
:1015600081608083E1EBF0E0808184608083E0EB48
:10157000F0E0808181608083E1E9F0E08081826039
:101580008083808181608083E0E9F0E080818160F8
:101590008083E1EAF0E080818260808380818160E5
:1015A0008083E0EAF0E0808181608083E1E2F1E025
:1015B000808182608083808181608083E0E2F1E0CD
:1015C000808181608083EAE7F0E0808184608083AD
:1015D0008081826080838081816080838081806857
:1015E00080831092C1000895CF93DF93482F50E07D
:1015F000CA0188589E4FFC0134914E5C5E4FFA013F
:101600008491882369F190E0880F991FFC01EC51C7
:10161000FF4FA591B491FC01E250FF4FC591D491C9
:10162000662351F42FB7F8948C91932F90958923CA
:101630008C93888189230BC0623061F42FB7F894B2
:101640008C91932F909589238C938881832B888309
:101650002FBF06C09FB7F8948C91832B8C939FBFAC
:10166000DF91CF910895893009F449C08A30A0F400
:10167000843051F1853040F4823079F1833000F5C7
:10168000813009F063C026C0873079F1883098F541
:10169000863009F05BC025C08D3009F442C08E3021
:1016A00028F48B30B1F18C30C0F52DC0803109F4B5
:1016B00042C0813109F445C08F3009F047C037C0BE
:1016C000809180008F7703C0809180008F7D809310
:1016D0008000089584B58F7702C084B58F7D84BD66
:1016E00008958091B0008F7703C08091B0008F7D06
:1016F0008093B0000895809190008F7707C080910B
:1017000090008F7D03C080919000877F8093900030
:1017100008958091A0008F7707C08091A0008F7DF1
:1017200003C08091A000877F8093A00008958091DE
:1017300020018F7703C0809120018F7D809320014D
:10174000089580912001877F809320010895FF9262
:101750000F931F93F62E482F50E0CA0182549E4FDC
:10176000FC012491CA0188589E4FFC0114914E5CE3
:101770005E4FFA0104910023C9F0222319F0822F51
:101780000E94330BE02FF0E0EE0FFF1FE250FF4FFF
:10179000A591B4919FB7F894FF2021F48C911095F6
:1017A000812302C08C91812B8C939FBF1F910F913D
:1017B000FF9008950F931F93482F50E0CA01825461
:1017C0009E4FFC012491CA0188589E4FFC01049150
:1017D0004E5C5E4FFA011491112319F420E030E0C1
:1017E00015C0222319F0822F0E94330B812F90E025
:1017F000880F991F885E9E4FFC01A591B4918C9132
:1018000020E030E0802311F021E030E0C9011F9199
:101810000F91089580E090E00895EF92FF920F936A
:101820001F93CF93DF93162F072F7A01E9011982B7
:1018300018828EEF95E00E94E904892BD1F0812F68
:10184000902F9C01890110C08EEF95E00E941A052F
:101850002FEF8F3F920741F0F80181938F0188812C
:101860009981019699838883888199818E159F0536
:1018700058F380E090E0DF91CF911F910F91FF909E
:10188000EF900895EF92FF920F931F938A017901D1
:101890008EEF95E00E941A07F7011183008380E024
:1018A00090E01F910F91FF90EF9008950E94920A8F
:1018B0008EEF95E040E052EC61E070E00E9462043F
:1018C00004C08EEF95E00E941A058EEF95E00E940D
:1018D000E904892BB1F780E090E008950895E0EDE8
:1018E000F7E08EEADF011D928A95E9F781E798E03B
:1018F0009093D7078093D60784E798E090931108D8
:101900008093100885E698E09093E5078093E407BC
:10191000F0933B08E0933A08F093D507E093D4079F
:1019200081E090E0909372088093710880E092E0EB
:101930009093DB078093DA0726E738E03093750849
:101940002093740880E090E0A0E8BFEB80936D08DE
:1019500090936E08A0936F08B09370088FE892EC94
:10196000A5EFBCE38093650890936608A093670891
:10197000B09368088AE694E0A9E6B9E080934F083E
:1019800090935008A0935108B093520887E395E8CC
:10199000A6E3B5E28093530890935408A0935508AA
:1019A000B093560881E99CEFA2E4BAEE8093570801
:1019B00090935808A0935908B0935A0882E29AEC81
:1019C000A4E6B0ED80935B0890935C08A0935D085B
:1019D000B0935E0881EC96E09093D3078093D20792
:1019E00087EB96E09093C2068093C1068DED93E05D
:1019F0009093B8068093B7069093BA068093B90681
:101A00009093BC068093BB069093BE068093BD0660
:101A10009093C0068093BF068FE598E09093C6062A
:101A20008093C5068FE498E09093C4068093C30624
:101A30003093C8062093C7068AE0EEE7F8E0DF019E
:101A40001D928A95E9F780E1E0ECF7E0DF011D9255
:101A50008A95E9F7E5EAF6E082E1DF011D928A95D1
:101A6000E9F7F0936008E0935F088EE090E09093D0
:101A7000A6068093A50685E193E09093A80680933F
:101A8000A70681E393E09093AA068093A9068DE4CC
:101A900093E09093AC068093AB0681E593E090933E
:101AA000AE068093AD0680919D0361E00E94F40A2A
:101AB0008091A10361E00E94F40A80E090E0A0E040
:101AC000B0E08093C0079093C107A093C207B09382
:101AD000C3078091A5039091A6039093CF078093AD
:101AE000CE0708958F929F92AF92BF92CF92DF92CE
:101AF000EF92FF920F931F9382E898E064E878E0FA
:101B000040EC57E029EB33E002E010E0BBEBEB2EBA
:101B1000B3E0FB2EA2E0CA2ED12CFDEBAF2EF3E0FA
:101B2000BF2EE2E08E2E912C0E942111809182081E
:101B3000909183089093CF078093CE07A0906D0873
:101B4000B0906E08C0906F08D0907008C601B501C3
:101B500020E030E040E85FEB0E94DE31882331F185
:101B6000E0917408F0917508E080F18002811381A2
:101B7000C601B501A80197010E9479315B016C0192
:101B8000C801B70120E030E040E054E30E94C932D0
:101B90009B01AC01C601B5010E94C532181634F094
:101BA00082E192E09093D1078093D00780917308EF
:101BB000882331F082E192E09093D1078093D0079F
:101BC0000091740810917508609161087091620825
:101BD00080916308909164086F5F7F4F8F4F9F4F94
:101BE000609361087093620880936308909364081F
:101BF0000E94133220916508309166084091670871
:101C0000509168080E94C932F80160837183828311
:101C100093838091690890916A08A0916B08B091B4
:101C20006C080196A11DB11D8093690890936A0804
:101C3000A0936B08B0936C081F910F91FF90EF90E9
:101C4000DF90CF90BF90AF909F908F9008958F922C
:101C50009F92AF92BF92CF92DF92EF92FF920F933B
:101C60001F93E0917408F091750880819181A281A1
:101C7000B38180937E0890937F08A0938008B093EF
:101C800081088091B703813049F4E090B303F0906C
:101C9000B4030091B5031091B60308C0E090AF0300
:101CA000F090B0030091B1031091B203C801B701E5
:101CB00020E030E040E853E40E94DE3187FD02C0BE
:101CC0006FEF10C0C801B70120E030E040E050E005
:101CD0000E94C53287FF02C060E004C0C801B7019E
:101CE0000E94E73180919D030E94A70B8091B80369
:101CF000813049F4E090AB03F090AC030091AD0368
:101D00001091AE0308C0E090A703F090A8030091E3
:101D1000A9031091AA03C801B70120E030E040E810
:101D200053E40E94DE3187FD02C06FEF10C0C8018E
:101D3000B70120E030E040E050E00E94C53287FF6C
:101D400002C060E004C0C801B7010E94E731809181
:101D5000A1030E94A70B82E898E064E878E040ECD9
:101D600057E029EB33E002E010E0BBEBEB2EB3E0F1
:101D7000FB2EA2E0CA2ED12CFDEBAF2EF3E0BF2E3E
:101D8000E2E08E2E912C0E94E010809182089091CA
:101D900083082091CE073091CF07821B930B90933D
:101DA0008708809386081F910F91FF90EF90DF9036
:101DB000CF90BF90AF909F908F900895BF92CF9299
:101DC000DF92EF92FF920F931F93DF93CF930F92C7
:101DD000CDB7DEB70E94920A80E090E060E070E04C
:101DE0000E949E1A0E946F0C0091DB031091DC038D
:101DF000C80183569F4F0E949C1A82E090E00E9487
:101E0000A81A1982F8018281938162E070E0AE0124
:101E10004F5F5F4F0E94C71A8981882339F00D55A3
:101E20001F4F81E0F8018083035A10400E949D1AE1
:101E30008DEA98EF9093250180932401809173009F
:101E40008E7F80937300809120018C7F809320018E
:101E500080912101877E80932101809121018460FE
:101E600080932101809121018C7F809321018091B9
:101E7000730081608093730083EAE82EF12CE00EFA
:101E8000F11E6E010894C11CD11CBB24B39410C078
:101E90001982F8018281938162E070E0A6010E94BC
:101EA000B41A8981882311F0F701B0820E94AE1A1A
:101EB000F80180819181892B21F4F70180818823A9
:101EC00039F382E090E00E94A51A68EE73E080E0AA
:101ED00090E00E94390A0E946E0CF89480E090E035
:101EE0000F90CF91DF911F910F91FF90EF90DF90B6
:101EF000CF90BF9008950F931F932091CF062F5F2F
:101F00002093CF06215049F081E090E09093CE06D7
:101F10008093CD062093CF0644C078940E94270E6C
:101F200082E090E00E94AB1A0091DB031091DC0389
:101F30000C551F4FD801ED91FC9140815181628178
:101F4000738180E090E00E94B11A0B501040F801BC
:101F500060817181828193810E9413322FE832EC7B
:101F600045EF5CE30E94C932AB01BC0181E090E027
:101F70000E94B11A0E94720DF8948091CF06815090
:101F80008093CF069091D206992359F08091D00684
:101F9000882339F47894F89491509093D206109253
:101FA000D0061F910F9108951F920F920FB60F92B6
:101FB0000BB60F9211242F933F934F935F936F9320
:101FC0007F938F939F93AF93BF93EF93FF938DEA8C
:101FD00098EF90932501809324010E947B0FFF913D
:101FE000EF91BF91AF919F918F917F916F915F9191
:101FF0004F913F912F910F900BBE0F900FBE0F90FE
:102000001F9018958231910509F18331910534F4BF
:102010008230910579F00397E1F409C0843191058C
:1020200079F0843191057CF0459799F406C021E060
:1020300030E011C020E030E00EC022E030E00BC004
:1020400023E030E008C024E030E005C025E030E0C7
:1020500002C02FEF3FEFC90108950F931F93CF9355
:10206000DF938CB1C82FD0E0CC0FCD2FCC1FDD0B70
:10207000D1950091D9061091DA0620E030E024C015
:10208000B901882777FD8095982F0E94153220E0AE
:1020900030E040E050E00E947A3120E030E040E063
:1020A00050E00E947A3120E030E040E450E40E94A9
:1020B0007A3120E030E040E450E40E9479310E941F
:1020C000E2319B012F5F3F4F20173107CCF2669B17
:1020D00003C0CD2B49F402C0219731F48091DF0673
:1020E0009091E006019605C08091DF069091E00690
:1020F00001979093E0068093DF06DF91CF911F91C7
:102100000F9108950F931F93CF93DF938CB1C82F36
:10211000D0E0C074D07036E0D595C7953A95E1F718
:102120000091D9061091DA0620E030E024C0B90110
:10213000882777FD8095982F0E94153220E030E0A7
:1021400040E050E00E947A3120E030E040E050E092
:102150000E947A3120E030E040E450E40E947A317D
:1021600020E030E040E450E40E9479310E94E23106
:102170009B012F5F3F4F20173107CCF28CB190E0CD
:10218000880F892F881F990B9195019719F4219732
:1021900049F402C0CD2B31F48091DF069091E00626
:1021A000019605C08091DF069091E006019790931B
:1021B000E0068093DF06DF91CF911F910F91089584
:1021C000CF92DF92EF92FF920F931F93DF93CF9303
:1021D000CDB7DEB77C016B01FA01890160817181A5
:1021E0008281938120E030E040E85FE30E94DE31AD
:1021F0008823F1F4D801EC91F0E053E0EE0FFF1FDB
:102200005A95E1F7E952F94F80819181F701918365
:1022100080831196EC91F0E043E0EE0FFF1F4A95AA
:10222000E1F7E952F94F80819181D6018D939C931A
:10223000CF91DF911F910F91FF90EF90DF90CF90A2
:102240000895AF92BF92CF92DF92EF92FF920F93D9
:102250001F93DF93CF93CDB7DEB76A018901DA010F
:102260006D917D918D919C9120E030E040E85FE39D
:102270000E94DE31882309F4CDC0D801EC91F0E052
:10228000D7018C9190E053E0EE0FFF1F5A95E1F7D4
:10229000ED52F94F91838083D801EC91F0E0D501A4
:1022A0008C9190E043E0EE0FFF1F4A95E1F7EB526F
:1022B000F94F91838083D8011196EC91F0E0D7011A
:1022C00011968C9190E033E0EE0FFF1F3A95E1F705
:1022D000ED52F94F91838083D8011196EC91F0E093
:1022E000D50111968C9190E023E0EE0FFF1F2A9507
:1022F000E1F7EB52F94F91838083D801EC91F0E044
:10230000B3E0EE0FFF1FBA95E1F7ED52F94F808170
:10231000918160E00E94F40AD801EC91F0E0A3E022
:10232000EE0FFF1FAA95E1F7EB52F94F80819181E3
:1023300060E00E94F40A8DB18F738DB9D801EC91E1
:10234000F0E073E0EE0FFF1F7A95E1F7ED52F94FE1
:102350008081918161E00E94A70BD801EC91F0E0AF
:1023600063E0EE0FFF1F6A95E1F7EB52F94F8081B2
:10237000918161E00E94A70B8EB1806C8EB9F8014B
:102380002081222319F0223071F515C08091D306E7
:102390009091D4060E94021063E273E141E050E0A4
:1023A0000E94ED078091D5069091D6060E940210FA
:1023B00069EC72E114C08091E3069091E4060E94FA
:1023C00002106FE672E141E050E00E94ED0780915B
:1023D000E5069091E6060E94021065E172E141E097
:1023E00050E00E94ED0786E06DE270E141E050E0D0
:1023F0000E94ED0787E062E870E141E050E00E9452
:10240000ED0780E090E0A0E8BFE3F60180839183D0
:10241000A283B383CF91DF911F910F91FF90EF9033
:10242000DF90CF90BF90AF9008950F931F93CF93FD
:10243000DF938091E3069091E4060E94DA0BEC01B1
:102440000091E9061091EA0620E030E024C0B901CD
:10245000882777FD8095982F0E94153220E030E084
:1024600040E050E00E947A3120E030E040E050E06F
:102470000E947A3120E030E040E450E40E947A315A
:1024800020E030E040E450E40E9479310E94E231E3
:102490009B012F5F3F4F20173107CCF28091E5065B
:1024A0009091E6060E94DA0B019719F4219749F4FE
:1024B00002C0CD2B31F48091E7069091E806019699
:1024C00005C08091E7069091E80601979093E80691
:1024D0008093E706DF91CF911F910F9108950F939D
:1024E0001F93CF93DF938091E5069091E6060E94BB
:1024F000DA0BEC010091E9061091EA0620E030E0E9
:1025000024C0B901882777FD8095982F0E94153245
:1025100020E030E040E050E00E947A3120E030E0FE
:1025200040E050E00E947A3120E030E040E450E4A6
:102530000E947A3120E030E040E450E40E9479319A
:102540000E94E2319B012F5F3F4F20173107CCF2F1
:102550008091E3069091E4060E94DA0B019719F44A
:10256000CD2B49F402C0219731F48091E706909178
:10257000E806019605C08091E7069091E80601976C
:102580009093E8068093E706DF91CF911F910F911A
:1025900008950F931F93CF93DF938091D30690916B
:1025A000D4060E94DA0BEC010091D9061091DA06EC
:1025B00020E030E024C0B901882777FD8095982F6E
:1025C0000E94153220E030E040E050E00E947A3175
:1025D00020E030E040E050E00E947A3120E030E03E
:1025E00040E450E40E947A3120E030E040E450E4DE
:1025F0000E9479310E94E2319B012F5F3F4F2017EB
:102600003107CCF28091D5069091D6060E94DA0B64
:10261000019719F4219749F402C0CD2B31F4809130
:10262000D7069091D806019605C08091D706909163
:10263000D80601979093D8068093D706DF91CF9163
:102640001F910F9108950F931F93CF93DF93809164
:10265000D5069091D6060E94DA0BEC010091D906BE
:102660001091DA0620E030E024C0B901882777FD18
:102670008095982F0E94153220E030E040E050E035
:102680000E947A3120E030E040E050E00E947A3150
:1026900020E030E040E450E40E947A3120E030E075
:1026A00040E450E40E9479310E94E2319B012F5FA7
:1026B0003F4F20173107CCF28091D3069091D4067A
:1026C0000E94DA0B019719F4CD2B49F402C021972F
:1026D00031F48091D7069091D806019605C080917B
:1026E000D7069091D80601979093D8068093D70685
:1026F000DF91CF911F910F910895AF92BF92CF922A
:10270000DF92EF92FF920F931F935C016A017B01AE
:1027100000E010E020E030E00E94D71CC501B701C6
:10272000A60101E010E020E030E00E94D71C1F91DC
:102730000F91FF90EF90DF90CF90BF90AF900895F2
:1027400060E070E080E090E00E94AF1C61E070E02B
:1027500080E090E00E94AF1C08950F931F938C01BE
:1027600060E070E080E090E0A8010E94461C61E01B
:1027700070E080E090E0A8010E94461C1F910F913C
:102780000895CF92DF92EF92FF920F931F93DF9302
:10279000CF9300D00F92CDB7DEB77C018091F206C7
:1027A0009091F3068E159F050CF58091F00690919F
:1027B000F106009731F00E94F9011092F306109291
:1027C000F206C7010E944F019093F1068093F00634
:1027D000009741F400E010E083E0C82ED12CCC0E2D
:1027E000DD1E1CC0F092F306E092F20600E010E05D
:1027F0006E010894C11CD11C27C08091EE069091F7
:10280000EF0661E070E0A60124EF36E00E94772D2C
:10281000882311F58B819C81080F191F0E151F0548
:1028200064F31AC0B701601B710B200F311F809138
:10283000EE069091EF06A6010E94772D882361F4A1
:1028400089819A81080F191F2091F0063091F106B5
:102850000E151F053CF302C020E030E0C9010F90C7
:102860000F900F900F90CF91DF911F910F91FF90DC
:10287000EF90DF90CF900895AF92BF92CF92DF920A
:10288000FF920F931F93DF93CF93CDB7DEB72A97B5
:102890000FB6F894DEBF0FBECDBF8B016A01A0E07A
:1028A000B0E08B839C83AD83BE83CB01AA2797FDC9
:1028B000A095BA2F8F839887A987BA878091EE0653
:1028C0009091EF0668E070E0AE014D5F5F4F5E01F2
:1028D0000894A11CB11C95010E94722CF82E88232B
:1028E000B9F489819A81089799F4C114D10491F0BF
:1028F0008091EE069091EF06B801A60195010E9425
:10290000722C882329F489819A818017910711F00C
:10291000FF24F3948F2D2A960FB6F894DEBF0FBED6
:10292000CDBFCF91DF911F910F91FF90DF90CF909E
:10293000BF90AF900895AF92BF92CF92DF92EF9287
:10294000FF920F931F93DF93CF93CDB7DEB72C97F2
:102950000FB6F894DEBF0FBECDBF7C016B01CA017C
:1029600059010E94C113FC010097D1F481E090E06D
:10297000A0E0B0E08D839E83AF83B8878FEF9FEF99
:10298000AFEFBFEF89879A87AB87BC87C70168E045
:1029900070E0AE014B5F5F4F0E943C1411E04FC0EE
:1029A000008111812281338109831A832B833C8327
:1029B0008BE1E816F10461F08CE1E816F10451F5C1
:1029C0003496C601BF01A90198010E94B82106C032
:1029D0003496C601B501AF010E94AC25182F88239B
:1029E000C9F029813A814B815C8181E090E0A0E0CF
:1029F000B0E08D839E83AF83B88729873A874B8762
:102A00005C87C70168E070E0AE014B5F5F4F0E94DA
:102A10003C1415C089819A81AB81BC811D821E82C4
:102A20001F82188689879A87AB87BC87C70168E0B1
:102A300070E0AE014B5F5F4F0E943C14182F812F56
:102A40002C960FB6F894DEBF0FBECDBFCF91DF91AD
:102A50001F910F91FF90EF90DF90CF90BF90AF90BC
:102A60000895EF92FF920F931F93DF93CF93CDB70B
:102A7000DEB72C970FB6F894DEBF0FBECDBF8C012A
:102A8000CB017A010E94C113FC010097D1F481E0CF
:102A900090E0A0E0B0E08D839E83AF83B8878FEF96
:102AA0009FEFAFEFBFEF89879A87AB87BC87C801DD
:102AB00068E070E0AE014B5F5F4F0E943C1481E024
:102AC00028C0608171818281938169837A838B833D
:102AD0009C830D31110531F00E31110531F40E9446
:102AE0006D1B03C0A7010E94201B89819A81AB81C5
:102AF000BC811D821E821F82188689879A87AB87B8
:102B0000BC87C80168E070E0AE014B5F5F4F0E9478
:102B10003C142C960FB6F894DEBF0FBECDBFCF91FC
:102B2000DF911F910F91FF90EF9008950F931F93E6
:102B30008C011092ED061092EC0660E070E080E0EF
:102B400090E0A8010E949F2461E070E080E090E0A6
:102B5000A8010E949F248091EE069091EF060E94AA
:102B6000912B1F910F910895CF92DF92EF92FF92D8
:102B70000F931F936B017C0189019A018091EE06EE
:102B80009091EF06B701A6010E94902B1F910F9123
:102B9000FF90EF90DF90CF9008951F938091EE0605
:102BA0009091EF060E94772B182F882361F460E044
:102BB00070E080E090E00E94A32361E070E080E09C
:102BC00090E00E94A323812F1F9108952F923F929E
:102BD0004F925F926F927F928F929F92AF92BF922D
:102BE000CF92DF92EF92FF920F931F93DF93CF93D9
:102BF000CDB7DEB72A970FB6F894DEBF0FBECDBFB4
:102C00005B016C012A018091ED06882309F46FC0F5
:102C10008E010D5F1F4FC801B601A50192010E94F0
:102C2000AF241E010894211C311C09871A8752C049
:102C30000D811E81060D171DF801E080F180428193
:102C400053818091EE069091EF06B70191010E94A9
:102C5000722C882309F048C089819A818E159F05BE
:102C600009F042C0F801E480F5801E141F048CF4C2
:102C7000468157818091EE069091EF06B701910150
:102C80000E94722C882381F589819A818E159F0577
:102C900059F5C401880F991FEF81F885E80FF91FD6
:102CA00080819181B601A5010E94991B0894811C25
:102CB000911C88E090E0680E791E8B819C818816BB
:102CC00099060CF4B5CF89859A85B601A5019201C4
:102CD0000E94AF248B819C811816190644F4882425
:102CE000992466247724E9CFC2010E9496152A967A
:102CF0000FB6F894DEBF0FBECDBFCF91DF911F910D
:102D00000F91FF90EF90DF90CF90BF90AF909F908A
:102D10008F907F906F905F904F903F902F9008958D
:102D20001F93CF93DF93EC0160E070E080E090E0D0
:102D30000E94031B60E070E080E090E0AE010E9422
:102D4000E61560E070E080E090E0AE010E94D123E3
:102D50008091F0069091F106009731F00E94F90100
:102D60001092F1061092F00661E070E080E090E0D1
:102D70000E94031B61E070E080E090E0AE010E94E1
:102D8000E61561E070E080E090E0AE010E94D123A2
:102D90008091F0069091F106009731F00E94F901C0
:102DA0001092F1061092F0068091EC06882311F43F
:102DB00010E00BC084E190E060E070E040E050E0A3
:102DC0000E943C14182F1092EC068091ED06882387
:102DD00041F01092ED0681E090E09093C203809361
:102DE000C1038091EE069091EF060E94962F80918C
:102DF000EE069091EF060E948F2B812FDF91CF91ED
:102E00001F9108952F923F924F925F926F927F92FF
:102E10008F929F92AF92BF92CF92DF92EF92FF92EA
:102E20000F931F93DF93CF93CDB7DEB7A0970FB665
:102E3000F894DEBF0FBECDBF6C017B012A018091EB
:102E4000ED06882359F48091EE069091EF066DEE21
:102E500076E00E94792B882309F012C38091ED0659
:102E6000882309F40DC31A82198200E010E058E0AB
:102E7000652E712C4BE0842E912C8C0E9D1E5E01D4
:102E80000894A11CB11CB301601B710B9401200FAD
:102E9000311F8091EE069091EF06A5010E94772DDB
:102EA000282F882351F489819A81080F191F011551
:102EB000110519F00830110534F389819A81222314
:102EC00009F0DBC2181619060CF0DAC28091EC0684
:102ED000882321F41B861C861D861E868B859C8577
:102EE000AD85BE8586309105A105B10509F468C0A0
:102EF00087309105A105B10510F582309105A10536
:102F0000B10509F4BAC283309105A105B10558F4A1
:102F10000097A105B10509F468C00197A105B105A5
:102F200009F0AEC24BC284309105A105B10509F488
:102F300058C10597A105B10509F0A2C281C1893028
:102F40009105A105B10509F490C28A309105A1054A
:102F5000B10558F487309105A105B105D1F1089765
:102F6000A105B10509F08CC226C08B309105A105E1
:102F7000B10509F476C28B309105A105B10508F4BD
:102F800063C20F97A105B10509F07AC2D601169662
:102F9000ED91FC91179780819181A281B3818B8300
:102FA0009C83AD83BE8385E190E064E070E0AE0178
:102FB0004D5F5F4F2DC16F8578898DE190E059C2DB
:102FC0004F8558898BE190E0B60197010FEB13E034
:102FD00009C04F8558898CE190E0B6012FEF3FEF93
:102FE00000EC13E00E949B144BC2D6011496ED91A5
:102FF000FC91159700811181F801F281FD8FD801B4
:103000001396BC91BE8FF801F081FB8FD801119609
:10301000BC91BC8F30E1832E912CA12CB12C8B8ADA
:103020009C8AAD8ABE8A88E090E0A0E0B0E08F8BF9
:10303000988FA98FBA8F23E1422E512C4C0E5D1E22
:103040008091EE069091EF0668E070E0A2013E01EB
:103050000894611C711C93010E94722C882309F052
:10306000BAC089819A81089709F0B5C0F801E0805B
:10307000F18088E090E0E80EF91EEE0CFF1CEE0CEB
:10308000FF1CC7010E944F018F8F98A38C011C0168
:10309000009709F4A2C08B8A9C8AAD8ABE8AC701B8
:1030A000AA2797FDA095BA2F8F8B988FA98FBA8FDB
:1030B0008091EE069091EF0668E070E0A201930126
:1030C0000E94722C882309F088C089819A81089710
:1030D00009F083C04B8D5C8DD6011296ED91FC9169
:1030E0001397A080B180C280D380D801AD92BD92E9
:1030F000CD92DC921397A480B580C680D7801496B9
:10310000AD92BD92CD92DC921797A084B184C28417
:10311000D3841896AD92BD92CD92DC921B97848594
:103120009585A685B785F80184879587A687B78793
:10313000D80150961D921D921D921C92539784E0C7
:1031400090E0A0E0B0E0848B958BA68BB78B80914C
:10315000C1039091C203A0E0B0E0808F918FA28F55
:10316000B38FCA01AA2797FDA095BA2F848F958F98
:10317000A68FB78F2D8D3E8DC901BC012F8D38A133
:10318000C901FC0120E030E00CC0DB018D919D9174
:10319000BD01A0E0B0E0848F958FA68FB78F2F5F21
:1031A0003F4F34962417350784F38091EE069091B3
:1031B000EF06B701A8019E012F5F3F4F0E94722CBE
:1031C000882359F489819A818E159F0531F481E015
:1031D0008093EC0602C022243324C1010E94F9012D
:1031E0004FC18F8598890E94C113BC018E01095F70
:1031F0001F4F009781F481E090E0A0E0B0E08F8362
:103200009887A987BA8782E190E064E070E0A8011E
:103210000E943C1435C1C6010E949E201F82188660
:1032200019861A8682E190E064E070E0A8010E94AD
:103230003C14882309F024C181E08093EB0620C16F
:10324000D6011496ED91FC9115970190F081E02D37
:10325000A084B184A114B10409F495C0D5016D9086
:103260007C908280938000E010E060E070E040E0BD
:1032700050E021C0F501A281B381A40FB51F1296C1
:10328000ED91FC911397EE0FFF1FE80DF91D2081C2
:10329000318116968D919C911797DC012A9FC00170
:1032A0002B9F900D3A9F900D1124080F191F6F5FEF
:1032B0007F4F485F5F4F66157705E4F283E190E04A
:1032C000A0E0B0E08B8B9C8BAD8BBE8BC801AA2796
:1032D00097FDA095BA2F8F8B988FA98FBA8F809169
:1032E000EE069091EF0668E070E0AE014D5E5F4F34
:1032F0006E010894C11CD11C96010E94722C882377
:1033000009F0BEC089819A81089709F0B9C0EE24FE
:10331000FF2400E010E0260132C0F501A281B38154
:10332000A00FB11F1296ED91FC911397EE0FFF1FA6
:10333000E80DF91D2081318116968D919C9117978A
:10334000289F6001299FD00C389FD00C11244D91EB
:103350005C918091EE069091EF06B60192010E9479
:10336000722C882309F08CC0085F1F4F89819A81D5
:103370008C159D0509F084C00894E11CF11CE6142D
:10338000F7045CF27DC083E190E0A0E0B0E08B8BBD
:103390009C8BAD8BBE8B1F8A188E198E1A8E8091D6
:1033A000EE069091EF0668E070E0AE014D5E5F4F73
:1033B0009E012F5F3F4F0E94722C62C081E190E01E
:1033C00060E070E040E050E00E943C14882309F087
:1033D00057C060E070E080E090E00E94031B8091A5
:1033E000F706882339F060E070E080E090E0A70104
:1033F0000E94E61560E070E080E090E0A7010E9486
:10340000D12361E070E080E090E00E94031B809196
:10341000F706882339F061E070E080E090E0A701D2
:103420000E94E61561E070E080E090E0A7010E9454
:10343000D1231092ED061092EC068091EE06909149
:10344000EF060E94862B1CC081E090E09093F60668
:103450008093F50686E190E060E070E040E050E0A7
:10346000D7CE81E0D2018C930BC06F8578898EE135
:1034700090E0A7010E94311503C0C7010E94961574
:10348000A0960FB6F894DEBF0FBECDBFCF91DF91EF
:103490001F910F91FF90EF90DF90CF90BF90AF9072
:1034A0009F908F907F906F905F904F903F902F9064
:1034B00008950F931F938C0160E070E080E090E02E
:1034C000A8010E94E61561E070E080E090E0A801AC
:1034D0000E94E6151F910F9108958091EE0690913C
:1034E000EF060E94892B08950F931F93CF93DF93CC
:1034F000EC018B010E948C2B9093EF068093EE06DB
:10350000009719F4C9EAD2E007C0BE01A8010E94E1
:10351000142FEC01009751F08091EE069091EF0688
:103520000E948F2B1092EF061092EE06CE01DF91D3
:10353000CF911F910F9108950895089580E090E034
:1035400060E070E00E94741A08950E949016089539
:103550000E94CD1508950E94AD1308950E94A013F6
:1035600008950E947D130895CF93DF939C01EB0192
:103570008091C1039091C203049731F0C9010E9468
:103580000217CE010E94591ADF91CF910895EF9250
:10359000FF920F931F93CF93DF937C018B01EA017E
:1035A0000E946D1A882399F41BC060E070E080E0EF
:1035B00090E028ED38EB45E050E00E94B415C701DB
:1035C000B801AE010E940217C8010E94591A8091E9
:1035D000F5069091F606892B19F48881882329F342
:1035E0008091C1039091C203049731F083E090E091
:1035F0009093C2038093C103DF91CF911F910F91EC
:10360000FF90EF90089524E430E0629FF001639F03
:10361000F00D729FF00D1124E850F94F82899389C3
:103620000497029760F485E090E0938B828B8FEF94
:103630009FEFAFEFBFEF828F938FA48FB58F089569
:10364000CF93DF9324E430E0629FD001639FB00DFD
:10365000729FB00D1124A850B94F1092F7069D9695
:103660001C921E929C9760E070E020E030E0C1E088
:10367000D0E019C01A96ED91FC911B97E20FF31F51
:10368000828193811816190654F484819581978359
:1036900086839187808713861286D183C0836F5F6C
:1036A0007F4F225F3F4F6417750724F39B961C9250
:1036B0001E929A97D9961C921E92D897FD01FE965B
:1036C000108211821282138282E090E053969C93C2
:1036D0008E935297DF91CF91089524E430E0629F5A
:1036E000F001639FF00D729FF00D1124E850F94F27
:1036F0008289938981309105D8F08530910518F041
:103700000597B1F40DC08FEF9FEFAFEFBFEF828F42
:10371000938FA48FB58F85E090E0938B828B089573
:103720008FEF9FEFAFEFBFEF828F938FA48FB58F97
:10373000089524E430E0429FF001439FF00D529F32
:10374000F00D1124E850F94F9C01220F331FC901DD
:1037500043E0880F991F4A95E1F7821B930B02847F
:10376000F385E02DE80FF91F81E08093F70682854D
:10377000938591878087208531858681978140E078
:1037800050E02817390711F441E050E0518340839D
:103790000895EF92FF920F931F93CF93DF93DC0175
:1037A000EA01F9011496ED90FC90159712964D914F
:1037B0005C9113972881398118968D919C91199766
:1037C0008217930730F08D919C911197892B09F402
:1037D0003FC08701040F151FA801421B530B189609
:1037E0008D919C9119978E199F09840F951F8617AB
:1037F00097070CF443C0260F371F88819981201743
:10380000310728F471836083938382832EC05183B0
:10381000408393838283CB01841B950B95838483A0
:10382000181619061CF080E090E004C014968D91E3
:103830009C9115979783868314968D919C911597EB
:1038400024813581820F931F9983888380E017C07C
:1038500018968D919C911997821B930B8617970749
:103860006CF0718360833383228315821482178204
:10387000168288819981860F971FE6CF81E0DF91BC
:10388000CF911F910F91FF90EF900895EF92FF92CB
:103890000F931F93CF93DF937B018C01FA0184E494
:1038A00090E0E89EE001E99ED00DF89ED00D112435
:1038B000C850D94F8A899B89009709F449C001975C
:1038C000C1F48AA59BA52A8D3B8D4C8D5D8D0196FB
:1038D0009BA78AA70197AA2797FDA095BA2F8217C1
:1038E0009307A407B507A1F5C801B701AF010E946E
:1038F000201B8A899B89039759F58AA59BA52E8D44
:103900003F8D48A159A101969BA78AA70197AA2795
:1039100097FDA095BA2F82179307A407B507C4F0A7
:103920008EAD9FAD9BA78AA784E090E09B8B8A8B8E
:103930008AAD9BADACADBDAD181619061A061B06B7
:103940003CF4FE01EE5BFF4F81E090E091838083C9
:10395000DF91CF911F910F91FF90EF90089524E494
:1039600030E0629FF001639FF00D729FF00D112413
:10397000E850F94F828993890097C1F00497B1F418
:1039800082A593A5019693A782A7AA2797FDA09544
:10399000BA2F26893789408D518D82179307A40746
:1039A000B50721F485E090E0938B828B08952F92E8
:1039B0003F924F925F926F927F928F929F92AF92BF
:1039C000BF92CF92DF92EF92FF920F931F93DF93FC
:1039D000CF93CDB7DEB7CC54D0400FB6F894DEBF4E
:1039E0000FBECDBF27969FAF8EAF27974DA75EA77F
:1039F0006FA778AB2B960CAF1DAF2EAF3FAF2B97B9
:103A000084E490E029962EAD3FAD2997289F400190
:103A1000299F900C389F900C112448EF56E0840E9B
:103A2000951ED4011A960D90BC91A02D2596BFAF7E
:103A3000AEAF2597F40182899389029709F025C1D9
:103A400086A597A5A0A9B1A90097A105B10529F45C
:103A500084E090E0938B828B18C1D40154968D91B1
:103A60009C9155972796EEADFFAD2797E817F9077C
:103A700009F00BC1D6962D913C91D7973EAF2DAF53
:103A80001DAA1EAA1FAA18AE1CAA1BAACBC0D4012D
:103A9000D2964D905C90D397EBA9FCA94E0E5F1E79
:103AA000D20112960D90BC91A02DBCAFABAFB695D4
:103AB000A795B695A795BAAFA9AFF40180AD91AD22
:103AC000892B09F489C0E6A0F7A000A511A56DAC6B
:103AD0007EACD2012D903C9021961FAE1EAE219758
:103AE00071C0F40182A193A1892B61F1D101AD9044
:103AF000BD90CD90DC90C601B501A80197010E9450
:103B0000C53288235CF0F3016081718182819381E9
:103B1000A80197010E94DE3187FD98C0C601B5015A
:103B2000A80197010E94C532181664F4D3016D9163
:103B30007D918D919C91A80197010E94DE3188238F
:103B400009F484C0F40184A195A1892B61F1D1010C
:103B5000AD90BD90CD90DC90C601B501A801970154
:103B60000E94DE3188235CF4F301608171818281DF
:103B70009381A80197010E94C53287FF67C0C601E3
:103B8000B501A80197010E94DE31882361F4D301B9
:103B90006D917D918D919C91A80197010E94C532F4
:103BA00018160CF453C02196EEADFFAD2197319657
:103BB0002196FFAFEEAF219724E030E0620E731E36
:103BC000220E331E21964EAD5FAD219789AD9AAD81
:103BD000481759070CF485CFD2016C9111967C914E
:103BE0008DAD9EAD4BAD5CAD0E945102E9ADFAAD1D
:103BF000EE0FFF1FEE0FFF1F2DAD3EAD2E0F3F1F2F
:103C00003EAF2DAF8DA99EA9AFA9B8AD0196A11D5C
:103C1000B11D8DAB9EABAFABB8AFABA9BCA9149631
:103C2000BCABABABF40186A597A5A0A9B1A92DA902
:103C30003EA94FA958AD281739074A075B070CF46E
:103C400026CF81E090E091AF80AF1FC0F401868D58
:103C5000978DA0A1B1A10097A105B10549F484E019
:103C600090E0938B828B86AD97AD93A782A70DC012
:103C700083E090E0D40153969C938E93529781E019
:103C800090E09B969C938E939A97F40182899389F6
:103C90008230910571F482AD93ADA4ADB5AD181627
:103CA00019061A061B060CF02FC2A1E02A2E312C91
:103CB00005C0049709F028C22224332427968EAD2C
:103CC0009FAD2797880F991F7C01E3E0EE0CFF1C46
:103CD000EA95E1F7E81AF90A25962EAD3FAD25974A
:103CE000E20EF31ED70112966D917C911397611528
:103CF000710519F480E090E0FAC1F701868197819F
:103D00009A838983FE01799684E1DF011D928A9569
:103D1000E9F72B962CAD3DAD4EAD5FAD2B9729A7A6
:103D20003AA74BA75CA72114310409F446C0F4015B
:103D3000FE962081318142815381F40182AD93ADA1
:103D4000A4ADB5AD281739074A075B07B1F5D70110
:103D500014964D915C911597640F751F1896ED910F
:103D6000FC91199784819581A681B7819C018B83F1
:103D70009C83AD83BE83285F3F4FF701808591858B
:103D8000820F931F9187808780859185861B970B73
:103D900097FD04C0480F591F518740873C832B83F0
:103DA000F401FE9680819181A281B3810197A109DE
:103DB000B10980839183A283B383C70164E170E07A
:103DC0008E010F5F1F4FA8019E012F5E3F4F0E9483
:103DD000C91B90E0009709F08AC18D8D9E8DAF8D33
:103DE000B8A10C96A11DB11D8D8F9E8FAF8FB8A36A
:103DF000C70164E070E0A8019E01275F3F4F0E9469
:103E0000C91B282F30E03AAB29AB232B09F06DC139
:103E10008D8D9E8DAF8DB8A10496A11DB11D8D8F86
:103E20009E8FAF8FB8A38E01035D1F4F49855A85C2
:103E30008B859C85B8010E9451026F857889611538
:103E4000710551F029853A85200F311F4D855E851A
:103E5000CB01B9010E9451021D821E821F82188669
:103E600027964EAD5FAD2797440F551F23965FAF42
:103E70004EAF2397CE0105962D969FAF8EAF2D970F
:103E8000D4C0C901880F991F880F991FF401A0851C
:103E9000B185A80FB91FED91FC911197E081EE2338
:103EA00009F4B8C0E33009F4B5C01296ED91FC9165
:103EB000139723962EAD3FAD2397E20FF31F40805B
:103EC00051804114510409F4A5C089A19AA1ABA164
:103ED000BCA10196A11DB11D89A39AA3ABA3BCA34C
:103EE000C70164E070E0AE014F5F5F4F9E01275F46
:103EF0003F4F0E94C91B90E0009709F0F8C08D8DDC
:103F00009E8DAF8DB8A10496A11DB11D8D8F9E8F82
:103F1000AF8FB8A349855A858B859C852C966FAD4C
:103F20002C972D967FAD2D970E9451026F85788931
:103F30006115710571F029853A8545E050E04C0F17
:103F40005D1F240F351F4D855E85CB01B9010E9491
:103F50005102AA24BB2465016624772450C0D201F3
:103F600014960D911C911597060D171DF80162818D
:103F70007381C701AE014F5F5F4F9E01275F3F4FC7
:103F80000E94C91B90E0009709F0B1C0D8011296B9
:103F90002D913C911397442737FD4095542F8D8DDB
:103FA0009E8DAF8DB8A1820F931FA41FB51F8D8F5B
:103FB0009E8FAF8FB8A3F8016081718149855A85C2
:103FC0008B859C850E9451026F85788961157105EA
:103FD00069F0D8012D913C9189859A85280F391F68
:103FE0004D855E85CB01B9010E9451020894A11C48
:103FF000B11CC11CD11CE4E0F0E06E0E7F1EF2018A
:1040000080819181A281B381A816B906CA06DB0618
:104010000CF4A5CF8D819E81AF81B8850196A11D3D
:10402000B11D8D839E83AF83B8872D813E814F81E3
:104030005885F40184819581A681B78128173907B5
:104040004A075B070CF41DCF89A19AA1ABA1BCA1C3
:104050000097A105B10509F448C08AE190E0A0E00D
:10406000B0E0898F9A8FAB8FBC8F27962EAD3FAD76
:104070002797C901AA2797FDA095BA2F8DA39EA3C4
:10408000AFA3B8A78E01075E1F4F49895A898B8954
:104090009C89B8010E9451026F89788D6115710564
:1040A00051F029893A89200F311F4D895E89CB0152
:1040B000B9010E94510289819A81D70117969C9378
:1040C0008E93169711961C921E922328E9F0F40104
:1040D000FE9680819181A281B3810196A11DB11DBF
:1040E00080839183A283B3830FC089A99AA92328CF
:1040F00059F4892B49F081E090E0F40195A784A759
:1041000085E090E0938B828BC45BDF4F0FB6F89411
:10411000DEBF0FBECDBFCF91DF911F910F91FF90FA
:10412000EF90DF90CF90BF90AF909F908F907F9057
:104130006F905F904F903F902F9008952F923F92F5
:104140004F925F926F927F928F929F92AF92BF92A7
:10415000CF92DF92EF92FF920F931F93DF93CF9353
:10416000CDB7DEB768970FB6F894DEBF0FBECDBFF0
:10417000DC011496ED91FC9115970190F081E02DF2
:1041800080859185988F8F8BA281B381BE8BAD8BFB
:10419000FB0181919191A191B19189839A83AB8324
:1041A000BC8366247724430165C09E012B5F3F4F8B
:1041B000AF0180E1DA010D90AD01D9010D929D01B1
:1041C0008150C1F730E1432E512C4E0E5F1E8D8180
:1041D0009E8123E0880F991F2A95E1F7EF89F88DDA
:1041E000A281B381A80FB91F2D903C901197E98946
:1041F000FA89EE0FFF1F8D899E89E80FF91F019044
:10420000F081E02D14968D919C911597892B19F4CE
:1042100081E090E002C082E090E08E9F70018F9F6D
:10422000F00C9E9FF00C11240027F7FC0095102F36
:104230002D853E854F855889C801B7010E942C33D2
:104240005B016C0129853A854B855C85C801B70106
:104250000E942C339101260F371FC901B201A5011D
:104260000E945102F201EA0DFB1D0894611C711CB1
:10427000811C911C89819A81AB81BC816816790669
:104280008A069B060CF491CF68960FB6F894DEBFB1
:104290000FBECDBFCF91DF911F910F91FF90EF9097
:1042A000DF90CF90BF90AF909F908F907F906F9056
:1042B0005F904F903F902F900895CF93DF9324E429
:1042C00030E0629FE001639FD00D729FD00D1124FA
:1042D000C850D94F8AA99BA9009721F00E94F901E3
:1042E0001BAA1AAA8EA99FA9009721F00E94F90182
:1042F0001FAA1EAA1B8A1A8A1E8A1F8A188E198E46
:104300001A8E1B8E1C8E1D8E1E8E1F8E18A219A239
:1043100081E090E09BA38AA31DA21CA280E090E014
:10432000A0E0B0E08EA39FA3A8A7B9A71BA61AA6DA
:104330001DA61CA61EA61FA618AA19AA1BAA1AAA61
:104340001DAA1CAA1FAA1EAA19AE18AE1AAE1BAE31
:104350001CAE1DAEFE01FE961082118212821382E7
:10436000FE01EE5BFF4F11821082DF91CF91089525
:104370002F923F924F925F926F927F928F929F9275
:10438000AF92BF92CF92DF92EF92FF920F931F9363
:10439000DF93CF93CDB7DEB7AC970FB6F894DEBFFF
:1043A0000FBECDBF98A38F8F8B0129A33AA34BA338
:1043B0005CA3FB0181919191A191B191AF01BC01ED
:1043C00089839A83AB83BC8329A13AA184E490E0DA
:1043D000289FF001299FF00D389FF00D11249F01B7
:1043E0002850394F3EA32DA3D90155967C936E9347
:1043F00054979F01225F384FD80114964D905D90DD
:104400006D907C901797D9014D925D926D927C9240
:104410001397BA016C5F7F4F9F012E5E384FDA0110
:1044200014964D905D906D907C901797D9014D92A8
:104430005D926D927C921397AB014C5F5F4F9F0131
:104440002A5E384FDB0114964D905D906D907C9004
:104450001797D9014D925D926D927C921397EA5D08
:10446000F84FDA0114964D905D906D907C901797FF
:104470004082518262827382FA013896FE8FED8FFC
:104480000DA11EA1025D1F4FC201141415040CF0F2
:10449000C3C0880F991F880F991F0E944F019C016C
:1044A0008DA19EA1C296ADA1BEA1D3963C932E93A1
:1044B000D297232B09F427C12224332421011A8EF9
:1044C000198E18A70FA39AA789A7D496BCA7ABA744
:1044D00088C0E9A5FAA50190F081E02D298D3A8DDB
:1044E000E20FF31FFC8FEB8FDE011996ED8DFE8D31
:1044F00080E101900D928150E1F7AF8DB8A1149643
:10450000ED91FC91159720813181D9011696ED919D
:10451000FC91179789859A8553E0880F991F5A95C2
:10452000E1F7A281B381A80FB91F6D907C9011971C
:104530008D899E89880F991FF90122813381280F67
:10454000391FF9014081518114968D919C911597E5
:10455000892B19F481E090E002C082E090E02D8D7B
:104560003E8D205F3F4F3E8F2D8F849F7001859F32
:10457000F00C949FF00C11240027F7FC0095102FED
:1045800029893A894B895C89C801B7010E942C337B
:104590004B015C016B012D853E854F855889C80113
:1045A000B7010E942C33660E771EAB8DBC8D119621
:1045B0007C926E9213969C928E921297EBA5FCA51C
:1045C00080819181C80ED91ED182C0820894211C9D
:1045D000311C411C511C298D3A8D2C5F3F4F3A8F65
:1045E000298FEFA1F8A580819181A281B38128163E
:1045F00039064A065B060CF46CCFADA1BEA1D49679
:104600008D919C91D5970E944F01EDA1FEA197AB92
:1046100086AB009709F477C0AD8DBE8D2C911196B5
:104620003C91119712964C91129713965C912D83A1
:104630003E834F835887C901DA01AC01BD014115A2
:1046400051056105710539F0A0E0B0E04230510537
:104650006105710511F4A1E0B0E029A13AA184E45B
:1046600090E0289FF001299FF00D389FF00D112454
:10467000E850F94FB3A3A2A315A214A24150504091
:1046800060407040423051056105710520F481E0C1
:1046900090E095A384A384E490E0E9A1FAA1E89FC7
:1046A0009001E99F300DF89F300D1124A901425E61
:1046B000584FED8DFE8D84819581A681B781FA01D9
:1046C00080839183A283B383F901E850F94F268D4B
:1046D000378D40A151A157FF10C088279927DC01D1
:1046E000821B930BA40BB50B82AF93AFA4AFB5AFF6
:1046F000168E178E10A211A204C012AE13AE14AE05
:1047000015AE80E007C069A17AA18BA19CA10E948F
:104710005D2181E0AC960FB6F894DEBF0FBECDBF31
:10472000CF91DF911F910F91FF90EF90DF90CF908D
:10473000BF90AF909F908F907F906F905F904F90C1
:104740003F902F900895CF93DF939B01AC0184E4B9
:1047500090E0289FF001299FF00D389FF00D112463
:10476000E850F94FD901AD53BC4F8C91882331F0FB
:1047700084E4EF0119928A95E9F71C92148215825C
:10478000168217821186108613861286118A108A65
:1047900017861686CA01B9010E945D21DF91CF916B
:1047A00008952F923F924F925F926F927F928F92D5
:1047B0009F92AF92BF92CF92DF92EF92FF920F93B0
:1047C0001F93DF93CF9300D00F92CDB7DEB73B019D
:1047D0004C015A83498384E490E0689E7001699E8D
:1047E000F00C789EF00C112488EF96E0E80EF91E8C
:1047F000F70184819581A681B7810097A105B10554
:1048000009F486C0AA24BB2465014424552435C07C
:10481000E40DF51D32802380232D322DC9019C83A8
:104820008B8300E010E017C0AB81BC81ED91FC915F
:10483000309751F0848195810E94F901EB81FC81D0
:10484000808191810E94F9010F5F1F4F8B819C81B4
:1048500002969C838B83A981BA810A171B0724F3D4
:10486000832D922D0E94F9010894A11CB11CC11C3A
:10487000D11CE4E0F0E04E0E5F1ED70114962D919E
:104880003D914D915C9117971896ED91FC91199778
:10489000A216B306C406D5060CF4BACFCF010E9407
:1048A000F901F70182859385892BF1F000E010E092
:1048B000CC24DD240CC0EC0DFD1D848195810E946B
:1048C000F9010F5F1F4F8EE090E0C80ED91ED7018F
:1048D0001A96ED91FC911B9789819A810817190707
:1048E00054F3CF010E94F901D70150968D919C910C
:1048F00051970E94F901F701868597850E94F90179
:10490000C401B3010E945D21C401B3010E94A3232D
:104910000F900F900F900F90CF91DF911F910F91FB
:10492000FF90EF90DF90CF90BF90AF909F908F90CF
:104930007F906F905F904F903F902F90089524E468
:1049400030E0629FF001639FF00D729FF00D112423
:10495000E850F94F138A128A0E94D12308954F928A
:104960005F926F927F928F929F92AF92BF92CF92FF
:10497000DF92EF92FF920F931F93DF93CF9300D0BC
:104980000F92CDB7DEB75C0149835A836B837C837A
:10499000290184E490E0489F8001499F100D589FB1
:1049A000100D11240850194FF8018289938904973A
:1049B000029708F0B4C0F5011182108213821282AE
:1049C000F80115861486882499246624772460C00B
:1049D000F80142855385460D571DFA01808191816A
:1049E000892B09F04EC0C084D184E280F3806681B7
:1049F0007781F801848595859C01A3E0220F331F00
:104A0000AA95E1F7A089B189A20FB31F880F991F5A
:104A100026853785280F391FF90191828082F80198
:104A2000848595850196958784871396DC92CE922E
:104A30001297FA0173876287C616D70670F46C194D
:104A40007D0911967C936E9315961C921E92149775
:104A500017961C921E92169714C0FA0184819581B4
:104A6000E80EF91EEC18FD081196FC92EE92681BF8
:104A7000790B15967C936E93149717969C938E934F
:104A800016970894811C911C8EE090E0680E791EA8
:104A9000841495040CF49CCFF80184859585F50168
:104AA00091838083F80120893189F5013383228342
:104AB000F80126853785F50135832483892BB9F5DF
:104AC000F80182899389059791F51092F706828DF6
:104AD000938DA48DB58DAE014F5F5F4F8F5F9F4F5C
:104AE000AF4FBF4F71F480E290E064E070E00E944D
:104AF0003C1469817A818B819C81A2010E949F2450
:104B000016C08FE190E064E070E00E943C14F80170
:104B100013A612A681E090E0938B828B08C0F80167
:104B200015861486F50111821082138212820F906D
:104B30000F900F900F90CF91DF911F910F91FF90E9
:104B4000EF90DF90CF90BF90AF909F908F907F902D
:104B50006F905F904F9008952F923F924F925F9287
:104B60006F927F928F929F92AF92BF92CF92DF927D
:104B7000EF92FF920F931F93DF93CF93CDB7DEB7E2
:104B8000E6970FB6F894DEBF0FBECDBF98AB8FA7E8
:104B90007AAB69AB7A010BAB1CAB2DAB3EAB84E4BB
:104BA00090E04BA95CA9489F9001499F300D589F08
:104BB000300D11242850394F3AA729A78BA99CA959
:104BC000ADA9BEA9F90180839183A283B383BC01FF
:104BD000CD0149A95AA90E94D123D7012D913D9118
:104BE0004D915C91C901E9A5FAA5248335834683DB
:104BF000578364E070E00E943301A9A5BAA5199615
:104C00009C938E931897009709F04FC104C2E9A5B1
:104C1000FAA50084F185E02D298D3A8DE20FF31F6E
:104C2000FEA7EDA70BA51CA5F80181919191A1917B
:104C3000B1918F019C018D839E83AF83B887220F32
:104C4000331FAFA5B8A9ED91FC91E20FF31F80814E
:104C50009181EDA5FEA591838083EBA5FCA58481C0
:104C60009581A681B78189839A83AB83BC8389A907
:104C70009AA962E070E00E943301ADA5BEA513962B
:104C80009C938E931297009709F4C5C1F80134964E
:104C9000FCA7EBA71F8E18A219A21AA2F7C0EBA5BA
:104CA000FCA580819181A281B3819C018D839E832B
:104CB000AF83B887220F331FADA5BEA512960D9105
:104CC0001C911397020F131F81E090E068E070E0E1
:104CD0000E943301F801808391838D819E81880F2A
:104CE000991FADA5BEA51296ED91FC911397E80F03
:104CF000F91F608071806114710409F48CC10BA5E7
:104D00001CA50C5F1F4FEBA5FCA5248135814681B6
:104D10005781C901D3012D933D934D935C93139714
:104D200064E070E00E943301F3019583848300976F
:104D300009F471C198012C5F3F4F3CA72BA7222497
:104D4000332421011CA21BA28AC0D30114960D900A
:104D5000BC91A02DEBA1FCA1AE0FBF1FBEA3ADA3C4
:104D6000DE011996EBA5FCA580E101900D92815022
:104D7000E1F7AFA5B8A91496ED91FC9115972081A4
:104D80003181D9011696ED91FC91179789859A8505
:104D900053E0880F991F5A95E1F7A281B381A80FBC
:104DA000B91FED91FC911197F8A7EFA38D899E890A
:104DB000880F991FF90122813381280F391FF901CA
:104DC0004081518114968D919C911597892B19F4EE
:104DD00081E090E002C082E090E02BA53CA5205F3E
:104DE0003F4F3CA72BA7849F7001859FF00C949F99
:104DF000F00C11240027F7FC0095102F29893A891F
:104E00004B895C89C801B7010E942C335B016C019E
:104E10002D853E854F855889C801B7010E942C33E6
:104E20004FA158A5460F571FADA1BEA111965C9387
:104E30004E931396BC92AE921297F301868197819E
:104E40008A0D9B1D978386830894211C311C411C6D
:104E5000511C2BA13CA12C5F3F4F3CA32BA3F30182
:104E600080819181A281B381281639064A065B06AA
:104E70000CF46BCF2F8D38A149A15AA12F5F3F4F62
:104E80004F4F5F4F2F8F38A349A35AA389819A812F
:104E9000AB81BC812F8D38A149A15AA128173907B0
:104EA0004A075B070CF4FBCED8C0A7014C5F5F4FED
:104EB0005CA74BA71B8E1C8E1D8E1E8E1A8E198E04
:104EC000E9A5FAA584819581A681B7812B8D3C8DBA
:104ED0004D8D5E8D281739074A075B070CF497CE76
:104EE00089A99AA96EE070E00E943301A9A5BAA52C
:104EF0001A968C931A971B969C934424552422242B
:104F000033246624772401E0C02ED12C5BC0EBA5AE
:104F1000FCA580819181A281B3819C0189839A83C0
:104F2000AB83BC83A9A5BAA51A964D915C911B973A
:104F3000790137FD70C08A01060D171DF801D18275
:104F4000C0822115310559F0C9010E944F01D801D5
:104F500015969C938E931497009721F45CC0F801EA
:104F6000158214822BA53CA52C5F3F4F3CA72BA795
:104F7000D8011396FC92EE92129714968D919C9103
:104F8000159717969C938E93169719969C938E93CC
:104F900018971B961C921E921A9720E030E0898188
:104FA0009A81AB81BC810097A105B10511F021E088
:104FB00030E0420E531E0894211C311CEEE0F0E05C
:104FC0006E0E7F1E29A93AA9221633060CF49FCF34
:104FD000A9A5BAA51D961C921E921C97C20113E0AA
:104FE000880F991F1A95E1F70E944F01E9A5FAA5CC
:104FF000918B808B009779F0C201880F991F0E94D6
:105000004F01A9A5BAA51F969C938E931E97009752
:1050100011F080E009C06BA97CA98DA99EA949A9BE
:105020005AA90E94D12381E0E6960FB6F894DEBF1C
:105030000FBECDBFCF91DF911F910F91FF90EF90E9
:10504000DF90CF90BF90AF909F908F907F906F90A8
:105050005F904F903F902F9008952B8D3C8D4D8DFC
:105060005E8D2F5F3F4F4F4F5F4F2B8F3C8F4D8F8C
:105070005E8F498D5A8D4C5F5F4F5A8F498F20CF7D
:105080002F923F924F925F926F927F928F929F9258
:10509000AF92BF92CF92DF92EF92FF920F931F9346
:1050A000DF93CF93CDB7DEB72F970FB6F894DEBF5F
:1050B0000FBECDBF7C016B01DB0111968C91882363
:1050C00009F4E6C11A821B821C821D8219828EE7B6
:1050D000F7018083818383E085878687108A17861E
:1050E000128A118AD70153961D921D921D921C920D
:1050F000569757961C9237010894611C711C32E038
:10510000432E512C4E0C5F1C23E0822E912C8E0CD2
:105110009F1C9DE0A92EB12CAE0CBF1CFE013A963F
:10512000FF87EE8781E0282E312CC601BE016F5F1C
:105130007F4F21E030E040E050E08E010E5F1F4FD6
:105140000E94B52F882309F0A4C18A819B81AC817C
:10515000BD810197A105B10551F0D70150961C9270
:105160001E921F9752961C921E92519791C1F70161
:10517000878590890297039708F587899981882305
:1051800029F0178AF0E29F27998318C09D3729F0EC
:105190009E3741F0933091F408C0E1E0D701579673
:1051A000EC93C3CFD7019C932BC0D70152961C928E
:1051B0001E92519750961C921E921F97F701878559
:1051C00090898230910509F446C08330910534F40A
:1051D000009781F0019709F0A8CF27C0843091058E
:1051E00009F4D6C0843091050CF463C0059709F02A
:1051F0009CCF12C189818E3709F097CFD7018C934C
:1052000052967C926E92519753968D919D910D90EE
:10521000BC91A02D0196A11DB11DF701838B948B2C
:10522000A58BB68B308A278680CF89818E3709F08F
:105230002AC1D7015196ED91FC9152978083F701D5
:10524000138A148A158A168A82E090E0908B8787E9
:10525000528A418A6ACFF70183899489A589B689E0
:105260000097A105B10509F00EC189810188F28975
:10527000E02D8193D7015296FC93EE93519753966C
:105280008D919D910D90BC91A02D0196A11DB11DF8
:10529000F701838B948BA58BB68B0197A105B10584
:1052A00009F043CF83E090E0908B8787928A818AD0
:1052B000ABC0F70183899489A589B6890497A105B4
:1052C000B10508F0E0C089810188F289E02D819361
:1052D000D7015296FC93EE93519753968D919D91E1
:1052E0000D90BC91A02D0196A11DB11DF701838BDE
:1052F000948BA58BB68B0497A105B10509F015CF4A
:10530000D6012C911A861B861C861D86F40180818D
:105310009181A281B3818E839F83A887B98722233D
:1053200089F4DE011696FE013D968D9180833197BA
:105330008E859F85A817B907C1F78A859B85AC859F
:10534000BD8504C08E819F81A885B985F7018383BF
:105350009483A583B683138A148A158A168A0097C4
:10536000A105B10549F084E090E0908B87878781A3
:105370009085928B818BD9CEE5E0F0E0D7015096F5
:10538000FC93EE931F975296BC92AE925197CDCE5E
:10539000D70153962D913D914D915C91569713965F
:1053A0008D919D910D90BC91A02D281739074A072A
:1053B0005B0708F068C08981D7015196ED91FC9197
:1053C000529781935296FC93EE93519753968D91F9
:1053D0009D910D90BC91A02D0196A11DB11DF701CD
:1053E000838B948BA58BB68B238134814581568129
:1053F00082179307A407B50709F097CE85E090E0E0
:10540000908B8787B28AA18AD70153961D921D92ED
:105410001D921C92569789CEF70183899489A5899C
:10542000B6890297A105B10570F58981833059F5D8
:105430000188F289E02D8193D7015296FC93EE9377
:10544000519753968D919D910D90BC91A02D0196F1
:10545000A11DB11DF701838B948BA58BB68B029791
:10546000A105B10509F061CE86E090E0908B8787B9
:10547000128A118AD70153961D921D921D921C9279
:10548000569780E006C0F701128A118A108A1786A3
:1054900081E02F960FB6F894DEBF0FBECDBFCF913F
:1054A000DF911F910F91FF90EF90DF90CF90BF9011
:1054B000AF909F908F907F906F905F904F903F90B4
:1054C0002F9008956F927F928F929F92AF92BF928A
:1054D000CF92DF92EF92FF920F931F93DF93CF93C0
:1054E000CDB7DEB760970FB6F894DEBF0FBECDBF65
:1054F0006C015B01DB0111968C91882309F4D4C007
:105500008EE7F6018083818383E085878687108A12
:105510001786128A118AD60153961D921D921D92EA
:105520001C92569757961C92CB01B60122E030E0B0
:1055300040E050E00E945E30882309F0B5C0F601DB
:1055400082818E3729F0833019F08D3709F0C1C080
:105550008DE78987D60112968C9190E289278A87F8
:1055600022E030E040E050E0C501BE01675F7F4FC0
:105570000E945E30882309F097C0F5012081F60172
:1055800083819481A581B6818D839E83AF83B88703
:105590002223A9F4FE013896DE0111969E012C5FAC
:1055A0003F4F80818D933197E217F307D1F78981BF
:1055B0009A81AB81BC818D839E83AF83B887BE0106
:1055C0006B5F7F4FDE01199624E030E040E050E051
:1055D000EDE7FE2E90E28E01085F1F4FFB018081F8
:1055E0008E3729F0833019F08D3709F078C0FD012E
:1055F000F192892711968C93DF0111962F5F3F4F0F
:105600004F4F5F4F6017710719F06F5F7F4FE6CF05
:1056100069E0862E912C8C0E9D1EC501B4010E945E
:105620005E30882309F040C0EE24FF2487015DE747
:10563000652E40E2742E22C0D6011796ED91FC91A2
:105640001897EE0DFF1D80818E3729F0833019F0F9
:105650008D3709F046C06986808187258A8722E0D8
:1056600030E040E050E0C501B4010E945E30882384
:10567000D9F40894E11CF11C011D111DF601838170
:105680009481A581B681E816F9060A071B07A0F2E6
:105690008DE090E0C80ED91EC501B60122E030E0D1
:1056A00040E050E00E945E3060960FB6F894DEBF96
:1056B0000FBECDBFCF91DF911F910F91FF90EF9063
:1056C000DF90CF90BF90AF909F908F907F906F9022
:1056D0000895898721E030E040E050E045CF8D9388
:1056E00091CF898721E030E040E050E0BCCF80E0FE
:1056F0000895FB0120E0DC0111968D919C91129799
:10570000892B09F021E0208380E008951092800722
:105710000895FC018081089589E897E0089508952F
:1057200008950F931F938C01FC01818192810E9447
:105730007130F801128211821F910F910895CF9359
:10574000DF93C0E0D0E081E090E06AE470E00E9486
:105750003301FC01009711F481E01DC0A091830783
:10576000B09184078091810790918207892BB1F4D1
:105770001097A1F4F0938407E0938307F0938207D6
:10578000E0938107E85BFF4F118210822196C530BC
:10579000D105C9F680E0DF91CF910895A85BBF4F96
:1057A000ED93FC93F0938407E0938307EBCF4F9244
:1057B0005F926F927F928F929F92AF92BF92CF92A1
:1057C000DF92EF92FF920F931F93DF93CF9300D05E
:1057D000CDB7DEB76C01562E472EF90158017A017C
:1057E0004331510518F092E1E92EF12CF182E0826B
:1057F00000E010E03E010894611C711C82E0882EDC
:10580000912C8C0E9D1E35C01982C601B3010E94D9
:105810001C30882309F052C08981882331F0C601E9
:105820000E94C72C882309F049C02091830730913A
:1058300084078091810790918207892BC1F4232BE3
:10584000B1F4083C11051CF40F5F1F4F12C00E94F9
:105850009F2B882399F5C60160E070E040E050E09E
:10586000940102E010E00E94D72B882339F500E074
:1058700010E080918007882321F082E0A816B1040F
:1058800019F6C701AA2797FDA095BA2F8093A707FD
:105890009093A807A093A907B093AA07A092A60780
:1058A0008091AB079091AC07652D742DA7010E94E4
:1058B000510284EA97E0B6010E94622A0F900F908D
:1058C0000F90CF91DF911F910F91FF90EF90DF909C
:1058D000CF90BF90AF909F908F907F906F905F9090
:1058E0004F9008953F924F925F926F927F928F9266
:1058F0009F92AF92BF92CF92DF92EF92FF920F935F
:105900001F93DF93CF930F920F92CDB7DEB76B014A
:105910004A013901FC01A180B2801A821982EE2469
:10592000FF242E010894411C511C3324339414C0CD
:10593000B4016E0D7F1DA6014E195F09C5019201CC
:1059400001E010E00E94D72B882369F489819A81B5
:10595000E80EF91E30928007EC14FD044CF3F301BD
:10596000D182C08280E00F900F90CF91DF911F9184
:105970000F91FF90EF90DF90CF90BF90AF909F90EE
:105980008F907F906F905F904F903F900895AF926F
:10599000BF92DF92EF92FF920F931F93DF93CF930B
:1059A0000F920F92CDB7DEB75C018CE897E0B5019E
:1059B0000E944028D82E882309F066C080918E0767
:1059C000823019F4109280075FC060919307709144
:1059D0009407E0908F07F090900700918107109155
:1059E000820780918307909184070115110509F0C2
:1059F00058C0892B09F055C00BC010928407109233
:105A00008307085B1F4FF801118210820854104071
:105A1000C801A7010E945102005C1F4FC701AA27BD
:105A200097FDA095BA2FF80181939193A193B1931B
:105A30008F01108211821282138204541040E0916F
:105A40008707F09188078091850790918607892BB9
:105A5000B9F53097A9F5109388070093870710933D
:105A6000860700938507085B1F4FF801118210829B
:105A7000209183073091840780918107909182075C
:105A8000892B39F5232B29F58D2D0F900F90CF9170
:105A9000DF911F910F91FF90EF90DF90BF90AF903B
:105AA0000895085B1F4FF8018081918108541040D0
:105AB0009093820780938107892B09F0A2CF9DCF15
:105AC000E85BFF4F118300831093880700938707DB
:105AD000CACFC50160E070E040E050E09E012F5F5A
