:100000000C941C010C9405080C9436080C94670899
:100010000C9498080C94C9080C94FA080C942B09B9
:100020000C945C090C9449010C9449010C9449010D
:100030000C9449010C9449010C9449010C94490118
:100040000C9449010C9449010C9449010C94490108
:100050000C9449010C9449010C9449010C948D09AC
:100060000C9449010C9482020C947E030C94490177
:100070000C9449010C9449010C9449010C944901D8
:100080000C9449010C9449010C9449010C944901C8
:100090000C94C1020C94BD030C9449010C94F80F0C
:1000A0000C9449010C9449010C9449010C944901A8
:1000B0000C9449010C9449010C9449010C94490198
:1000C0000C9449010C9449010C949A0E0C94000371
:1000D0000C94FC030C9449010C943F030C943B04D6
:1000E0000C944901084AD73B3BCE016E84BCBFFD4E
:1000F000C12F3D6C74319ABD56833DDA3D00C77FF8
:1001000011BED9E4BB4C3E916BAAAABE0000008090
:100110003F00002100240027002A002D003000337A
:100120000001010000040107010A0100002200256E
:100130000028002B002E00310034000201000005D1
:100140000108010B01000020002300260029002CDB
:10015000002F003200000100000301060109010523
:10016000050505070508080808020202020A0A0830
:100170000804040404010101010101010103030356
:100180000303030303040707070C0C0C0C0C0C0CF3
:100190000C0202020206060606060606060B0B0BFA
:1001A0000B0B0B0B0B010210202008081020401035
:1001B000204080020102010804020101020408102B
:1001C0002040808040201008040201800402018049
:1001D0004020100804020108040201010204081072
:1001E00020408001020408102040800000090A021B
:1001F000080B0C0D070603040100000000000000BE
:1002000000000000000000000000000000000000EE
:100210000000000000000011100F000000000000AE
:1002200000000000000000000000000000000000CE
:100230000000AB05E1069C1211241FBECFEFD1E2F6
:10024000DEBFCDBF00E00CBF13E0A0E0B2E0EEEDFA
:10025000FCE600E00BBF02C007900D92A039B10789
:10026000D9F71BBE18E0A0E9B3E001C01D92AE377C
:10027000B107E1F712E0C8E3D2E004C02297FE0123
:100280000E946936C233D107C9F70E94D10D0C9480
:100290006D360C9400000F931F93CF93DF93689FEC
:1002A0008001699F100D789F100D1124C8010E94D4
:1002B0006701EC01009729F060E070E0A8010E945E
:1002C0007202CE01DF91CF911F910F910895CF93CC
:1002D000DF93BC018230910510F462E070E0A091E0
:1002E0007C08B0917D08ED01E0E0F0E040E050E0F6
:1002F00021C0888199818617970769F48A819B813B
:10030000309719F09383828304C090937D08809383
:100310007C08FE0134C06817790738F4411551058F
:1003200019F08417950708F4AC01FE018A819B81BE
:100330009C01E9012097E9F641155105A9F1CA018F
:10034000861B970B049708F4BA01E0E0F0E02AC09E
:100350008D919C91119784179507F9F4641775078F
:1003600081F412968D919C911397309719F0938395
:10037000828304C090937D0880937C08FD013296AF
:100380004CC0CA01861B970BFD01E80FF91F619352
:10039000719302978D939C9340C0FD01828193815C
:1003A0009C01D9011097A1F680917A0890917B0861
:1003B000892B41F48091FF029091000390937B0878
:1003C00080937A0840910103509102034115510531
:1003D00041F44DB75EB78091FD029091FE02481B3B
:1003E000590B20917A0830917B08CA01821B930B2C
:1003F0008617970780F0AB014E5F5F4F8417950714
:1004000050F0420F531F50937B0840937A08F90134
:100410006193719302C0E0E0F0E0CF01DF91CF91F2
:100420000895CF93DF93009709F450C0EC01229711
:100430001B821A82A0917C08B0917D08109709F167
:1004400040E050E0AC17BD0708F1BB83AA83FE0172
:1004500021913191E20FF31FAE17BF0779F48D910F
:100460009C911197280F391F2E5F3F4F39832883A6
:1004700012968D919C9113979B838A834115510508
:1004800071F4D0937D08C0937C0820C012968D91A2
:100490009C911397AD01009711F0DC01D3CFFA01C5
:1004A000D383C28321913191E20FF31FCE17DF076F
:1004B00069F488819981280F391F2E5F3F4FFA0117
:1004C000318320838A819B8193838283DF91CF91C3
:1004D0000895FB01DC0102C001900D924150504093
:1004E000D8F70895DC0101C06D9341505040E0F70A
:1004F0000895FB01DC018D91019080190110D9F361
:10050000990B08951F920F920FB60F920BB60F9290
:1005100011242F933F934F938F939F93EF93FF93C8
:100520008091C00082FD1DC04091C6002091D00383
:100530003091D1032F5F3F4F2F7330708091D203E2
:100540009091D3032817390771F0E091D003F0910F
:10055000D103E057FC4F40833093D1032093D00365
:1005600002C08091C600FF91EF919F918F914F91B2
:100570003F912F910F900BBE0F900FBE0F901F90C9
:1005800018951F920F920FB60F920BB60F9211246F
:100590002F933F934F938F939F93EF93FF9380916C
:1005A000C80082FD1DC04091CE00209158043091BA
:1005B00059042F5F3F4F2F73307080915A049091F0
:1005C0005B042817390771F0E0915804F091590441
:1005D000E85EFB4F4083309359042093580402C0D7
:1005E0008091CE00FF91EF919F918F914F913F911C
:1005F0002F910F900BBE0F900FBE0F901F9018956C
:100600001F920F920FB60F920BB60F9211242F93D9
:100610003F934F938F939F93EF93FF938091D000DD
:1006200082FD1DC04091D6002091E0043091E1048C
:100630002F5F3F4F2F7330708091E2049091E3045D
:100640002817390771F0E091E004F091E104E056D9
:10065000FB4F40833093E1042093E00402C080917B
:10066000D600FF91EF919F918F914F913F912F91E4
:100670000F900BBE0F900FBE0F901F9018951F92FA
:100680000F920FB60F920BB60F9211242F933F9338
:100690004F938F939F93EF93FF938091300182FD4F
:1006A0001DC04091360120916805309169052F5F8A
:1006B0003F4F2F73307080916A0590916B0528171A
:1006C000390771F0E0916805F0916905E85DFA4F2E
:1006D0004083309369052093680502C080913601FC
:1006E000FF91EF919F918F914F913F912F910F909B
:1006F0000BBE0F900FBE0F901F9018951F920F9278
:100700000FB60F920BB60F9211242F933F938F9336
:100710009F93EF93FF9320911404309115048091DF
:100720001604909117042817390731F48091C100FD
:100730008F7D8093C10014C0E0911604F0911704DE
:10074000EC52FC4F20818091160490911704019681
:100750008F73907090931704809316042093C600B3
:10076000FF91EF919F918F913F912F910F900BBE31
:100770000F900FBE0F901F9018951F920F920FB6FB
:100780000F920BB60F9211242F933F938F939F9349
:10079000EF93FF9320919C0430919D0480919E04DF
:1007A00090919F042817390731F48091C9008F7DFB
:1007B0008093C90014C0E0919E04F0919F04E45A14
:1007C000FB4F208180919E0490919F0401968F732E
:1007D000907090939F0480939E042093CE00FF918D
:1007E000EF919F918F913F912F910F900BBE0F90A2
:1007F0000FBE0F901F9018951F920F920FB60F9279
:100800000BB60F9211242F933F938F939F93EF93E7
:10081000FF93209124053091250580912605909124
:1008200027052817390731F48091D1008F7D8093F7
:10083000D10014C0E0912605F0912705EC51FB4F43
:100840002081809126059091270501968F739070E5
:1008500090932705809326052093D600FF91EF9172
:100860009F918F913F912F910F900BBE0F900FBED4
:100870000F901F9018951F920F920FB60F920BB604
:100880000F9211242F933F938F939F93EF93FF9396
:100890002091AC053091AD058091AE059091AF05EA
:1008A0002817390731F4809131018F7D8093310110
:1008B00014C0E091AE05F091AF05E459FA4F2081E4
:1008C0008091AE059091AF0501968F7390709093D3
:1008D000AF058093AE0520933601FF91EF919F9174
:1008E0008F913F912F910F900BBE0F900FBE0F90E5
:1008F0001F901895AF92BF92DF92EF92FF920F93E5
:100900001F93CF93DF93EC017A018B01DD244030FC
:1009100081EE580780E0680780E0780711F0DD2459
:10092000D39491E0A92EB12CEC89FD89DD2069F0EA
:10093000C50108A002C0880F991F0A94E2F78083BE
:1009400060E079E08DE390E005C0108260E874E833
:100950008EE190E0A80197010E9445362150304079
:1009600040405040569547953795279580E1203077
:10097000380720F0DD2011F0DD24D6CFE889F98991
:100980003083EA89FB89208319A2EE89FF8940819F
:1009900021E030E0C9010C8C02C0880F991F0A9435
:1009A000E2F7482B4083EE89FF894081C9010D8C15
:1009B00002C0880F991F0A94E2F7482B4083EE8902
:1009C000FF894081C9010E8C02C0880F991F0A94CB
:1009D000E2F7482B4083EE89FF8980810F8C02C0AB
:1009E000220F331F0A94E2F7209528232083DF91FA
:1009F000CF911F910F91FF90EF90DF90BF90AF903C
:100A00000895DC011C96ED91FC911D97E05CFF4F71
:100A10002191319180819181281B390B2F73307086
:100A2000C9010895DC011C96ED91FC911D97E05CD5
:100A3000FF4F20813181E054F040DF01AE5BBF4FBA
:100A40008D919C9111972817390719F42FEF3FEFDB
:100A500007C08D919C91E80FF91F8081282F30E00D
:100A6000C9010895DC011C96ED91FC911D97E05C95
:100A7000FF4F20813181E054F040DF01AE5BBF4F7A
:100A80008D919C9111972817390719F42FEF3FEF9B
:100A900010C08D919C911197E80FF91F20818D91C5
:100AA0009C91119701968F73907011969C938E93E1
:100AB00030E0C9010895DC0191968C9191978823CB
:100AC00039F05496ED91FC915597808186FFF9CFCE
:100AD00091961C920895CF93DF93EC01EE85FF85EC
:100AE000E05CFF4F20813181E054F0402F5F3F4FA9
:100AF0002F733070DF01AE5BBF4F8D919C911197CA
:100B000028173907D1F3E05CFF4F80819181E054D1
:100B1000F040E80FF91F6083EE85FF85E05CFF4F32
:100B200031832083EE89FF89208181E090E00F8C62
:100B300002C0880F991F0A94E2F7282B208381E0D6
:100B400089A3EC89FD8980818064808381E090E0C5
:100B5000DF91CF9108951F931092B3051092B205C3
:100B600028EE33E040E050E02093B4053093B50523
:100B70004093B6055093B7056BE673E07093B105EB
:100B80006093B00580E993E09093BD058093BC0528
:100B900084ED93E09093BF058093BE0585EC90E0D3
:100BA0009093C1058093C00584EC90E09093C305B9
:100BB0008093C20580EC90E09093C5058093C405B6
:100BC00081EC90E09093C7058093C60582EC90E09D
:100BD0009093C9058093C80586EC90E09093CB056F
:100BE0008093CA0514E01093CC05B3E0B093CD0513
:100BF000A7E0A093CE05F5E0F093CF05E1E0E09308
:100C0000D0051092D5051092D4052093D6053093C7
:100C1000D7054093D8055093D9057093D3056093B9
:100C2000D20588E194E09093DF058093DE058CE5A2
:100C300094E09093E1058093E0058DEC90E0909333
:100C4000E3058093E2058CEC90E09093E5058093BA
:100C5000E40588EC90E09093E7058093E60589EC45
:100C600090E09093E9058093E8058AEC90E09093FA
:100C7000EB058093EA058EEC90E09093ED05809370
:100C8000EC051093EE05B093EF05A093F005F093FB
:100C9000F105E093F2051092F7051092F605209306
:100CA000F8053093F9054093FA055093FB057093CE
:100CB000F5056093F40580EA94E090930106809333
:100CC000000684EE94E0909303068093020685ED7F
:100CD00090E0909305068093040684ED90E0909355
:100CE00007068093060680ED90E0909309068093B6
:100CF000080681ED90E090930B0680930A0682ED42
:100D000090E090930D0680930C0686ED90E0909312
:100D10000F0680930E0610931006B0931106A09351
:100D20001206F0931306E09314061092190610921F
:100D3000180620931A0630931B0640931C06509306
:100D40001D06709317066093160688E295E090934F
:100D50002306809322068CE695E0909325068093E7
:100D6000240685E391E0909327068093260684E38A
:100D700091E0909329068093280680E391E0909378
:100D80002B0680932A0681E391E090932D068093B1
:100D90002C0682E391E090932F0680932E0686E343
:100DA00091E0909331068093300610933206B09311
:100DB0003306A0933406F0933506E09336061F9170
:100DC00008958BE793E0909339068093380610924C
:100DD0003A0610923B0610923C0610923D0608958A
:100DE0008F929F92AF92BF92CF92DF92EF92FF923B
:100DF0000F931F93CF93DF934C016B017C01AA24C7
:100E0000BB24C0E0D0E0C601F70162814AE050E0B7
:100E10000E94F3078C01C6016EE20E945C07080F76
:100E2000191FA00EB11E21960894E11CF11CC330BD
:100E3000D10549F7C601F40165814AE050E00E94FE
:100E4000F3079501280F391FC901DF91CF911F9139
:100E50000F91FF90EF90DF90CF90BF90AF909F9059
:100E60008F900895CF92DF92EF92FF920F931F938E
:100E7000CF93DF937C016B018A01C0E0D0E00FC00B
:100E8000D6016D916D01D701ED91FC910190F0813A
:100E9000E02DC7011995C80FD91F01501040011549
:100EA000110571F7CE01DF91CF911F910F91FF9046
:100EB000EF90DF90CF900895DC01ED91FC910190CF
:100EC000F081E02D19950895CF93DF93EC01611522
:100ED000710519F420E030E00FC0DB010D90002017
:100EE000E9F71197A61BB70BE881F9810280F3811E
:100EF000E02DAD0119959C01C901DF91CF910895B5
:100F00004F925F927F928F929F92AF92BF92CF92B9
:100F1000DF92EF92FF920F931F93DF93CF93CDB7A2
:100F2000DEB7A1970FB6F894DEBF0FBECDBF2C0180
:100F3000742ECB01223008F42AE019A231E2C32E2C
:100F4000D12CCC0EDD1E822E9924AA24BB24672D21
:100F5000752FA50194010E94453679018A01C801C7
:100F6000B701A50194010E942636472D461B08941F
:100F7000C108D1084A3014F4405D01C0495CF60153
:100F80004083E114F1040105110521F07E2C5F2D51
:100F9000C801DDCFC201B6010E946407A1960FB659
:100FA000F894DEBF0FBECDBFCF91DF911F910F919F
:100FB000FF90EF90DF90CF90BF90AF909F908F9079
:100FC0007F905F904F900895DC012115310541F429
:100FD000ED91FC910190F081E02D642F1995089519
:100FE0000E9480070895EF92FF920F931F939A013A
:100FF000E62EFF2400E010E0B801A7010E94E407FC
:101000001F910F91FF90EF9008951F920F920FB6CE
:101010000F920BB60F9211242F933F934F935F9330
:101020006F937F938F939F93AF93BF93EF93FF93B0
:101030008091420690914306892B29F0E091420667
:10104000F09143061995FF91EF91BF91AF919F9158
:101050008F917F916F915F914F913F912F910F9061
:101060000BBE0F900FBE0F901F9018951F920F92FE
:101070000FB60F920BB60F9211242F933F934F93FD
:101080005F936F937F938F939F93AF93BF93EF93F0
:10109000FF938091440690914506892B29F0E091B9
:1010A0004406F09145061995FF91EF91BF91AF91DC
:1010B0009F918F917F916F915F914F913F912F9170
:1010C0000F900BBE0F900FBE0F901F9018951F92A0
:1010D0000F920FB60F920BB60F9211242F933F93DE
:1010E0004F935F936F937F938F939F93AF93BF9330
:1010F000EF93FF938091460690914706892B29F044
:10110000E0914606F09147061995FF91EF91BF9146
:10111000AF919F918F917F916F915F914F913F918F
:101120002F910F900BBE0F900FBE0F901F90189530
:101130001F920F920FB60F920BB60F9211242F939E
:101140003F934F935F936F937F938F939F93AF934F
:10115000BF93EF93FF938091480690914906892BA6
:1011600029F0E0914806F09149061995FF91EF9119
:10117000BF91AF919F918F917F916F915F914F91AF
:101180003F912F910F900BBE0F900FBE0F901F90AD
:1011900018951F920F920FB60F920BB60F92112453
:1011A0002F933F934F935F936F937F938F939F936F
:1011B000AF93BF93EF93FF9380913E0690913F06CC
:1011C000892B29F0E0913E06F0913F061995FF9199
:1011D000EF91BF91AF919F918F917F916F915F91AF
:1011E0004F913F912F910F900BBE0F900FBE0F901C
:1011F0001F9018951F920F920FB60F920BB60F9279
:1012000011242F933F934F935F936F937F938F930B
:101210009F93AF93BF93EF93FF938091400690917C
:101220004106892B29F0E0914006F091410619957D
:10123000FF91EF91BF91AF919F918F917F916F91AE
:101240005F914F913F912F910F900BBE0F900FBE6A
:101250000F901F9018951F920F920FB60F920BB61A
:101260000F9211242F933F934F935F936F937F932C
:101270008F939F93AF93BF93EF93FF9380914A0611
:1012800090914B06892B29F0E0914A06F0914B068C
:101290001995FF91EF91BF91AF919F918F917F91A0
:1012A0006F915F914F913F912F910F900BBE0F90D7
:1012B0000FBE0F901F9018951F920F920FB60F92AE
:1012C0000BB60F9211242F933F934F935F936F931D
:1012D0007F938F939F93AF93BF93EF93FF938091EF
:1012E0004C0690914D06892B29F0E0914C06F09127
:1012F0004D061995FF91EF91BF91AF919F918F91FD
:101300007F916F915F914F913F912F910F900BBE05
:101310000F900FBE0F901F9018951F920F920FB64F
:101320000F9211242F933F938F939F93AF93BF936B
:101330008091520690915306A0915406B0915506A3
:10134000309156060196A11DB11D232F2D5F2D371B
:1013500020F02D570196A11DB11D209356068093B4
:10136000520690935306A0935406B093550680916D
:101370004E0690914F06A0915006B09151060196ED
:10138000A11DB11D80934E0690934F06A093500669
:10139000B0935106BF91AF919F918F913F912F9143
:1013A0000F900FBE0F901F9018958FB7F894209153
:1013B00052063091530640915406509155068FBF06
:1013C000B901CA0108959B01AC017FB7F8948091DF
:1013D0004E0690914F06A0915006B091510666B509
:1013E000A89B05C06F3F19F00196A11DB11D7FBFDD
:1013F000BA2FA92F982F8827860F911DA11DB11DE7
:1014000062E0880F991FAA1FBB1F6A95D1F7BC0124
:101410002DC0FFB7F89480914E0690914F06A09191
:101420005006B0915106E6B5A89B05C0EF3F19F0F4
:101430000196A11DB11DFFBFBA2FA92F982F882794
:101440008E0F911DA11DB11DE2E0880F991FAA1FEB
:10145000BB1FEA95D1F7861B970B885E9340C8F2B5
:10146000215030404040504068517C4F211531059B
:101470004105510571F60895789484B5826084BD64
:1014800084B5816084BD85B5826085BD85B5816088
:1014900085BDEEE6F0E0808181608083E1E8F0E0E8
:1014A0001082808182608083808181608083E0E817
:1014B000F0E0808181608083E1EBF0E080818460F6
:1014C0008083E0EBF0E0808181608083E1E9F0E0FF
:1014D000808182608083808181608083E0E9F0E0A8
:1014E000808181608083E1EAF0E080818260808396
:1014F000808181608083E0EAF0E080818160808388
:10150000E1E2F1E08081826080838081816080837C
:10151000E0E2F1E0808181608083EAE7F0E08081B1
:101520008460808380818260808380818160808309
:101530008081806880831092C1000895893009F409
:1015400049C08A30A0F4843051F1853040F48230B3
:1015500079F1833000F5813009F063C026C087300F
:1015600079F1883098F5863009F05BC025C08D3060
:1015700009F442C08E3028F48B30B1F18C30C0F5C4
:101580002DC0803109F442C0813109F445C08F304B
:1015900009F047C037C0809180008F7703C08091E9
:1015A00080008F7D80938000089584B58F7702C07E
:1015B00084B58F7D84BD08958091B0008F7703C07E
:1015C0008091B0008F7D8093B0000895809190004D
:1015D0008F7707C0809190008F7D03C0809190002D
:1015E000877F8093900008958091A0008F7707C037
:1015F0008091A0008F7D03C08091A000877F8093A1
:10160000A0000895809120018F7703C08091200170
:101610008F7D80932001089580912001877F8093A2
:1016200020010895FF920F931F93F62E482F50E04C
:10163000CA0185519E4FFC012491CA018B559E4FD2
:10164000FC011491415A5E4FFA0104910023C9F044
:10165000222319F0822F0E949E0AE02FF0E0EE0F65
:10166000FF1FE55DFE4FA591B4919FB7F894FF2051
:1016700021F48C911095812302C08C91812B8C9345
:101680009FBF1F910F91FF90089580E090E0089513
:10169000EF92FF920F931F93CF93DF93162F072F95
:1016A0007A01E9011982188280EB95E00E94010518
:1016B000892BD1F0812F902F9C01890110C080EBE4
:1016C00095E00E9432052FEF8F3F920741F0F8011D
:1016D00081938F018881998101969983888388817C
:1016E00099818E159F0558F380E090E0DF91CF91AE
:1016F0001F910F91FF90EF900895EF92FF920F933B
:101700001F938A01790180EB95E00E943207F7016F
:101710001183008380E090E01F910F91FF90EF9084
:1017200008950E943C0A80EB95E040E052EC61E0B5
:1017300070E00E947A0404C080EB95E00E943205BC
:1017400080EB95E00E940105892BB1F780E090E0E5
:101750000895089584E090E00E941C0FEBE3F8E008
:1017600087E2DF011D928A95E9F780E090E0A0E230
:10177000B1E480935D0890935E08A0935F08B093F6
:1017800060088DEC9CECACE4BEE380935908909328
:101790005A08A0935B08B0935C0889E592EDA0EC31
:1017A000B4E680933F0890934008A0934108B0931B
:1017B000420888EB97E0A8E5B5E88093430890934A
:1017C0004408A0934508B093460882ED95E7A4E746
:1017D000B9E88093470890934808A0934908B093CC
:1017E0004A0883E499E7A3EAB0E480934B08909316
:1017F0004C08A0934D08B0934E088BE696E090936A
:101800003E0880933D0889E696E090936C068093AD
:101810006B068FE793E090936A068093690674964F
:10182000F0937006E0936F067097F0936E06E09366
:101830006D067296F0937206E093710680E1EFE117
:10184000F8E0DF011D928A95E9F78CE0EFE2F8E01D
:10185000DF011D928A95E9F7E7E5F6E082E1DF0115
:101860001D928A95E9F7F0935008E0934F088EE0B7
:1018700090E0909358068093570683E093E090930E
:101880005A06809359068FE193E090935C0680930B
:101890005B068BE393E090935E0680935D0680E0A9
:1018A00090E0A0E0B0E080932F0890933008A093E0
:1018B0003108B09332080895AF92BF92CF92DF9271
:1018C000EF92FF920F931F9383E298E065E278E036
:1018D00047E258E029E238E00BE218E0FDE2EF2EA3
:1018E000F8E0FF2EEFE2CE2EE8E0DE2E0E94891512
:1018F000A0905D08B0905E08C0905F08D09060082E
:10190000C601B50120E030E040E85FEB0E94723490
:10191000882331F1E0905108F0905208009153086B
:1019200010915408C601B501A80197010E94AB337C
:101930005B016C01C801B70120E030E040E054E3F6
:101940000E94C0359B01AC01C601B5010E94B535AE
:10195000181634F080E092E090933C0880933B08A6
:1019600080916108882331F080E092E090933C08F8
:1019700080933B08609155087091560880915708F4
:10198000909158086F5F7F4F8F4F9F4F609355081E
:101990007093560880935708909358080E94DE343D
:1019A0002091590830915A0840915B0850915C0889
:1019B0000E94C03560935108709352088093530879
:1019C000909354081F910F91FF90EF90DF90CF906C
:1019D000BF90AF900895AF92BF92CF92DF92EF92F7
:1019E000FF920F931F93CF93DF937B018C015901DB
:1019F0006A010E94110F882331F4C601B5010E94CB
:101A0000110F882349F060916E0870916F088091E2
:101A100070089091710872C0C801B7010E94E60E6B
:101A20008823C9F1C601B5010E94E60E882399F109
:101A3000C801B70120E030E040E050E00E94B53539
:101A400018161CF00FEF1FEF02C001E010E0C601F6
:101A5000B50120E030E040E050E00E94B5351816B6
:101A60001CF0CFEFDFEF02C0C1E0D0E0B801882763
:101A700077FD8095982F0E94E0347B018C01BE0198
:101A8000882777FD8095982F0E94E0349B01AC0158
:101A9000C801B70131C0C601B50120E030E040E027
:101AA00050E00E947234882319F5C801B70120E084
:101AB00030E040E050E00E94B53518162CF46BED94
:101AC0007FE089EC9FE31AC0C801B70120E030E055
:101AD00040E050E00E94723487FD05C060E070E095
:101AE00080E090E00BC06BED7FE089EC9FEB06C0DF
:101AF000C801B701A60195010E941F34DF91CF9163
:101B00001F910F91FF90EF90DF90CF90BF90AF901B
:101B10000895CF92DF92EF92FF920F931F9363E2AB
:101B200078E0AB014C5F5F4F9B012A5F3F4F8B0119
:101B3000085F1F4FFB013A96CB016E5F7F4F7F011D
:101B4000AFE2CA2EA8E0DA2E0E943C1460912D0864
:101B500070912E08882777FD8095982F0E94E03499
:101B60007B018C0160912B0870912C08882777FDF0
:101B70008095982F0E94E0349B01AC01C801B70109
:101B80000E94EB0C60931F0870932008809321083B
:101B9000909322081F910F91FF90EF90DF90CF90CC
:101BA0000895DF92EF92FF920F931F93DF93CF93ED
:101BB0000F92CDB7DEB70E943C0A80E090E060E073
:101BC00070E00E94D01C0E94AA0B00917D0310912E
:101BD0007E03C80182960E94CE1C81E090E00E94A4
:101BE000DA1C1982F8018281938161E070E0AE0114
:101BF0004F5F5F4F0E94F91C8981882319F081E0B3
:101C0000F80186A30E94CF1C8BEC93EF90932501E3
:101C100080932401809173008E7F80937300809164
:101C200020018C7F8093200180912101877E809309
:101C30002101809121018560809321018091210102
:101C40008D7F809321018091730081608093730068
:101C50007E010894E11CF11CDD24D39410C019828C
:101C6000F8018281938161E070E0A7010E94E61C87
:101C70008981882311F0F801D6A20E94E01CF801A6
:101C800080819181892B19F486A1882341F381E019
:101C900090E00E94D71C68EE73E080E090E00E9424
:101CA000E3090E94A90BF89480E090E00F90CF9197
:101CB000DF911F910F91FF90EF90DF900895209199
:101CC00079062F5F20937906215049F081E090E05A
:101CD00090937806809377062093790608957894F8
:101CE0000E94890D81E090E00E94DD1CE0917D035F
:101CF000F0917E0346895789608D718D80E090E078
:101D00000E94E31C0E945C0CF894209179062150FB
:101D10002093790690917A06992359F080917A065A
:101D2000882339F47894F894915090937A0620930C
:101D3000790608951F920F920FB60F920BB60F926D
:101D400011242F933F934F935F936F937F938F93C0
:101D50009F93AF93BF93EF93FF938BEC93EF90938D
:101D60002501809324010E945F0EFF91EF91BF91A6
:101D7000AF919F918F917F916F915F914F913F9123
:101D80002F910F900BBE0F900FBE0F901F901895C4
:101D900060E070E080E89FE7089560E070E080E830
:101DA0009FE7089560E070E080E89FEF089560E0AD
:101DB00070E080E89FEF089560E070E080EC9FEFB6
:101DC000089560E070E080EC9FEF0895DF92EF925D
:101DD000FF920F931F937B018C0120916A08309131
:101DE0006B0840916C0850916D080E9472348823F2
:101DF00079F0DD24C801B701209172083091730891
:101E000040917408509175080E947234882311F42F
:101E1000DD24D3948D2D1F910F91FF90EF90DF90D3
:101E200008951F939B01AC0110E00E947234811150
:101E300011E0812F1F9108950E94DC0E60936E08BF
:101E400070936F0880937008909371080E94E10E60
:101E500060936208709363088093640890936508A8
:101E60000E94C80E60936A0870936B0880936C0898
:101E700090936D080E94CD0E60936608709367087A
:101E800080936808909369080E94D20E609372084C
:101E90007093730880937408909375080E94D70E0E
:101EA0006093760870937708809378089093790808
:101EB0000895382F413210F040E042C08091010770
:101EC0008823E1F791E0909301072093FF068FEFBD
:101ED000809302071092DD0641504093DE064F5F6B
:101EE0009093DC068091DC06330F832B8093DC0615
:101EF00080910007813041F4109200078091DC0648
:101F00008093BB0085EC01C085EE8093BC0080917E
:101F100001078130E1F38091DD06841710F44091D0
:101F2000DD0620E030E00AC0FB01E20FF31FD9011B
:101F3000A152B94F8C9180832F5F3F4F2417A0F39C
:101F4000842F08950F931F93582F122F413210F0B2
:101F500081E045C0809101078823E1F782E080930A
:101F600001070093FF068FEF809302071092DD06B2
:101F70004093DE06AFEDB6E0FB0102C081918D9388
:101F80008E2F861B8417D0F31092DC068091DC061E
:101F9000550F852B8093DC0680910007813041F43A
:101FA000109200078091DC068093BB0085EC01C095
:101FB00085EE8093BC001123A9F080910107823047
:101FC00089F4FBCF80910207803211F482E007C0D0
:101FD00080910207803311F084E001C083E01F91FB
:101FE0000F910895809102078F3F61F780E0F7CF4E
:101FF0001F920F920FB60F920BB60F9211242F93D0
:102000003F934F935F936F937F938F939F93AF9380
:10201000BF93EF93FF938091B90090E0887F907019
:102020008036910509F4F2C081369105CCF58832ED
:10203000910509F47BC089329105B4F48031910592
:1020400009F46FC0813191053CF4009709F447C150
:10205000089709F04FC165C08831910509F466C041
:10206000809709F047C182C08034910509F4A4C06B
:102070008134910544F48033910509F482C0C897F6
:1020800009F038C189C08035910509F489C08835C7
:10209000910509F496C08834910509F02BC1AEC0B2
:1020A0008839910509F413C189399105ECF4883711
:1020B000910509F4ABC0893791054CF48836910538
:1020C00009F4A4C08037910509F014C19FC0883875
:1020D000910509F4FCC08039910509F49DC0803850
:1020E000910509F007C198C0803B910509F4C6C06D
:1020F000813B91054CF4803A910509F49FC0883AE0
:10210000910509F0F7C0BAC0803C910509F4E3C01D
:10211000883C910509F4DFC0883B910509F0EAC0CD
:10212000C2C08091DC068093BB00CFC09091DD06D9
:102130008091DE06981768F49091DD06E92FF0E0B3
:10214000E152F94F80818093BB009F5F9093DD0641
:10215000BCC08091FF06882309F44BC085ED8093B5
:10216000BC008091BC0084FDFCCFC2C080E28093A3
:10217000020785ED8093BC008091BC0084FDFCCFFC
:10218000B7C080E38093020785ED8093BC00809107
:10219000BC0084FDFCCFACC088E3809302079BC0E9
:1021A0008091DD069091BB00E82FF0E0E152F94FFD
:1021B00090838F5F8093DD069091DD068091DE062F
:1021C00082C08091DD069091BB00E82FF0E0E152E3
:1021D000F94F90838F5F8093DD068091FF068823FF
:1021E00041F085ED8093BC008091BC0084FDFCCF64
:1021F0007FC081E08093000784EA6EC085ED809304
:10220000BC008091BC0084FDFCCF72C083E0809351
:1022100001071092030759C080910307803208F02C
:1022200056C0809103079091BB00E82FF0E0EC5F6F
:10223000F84F90838F5F8093030747C08091030717
:10224000803230F4E0910307F0E0EC5FF84F108249
:1022500085ED8093BC008091BC0084FDFCCF109282
:10226000010760910307E0912407F091250784E0BE
:1022700097E070E01995109203072DC084E08093D9
:1022800001071092260710922707E0912807F09186
:102290002907199580912707882329F481E08093E5
:1022A000270710922A0790912607E92FF0E0E65DB4
:1022B000F84F80818093BB009F5F90932607909199
:1022C000260780912707981710F485EC01C085E850
:1022D0008093BC000FC085EC8093BC0009C01092B5
:1022E000020785ED8093BC008091BC0084FDFCCF8B
:1022F00010920107FF91EF91BF91AF919F918F9144
:102300007F916F915F914F913F912F910F900BBEF5
:102310000F900FBE0F901F901895413208F040E2C9
:10232000862F6BE776E00E94590F10929B068093F0
:102330009C06089521E00E948D1108950F93062FA9
:1023400080919D066EE976E04091BF0621E00E94F3
:10235000A20F1092BE061092BF061092C0060F91F7
:10236000089561E00E949E110895DF93CF930F922C
:10237000CDB7DEB7FC0169838091C0068823C9F020
:102380008091BF06803238F081E090E093838283B1
:1023900020E030E01AC08091BE06E82FF0E0E2565F
:1023A000F94F998190838F5F8093BE068093BF061B
:1023B0000AC080910107843031F481E080932707BF
:1023C000898180932A0721E030E0C9010F90CF91E5
:1023D000DF910895CF92DF92EF92FF920F931F93B8
:1023E000CF93DF936C018B017A018091C006882323
:1023F000A1F0C0E0D0E00DC0D601ED91FC91D80174
:10240000AC0FBD1F0190F081E02DC6016C911995B4
:102410002196CE15DF0580F313C0413288F48091F8
:102420000107843069F4E0922707562FAAE2B7E04B
:10243000FB0102C081918D938E2F851B8417D0F3F1
:10244000C701DF91CF911F910F91FF90EF90DF9027
:10245000CF90089520919C0630E080919B06281B28
:102460003109C901089540919B0680919C06481747
:1024700018F02FEF3FEF0AC0E42FF0E0E558F94FD6
:102480008081282F30E04F5F40939B06C90108955B
:10249000E0919B0680919C06E81718F0EFEFFFEFA4
:1024A00006C0F0E0E558F94F8081E82FF0E0CF0159
:1024B00008950895FF920F931F93CF93DF93F42E07
:1024C000122F032F91E09093C00680939D061092E7
:1024D000BE061092BF0681EC96E00E94B511212F36
:1024E000302FC901EC0110E006C081EC96E0699143
:1024F0000E94B5111F5F1F15C0F381EC96E00E948A
:10250000B11190E0882309F491E0892FDF91CF91F8
:102510001F910F91FF900895DF93CF930F92CDB746
:10252000DEB7498341E09E012F5F3F4F0E945A1260
:102530000F90CF91DF9108951092C4061092C306B8
:1025400088EE93E0A0E0B0E08093C5069093C606C5
:10255000A093C706B093C80684E893E09093C206A0
:102560008093C10688E68093CD0608952F923F920E
:102570004F925F926F927F928F929F92AF92BF9293
:10258000CF92DF92EF92FF920F931F93DF93CF933F
:1025900000D00F920F92CDB7DEB7882E6983942EAC
:1025A0003B832A830E94D5095B016C01FF24EE2442
:1025B000292C332428016624772461C021E020934C
:1025C000C00680929D061092BE061092BF0681EC56
:1025D00096E069810E94B51181EC96E00E94B111EC
:1025E00031E03093C00680929D061092BE06109294
:1025F000BF06A1014E1951094132510514F040E2C4
:1026000050E081EC96E0682D0E949A118F2D992759
:1026100087FD9095EA81FB818E0F9F1F9D838C83A0
:102620000FC0E92FF0E0E558F94F8081282F9F5F18
:1026300090939B06EC81FD812193FD83EC83F394C1
:1026400090919C0680919B06981709F450C0011543
:10265000110561F00E94D5096A197B098C099D0951
:10266000641575058605970508F041C090919B0695
:1026700080919C069817A8F22FEF3FEFDBCFE9146B
:1026800008F49CCF01151105C9F00E94D5096A19FB
:102690007B098C099D09980140E050E0621773079F
:1026A0008407950758F02F2D332727FD3095892D66
:1026B00090E02817390714F4FF24FA948F2D0F9017
:1026C0000F900F900F900F90CF91DF911F910F916E
:1026D000FF90EF90DF90CF90BF90AF909F908F9042
:1026E0007F906F905F904F903F902F90089581EC76
:1026F00096E00E94B111892DF0E2F91508F480E20C
:10270000E80EBDCFEF92FF920F931F937C019C01C7
:102710002F5F3F4F00915F0310916003FC018081A8
:1027200067E442E00E94B612F701918180E02281C5
:1027300030E0282B392BC9011F910F91FF90EF90AA
:102740000895EF92FF920F931F937C019C012F5FDE
:102750003F4F00915F0310916003FC01808165E4AD
:1027600042E00E94B612F701918180E0228130E0C0
:10277000282B392BC9011F910F91FF90EF900895DD
:10278000EF92FF920F931F937C019C012F5F3F4FAD
:1027900000915F0310916003FC01808163E442E0DB
:1027A0000E94B612F701918180E0228130E0282B4F
:1027B000392BC9011F910F91FF90EF900895EF926F
:1027C000FF920F931F937C019C012F5F3F4F00915D
:1027D0005F0310916003FC0180816FE342E00E947F
:1027E000B612F701918180E0228130E0282B392B4D
:1027F000C9011F910F91FF90EF900895EF92FF9202
:102800000F931F937C019C012F5F3F4F00915F034B
:1028100010916003FC0180816DE342E00E94B612DA
:10282000F701918180E0228130E0282B392BC9010A
:102830001F910F91FF90EF900895EF92FF920F93E9
:102840001F937C019C012F5F3F4F00915F0310910C
:102850006003FC0180816BE342E00E94B612F70145
:10286000918180E0228130E0282B392BC9011F9112
:102870000F91FF90EF9008956F927F928F929F92A9
:10288000AF92BF92CF92DF92EF92FF920F931F937E
:10289000CF93DF93EC015B014A013901F6016081BE
:1028A00071818281938120E030E040E85FE30E9403
:1028B0007234882349F58DEC96E00E94C013998309
:1028C00088838DEC96E00E94A113F50191838083AB
:1028D0008DEC96E00E948213F401918380838DEC4D
:1028E00096E00E941D14F301918380838DEC96E0A5
:1028F0000E94FE13F801918380838DEC96E00E9484
:10290000DF13F70191838083DF91CF911F910F91A6
:10291000FF90EF90DF90CF90BF90AF909F908F90FF
:102920007F906F9008950F931F93FA01890141E002
:102930009F010E94B6121F910F910895DF92EF92AE
:10294000FF920F931F93DF93CF930F92CDB7DEB714
:10295000E82ED62EF42E122F20915F0330916003C3
:10296000AE014F5F5F4F0E949314882341F1212FE6
:1029700030E04F2D50E04F5F5F4F421B530B81E023
:1029800090E002C0880F991F1A95E2F70197042E74
:1029900002C0880F991F0A94E2F7202F30E002C08E
:1029A000220F331F4A95E2F7482F4095598145235E
:1029B0008223482B49838E2D6D2D0E948C120F90FF
:1029C000CF91DF911F910F91FF90EF90DF900895CD
:1029D0000F93FC01062F80816BE642E023E00E940A
:1029E0009E140F9108950F93FC01062F80816CE1D6
:1029F00044E022E00E949E140F9108950F93FC0181
:102A0000062F80816BE144E022E00E949E140F912A
:102A10000895EF92FF920F931F93DF93CF930F923E
:102A2000CDB7DEB7F82EE62E042F122F20915F03CC
:102A300030916003AE014F5F5F4F0E949314298174
:102A4000112351F081E090E002C0880F991F0A9590
:102A5000E2F7422F482B0AC081E090E002C0880FC5
:102A6000991F0A95E2F7482F4095422349838F2DFD
:102A70006E2D0E948C120F90CF91DF911F910F91BC
:102A8000FF90EF900895FC01262F80816BE646E0D1
:102A90000E94091508950F931F938C0161E00E9415
:102AA000E814C80160E00E94FE14C80160E00E94C2
:102AB000F314C80160E00E9443151F910F9108951F
:102AC0001092010781E08093FF061092000784E1D5
:102AD00061E00E94120B85E161E00E94120BE9EBBC
:102AE000F0E080818E7F808380818D7F808388E489
:102AF0008093B80085E48093BC00089510929B06F3
:102B000010929C061092BE061092BF060E9460159D
:102B10000895CF92DF92CF93DF93E60168817981A8
:102B20008A819B8120E030E040E85FE30E947234BC
:102B3000882381F081EC96E00E947E158DEC96E072
:102B40000E944B1580E090E0A0E8BFE38883998362
:102B5000AA83BB83DF91CF91DF90CF900895AF928E
:102B6000BF92CF92DF92EF92FF920F931F935C017F
:102B70006A017B0100E010E020E030E00E94091FC4
:102B8000C501B701A60101E010E020E030E00E949D
:102B9000091F1F910F91FF90EF90DF90CF90BF9092
:102BA000AF90089560E070E080E090E00E94E11E48
:102BB00061E070E080E090E00E94E11E08950F93D4
:102BC0001F938C0160E070E080E090E0A8010E941B
:102BD000781E61E070E080E090E0A8010E94781E1D
:102BE0001F910F910895CF92DF92EF92FF920F9372
:102BF0001F93DF93CF9300D00F92CDB7DEB77C0148
:102C000080915107909152078E159F050CF5809188
:102C10004F0790915007009731F00E9411021092D7
:102C2000520710925107C7010E9467019093500705
:102C300080934F07009741F400E010E083E0C82E36
:102C4000D12CCC0EDD1E1CC0F0925207E092510731
:102C500000E010E06E010894C11CD11C27C08091D7
:102C60004D0790914E0761E070E0A60123E537E043
:102C70000E94A92F882311F58B819C81080F191FB1
:102C80000E151F0564F31AC0B701601B710B200FEE
:102C9000311F80914D0790914E07A6010E94A92FE8
:102CA000882361F489819A81080F191F20914F07A9
:102CB000309150070E151F053CF302C020E030E0B4
:102CC000C9010F900F900F900F90CF91DF911F913E
:102CD0000F91FF90EF90DF90CF900895AF92BF9249
:102CE000CF92DF92FF920F931F93DF93CF93CDB7D5
:102CF000DEB72A970FB6F894DEBF0FBECDBF8B01AB
:102D00006A01A0E0B0E08B839C83AD83BE83CB01DE
:102D1000AA2797FDA095BA2F8F839887A987BA878E
:102D200080914D0790914E0768E070E0AE014D5FD5
:102D30005F4F5E010894A11CB11C95010E94A42E56
:102D4000F82E8823B9F489819A81089799F4C114DF
:102D5000D10491F080914D0790914E07B801A601E2
:102D600095010E94A42E882329F489819A818017D5
:102D7000910711F0FF24F3948F2D2A960FB6F89443
:102D8000DEBF0FBECDBFCF91DF911F910F91FF909E
:102D9000DF90CF90BF90AF900895AF92BF92CF9247
:102DA000DF92EF92FF920F931F93DF93CF93CDB7F4
:102DB000DEB72C970FB6F894DEBF0FBECDBF7C01F7
:102DC0006B01CA0159010E94F315FC010097D1F46F
:102DD00081E090E0A0E0B0E08D839E83AF83B88770
:102DE0008FEF9FEFAFEFBFEF89879A87AB87BC87E5
:102DF000C70168E070E0AE014B5F5F4F0E946E1646
:102E000011E04FC0008111812281338109831A832F
:102E10002B833C838BE1E816F10461F08CE1E8162A
:102E2000F10451F53496C601BF01A90198010E9431
:102E3000EA2306C03496C601B501AF010E94DE2721
:102E4000182F8823C9F029813A814B815C8181E068
:102E500090E0A0E0B0E08D839E83AF83B8872987A0
:102E60003A874B875C87C70168E070E0AE014B5F33
:102E70005F4F0E946E1615C089819A81AB81BC811B
:102E80001D821E821F82188689879A87AB87BC871E
:102E9000C70168E070E0AE014B5F5F4F0E946E16A5
:102EA000182F812F2C960FB6F894DEBF0FBECDBF22
:102EB000CF91DF911F910F91FF90EF90DF90CF9016
:102EC000BF90AF900895EF92FF920F931F93DF93FF
:102ED000CF93CDB7DEB72C970FB6F894DEBF0FBEF9
:102EE000CDBF8C01CB017A010E94F315FC01009744
:102EF000D1F481E090E0A0E0B0E08D839E83AF83C9
:102F0000B8878FEF9FEFAFEFBFEF89879A87AB87C7
:102F1000BC87C80168E070E0AE014B5F5F4F0E9464
:102F20006E1681E028C060817181828193816983FE
:102F30007A838B839C830D31110531F00E3111059D
:102F400031F40E949F1D03C0A7010E94521D898178
:102F50009A81AB81BC811D821E821F82188689875F
:102F60009A87AB87BC87C80168E070E0AE014B5F11
:102F70005F4F0E946E162C960FB6F894DEBF0FBE00
:102F8000CDBFCF91DF911F910F91FF90EF900895EA
:102F90000F931F938C0110924C0710924B0760E027
:102FA00070E080E090E0A8010E94D12661E070E02E
:102FB00080E090E0A8010E94D12680914D07909179
:102FC0004E070E94C32D1F910F910895CF92DF925B
:102FD000EF92FF920F931F936B017C0189019A017D
:102FE00080914D0790914E07B701A6010E94C22D16
:102FF0001F910F91FF90EF90DF90CF9008951F9356
:1030000080914D0790914E070E94A92D182F88237B
:1030100061F460E070E080E090E00E94D52561E01E
:1030200070E080E090E00E94D525812F1F910895E7
:103030002F923F924F925F926F927F928F929F92C8
:10304000AF92BF92CF92DF92EF92FF920F931F93B6
:10305000DF93CF93CDB7DEB72A970FB6F894DEBFD4
:103060000FBECDBF5B016C012A0180914C07882304
:1030700009F46FC08E010D5F1F4FC801B601A50195
:1030800092010E94E1261E010894211C311C09872F
:103090001A8752C00D811E81060D171DF801E080B0
:1030A000F1804281538180914D0790914E07B70185
:1030B00091010E94A42E882309F048C089819A8139
:1030C0008E159F0509F042C0F801E480F5801E14BA
:1030D0001F048CF44681578180914D0790914E07D3
:1030E000B70191010E94A42E882381F589819A81DC
:1030F0008E159F0559F5C401880F991FEF81F8853A
:10310000E80FF91F80819181B601A5010E94CB1DB6
:103110000894811C911C88E090E0680E791E8B81D8
:103120009C81881699060CF4B5CF89859A85B601DD
:10313000A50192010E94E1268B819C811816190637
:1031400044F48824992466247724E9CFC2010E949C
:10315000C8172A960FB6F894DEBF0FBECDBFCF9129
:10316000DF911F910F91FF90EF90DF90CF90BF9074
:10317000AF909F908F907F906F905F904F903F9017
:103180002F9008951F93CF93DF93EC0160E070E0E0
:1031900080E090E00E94351D60E070E080E090E00B
:1031A000AE010E94181860E070E080E090E0AE018F
:1031B0000E94032680914F0790915007009731F0AD
:1031C0000E9411021092500710924F0761E070E0C8
:1031D00080E090E00E94351D61E070E080E090E0CA
:1031E000AE010E94181861E070E080E090E0AE014E
:1031F0000E94032680914F0790915007009731F06D
:103200000E9411021092500710924F0780914B07B5
:10321000882311F410E00BC084E190E060E070E0DE
:1032200040E050E00E946E16182F10924B078091DC
:103230004C07882341F010924C0781E090E0909376
:1032400064038093630380914D0790914E070E9421
:10325000C83180914D0790914E070E94C12D812F5A
:10326000DF91CF911F9108952F923F924F925F92DD
:103270006F927F928F929F92AF92BF92CF92DF9286
:10328000EF92FF920F931F93DF93CF93CDB7DEB7EB
:10329000A0970FB6F894DEBF0FBECDBF6C017B01C7
:1032A0002A0180914C07882359F480914D07909111
:1032B0004E076CE477E00E94AB2D882309F012C31F
:1032C00080914C07882309F40DC31A82198200E00B
:1032D00010E058E0652E712C4BE0842E912C8C0E62
:1032E0009D1E5E010894A11CB11CB301601B710BF3
:1032F0009401200F311F80914D0790914E07A50139
:103300000E94A92F282F882351F489819A81080FC0
:10331000191F0115110519F00830110534F38981C1
:103320009A81222309F0DBC2181619060CF0DAC2C2
:1033300080914B07882321F41B861C861D861E86E0
:103340008B859C85AD85BE8586309105A105B1052F
:1033500009F468C087309105A105B10510F58230E8
:103360009105A105B10509F4BAC283309105A10503
:10337000B10558F40097A105B10509F468C001979B
:10338000A105B10509F0AEC24BC284309105A1057B
:10339000B10509F458C10597A105B10509F0A2C20C
:1033A00081C189309105A105B10509F490C28A3027
:1033B0009105A105B10558F487309105A105B10526
:1033C000D1F10897A105B10509F08CC226C08B3058
:1033D0009105A105B10509F476C28B309105A105CF
:1033E000B10508F463C20F97A105B10509F07AC2CF
:1033F000D6011696ED91FC91179780819181A2815B
:10340000B3818B839C83AD83BE8385E190E064E0D0
:1034100070E0AE014D5F5F4F2DC16F8578898DE102
:1034200090E059C24F8558898BE190E0B601970131
:1034300001E613E009C04F8558898CE190E0B601A0
:103440002FEF3FEF02E613E00E94CD164BC2D601EC
:103450001496ED91FC91159700811181F801F2818C
:10346000FD8FD8011396BC91BE8FF801F081FB8FC0
:10347000D8011196BC91BC8F30E1832E912CA12CE8
:10348000B12C8B8A9C8AAD8ABE8A88E090E0A0E04D
:10349000B0E08F8B988FA98FBA8F23E1422E512CE9
:1034A0004C0E5D1E80914D0790914E0768E070E0D4
:1034B000A2013E010894611C711C93010E94A42E7C
:1034C000882309F0BAC089819A81089709F0B5C0AC
:1034D000F801E080F18088E090E0E80EF91EEE0C43
:1034E000FF1CEE0CFF1CC7010E9467018F8F98A381
:1034F0008C011C01009709F4A2C08B8A9C8AAD8ABA
:10350000BE8AC701AA2797FDA095BA2F8F8B988FE7
:10351000A98FBA8F80914D0790914E0768E070E0B7
:10352000A20193010E94A42E882309F088C08981FA
:103530009A81089709F083C04B8D5C8DD601129655
:10354000ED91FC911397A080B180C280D380D80107
:10355000AD92BD92CD92DC921397A480B580C680C7
:10356000D7801496AD92BD92CD92DC921797A0842D
:10357000B184C284D3841896AD92BD92CD92DC9270
:103580001B9784859585A685B785F80184879587DF
:10359000A687B787D80150961D921D921D921C9246
:1035A000539784E090E0A0E0B0E0848B958BA68BED
:1035B000B78B8091630390916403A0E0B0E0808FAB
:1035C000918FA28FB38FCA01AA2797FDA095BA2F1A
:1035D000848F958FA68FB78F2D8D3E8DC901BC012D
:1035E0002F8D38A1C901FC0120E030E00CC0DB01C7
:1035F0008D919D91BD01A0E0B0E0848F958FA68F45
:10360000B78F2F5F3F4F34962417350784F380918F
:103610004D0790914E07B701A8019E012F5F3F4FC4
:103620000E94A42E882359F489819A818E159F05C2
:1036300031F481E080934B0702C022243324C1017E
:103640000E9411024FC18F8598890E94F315BC0119
:103650008E01095F1F4F009781F481E090E0A0E0A8
:10366000B0E08F839887A987BA8782E190E064E011
:1036700070E0A8010E946E1635C1C6010E94D022DA
:103680001F82188619861A8682E190E064E070E055
:10369000A8010E946E16882309F024C181E080935E
:1036A0004A0720C1D6011496ED91FC91159701901F
:1036B000F081E02DA084B184A114B10409F495C077
:1036C000D5016D907C908280938000E010E060E0F6
:1036D00070E040E050E021C0F501A281B381A40F69
:1036E000B51F1296ED91FC911397EE0FFF1FE80D99
:1036F000F91D2081318116968D919C911797DC01DF
:103700002A9FC0012B9F900D3A9F900D1124080F06
:10371000191F6F5F7F4F485F5F4F66157705E4F2B3
:1037200083E190E0A0E0B0E08B8B9C8BAD8BBE8BF7
:10373000C801AA2797FDA095BA2F8F8B988FA98FC4
:10374000BA8F80914D0790914E0768E070E0AE010E
:103750004D5E5F4F6E010894C11CD11C96010E9402
:10376000A42E882309F0BEC089819A81089709F0A8
:10377000B9C0EE24FF2400E010E0260132C0F501BC
:10378000A281B381A00FB11F1296ED91FC91139706
:10379000EE0FFF1FE80DF91D2081318116968D91E6
:1037A0009C911797289F6001299FD00C389FD00CBF
:1037B00011244D915C9180914D0790914E07B60177
:1037C00092010E94A42E882309F08CC0085F1F4F2D
:1037D00089819A818C159D0509F084C00894E11CAB
:1037E000F11CE614F7045CF27DC083E190E0A0E0F8
:1037F000B0E08B8B9C8BAD8BBE8B1F8A188E198E85
:103800001A8E80914D0790914E0768E070E0AE01EE
:103810004D5E5F4F9E012F5F3F4F0E94A42E62C0FE
:1038200081E190E060E070E040E050E00E946E16C0
:10383000882309F057C060E070E080E090E00E94CB
:10384000351D80915607882339F060E070E080E0F4
:1038500090E0A7010E94181860E070E080E090E01E
:10386000A7010E94032661E070E080E090E00E94E2
:10387000351D80915607882339F061E070E080E0C3
:1038800090E0A7010E94181861E070E080E090E0ED
:10389000A7010E94032610924C0710924B078091BB
:1038A0004D0790914E070E94B82D1CC081E090E01A
:1038B000909355078093540786E190E060E070E0B4
:1038C00040E050E0D7CE81E0D2018C930BC06F85F1
:1038D00078898EE190E0A7010E94631703C0C701B9
:1038E0000E94C817A0960FB6F894DEBF0FBECDBFDA
:1038F000CF91DF911F910F91FF90EF90DF90CF90CC
:10390000BF90AF909F908F907F906F905F904F90FF
:103910003F902F9008950F931F938C0160E070E00B
:1039200080E090E0A8010E94181861E070E080E05B
:1039300090E0A8010E9418181F910F91089580919E
:103940004D0790914E070E94BB2D08950F931F9332
:10395000CF93DF93EC018B010E94BE2D90934E0715
:1039600080934D07009719F4C7E9D2E007C0BE0164
:10397000A8010E944631EC01009751F080914D075B
:1039800090914E070E94C12D10924E0710924D0744
:10399000CE01DF91CF911F910F9108950895089561
:1039A00080E090E060E070E00E94A61C08950E9414
:1039B000C21808950E94FF1708950E94DF15089508
:1039C0000E94D21508950E94AF150895CF93DF93FA
:1039D0009C01EB018091630390916403049731F0A3
:1039E000C9010E943419CE010E948B1CDF91CF9136
:1039F0000895EF92FF920F931F93CF93DF937C0173
:103A00008B01EA010E949F1C882399F41BC060E08F
:103A100070E080E090E028ED38EB45E050E00E9457
:103A2000E617C701B801AE010E943419C8010E940F
:103A30008B1C8091540790915507892B19F488812C
:103A4000882329F38091630390916403049731F0F4
:103A500083E090E09093640380936303DF91CF91C0
:103A60001F910F91FF90EF90089524E430E0629F42
:103A7000F001639FF00D729FF00D1124E95AF84F89
:103A8000828993890497029760F485E090E0938B94
:103A9000828B8FEF9FEFAFEFBFEF828F938FA48F5B
:103AA000B58F0895CF93DF9324E430E0629FD00177
:103AB000639FB00D729FB00D1124A95AB84F109298
:103AC00056079D961C921E929C9760E070E020E045
:103AD00030E0C1E0D0E019C01A96ED91FC911B973F
:103AE000E20FF31F828193811816190654F4848122
:103AF0009581978386839187808713861286D183E9
:103B0000C0836F5F7F4F225F3F4F6417750724F3B9
:103B10009B961C921E929A97D9961C921E92D897A9
:103B2000FD01FE96108211821282138282E090E0E3
:103B300053969C938E935297DF91CF91089524E4EE
:103B400030E0629FF001639FF00D729FF00D112431
:103B5000E95AF84F8289938981309105D8F08530F0
:103B6000910518F00597B1F40DC08FEF9FEFAFEFFF
:103B7000BFEF828F938FA48FB58F85E090E0938BFA
:103B8000828B08958FEF9FEFAFEFBFEF828F938F00
:103B9000A48FB58F089524E430E0429FF001439F45
:103BA000F00D529FF00D1124E95AF84F9C01220F9D
:103BB000331FC90143E0880F991F4A95E1F7821B23
:103BC000930B0284F385E02DE80FF91F81E08093C9
:103BD00056078285938591878087208531858681E8
:103BE000978140E050E02817390711F441E050E098
:103BF000518340830895EF92FF920F931F93CF93C9
:103C0000DF93DC01EA01F9011496ED90FC90159721
:103C100012964D915C9113972881398118968D9158
:103C20009C9119978217930730F08D919C91119771
:103C3000892B09F43FC08701040F151FA801421BFF
:103C4000530B18968D919C9119978E199F09840F8B
:103C5000951F861797070CF443C0260F371F8881DE
:103C600099812017310728F47183608393838283BD
:103C70002EC05183408393838283CB01841B950B99
:103C800095838483181619061CF080E090E004C028
:103C900014968D919C9115979783868314968D9198
:103CA0009C91159724813581820F931F9983888376
:103CB00080E017C018968D919C911997821B930BE9
:103CC000861797076CF07183608333832283158294
:103CD00014821782168288819981860F971FE6CFFA
:103CE00081E0DF91CF911F910F91FF90EF900895A8
:103CF000EF92FF920F931F93CF93DF937B018C0181
:103D0000FA0184E490E0E89EE001E99ED00DF89E7F
:103D1000D00D1124C95AD84F8A899B89009709F47C
:103D200049C00197C1F48AA59BA52A8D3B8D4C8D76
:103D30005D8D01969BA78AA70197AA2797FDA0955D
:103D4000BA2F82179307A407B507A1F5C801B701D9
:103D5000AF010E94521D8A899B89039759F58AA554
:103D60009BA52E8D3F8D48A159A101969BA78AA79F
:103D70000197AA2797FDA095BA2F82179307A4074A
:103D8000B507C4F08EAD9FAD9BA78AA784E090E0F5
:103D90009B8B8A8B8AAD9BADACADBDAD1816190659
:103DA0001A061B063CF4FE01EE5BFF4F81E090E03B
:103DB00091838083DF91CF911F910F91FF90EF90BE
:103DC000089524E430E0629FF001639FF00D729F3C
:103DD000F00D1124E95AF84F828993890097C1F0B8
:103DE0000497B1F482A593A5019693A782A7AA2769
:103DF00097FDA095BA2F26893789408D518D82175E
:103E00009307A407B50721F485E090E0938B828B9C
:103E100008952F923F924F925F926F927F928F926E
:103E20009F92AF92BF92CF92DF92EF92FF920F9349
:103E30001F93DF93CF93CDB7DEB7CC54D0400FB6EE
:103E4000F894DEBF0FBECDBF27969FAF8EAF2797EA
:103E50004DA75EA76FA778AB2B960CAF1DAF2EAF0B
:103E60003FAF2B9784E490E029962EAD3FAD299784
:103E7000289F4001299F900C389F900C112447E502
:103E800057E0840E951ED4011A960D90BC91A02D7A
:103E90002596BFAFAEAF2597F4018289938902972B
:103EA00009F025C186A597A5A0A9B1A90097A105EC
:103EB000B10529F484E090E0938B828B18C1D40182
:103EC00054968D919C9155972796EEADFFAD27970F
:103ED000E817F90709F00BC1D6962D913C91D797B9
:103EE0003EAF2DAF1DAA1EAA1FAA18AE1CAA1BAA60
:103EF000CBC0D401D2964D905C90D397EBA9FCA98E
:103F00004E0E5F1ED20112960D90BC91A02DBCAF3B
:103F1000ABAFB695A795B695A795BAAFA9AFF40183
:103F200080AD91AD892B09F489C0E6A0F7A000A56A
:103F300011A56DAC7EACD2012D903C9021961FAEA8
:103F40001EAE219771C0F40182A193A1892B61F16A
:103F5000D101AD90BD90CD90DC90C601B501A80116
:103F600097010E94B53588235CF0F301608171816F
:103F700082819381A80197010E94723487FD98C0C5
:103F8000C601B501A80197010E94B535181664F461
:103F9000D3016D917D918D919C91A80197010E9413
:103FA0007234882309F484C0F40184A195A1892B7B
:103FB00061F1D101AD90BD90CD90DC90C601B5010D
:103FC000A80197010E94723488235CF4F301608198
:103FD000718182819381A80197010E94B53587FF85
:103FE00067C0C601B501A80197010E9472348823F9
:103FF00061F4D3016D917D918D919C91A801970100
:104000000E94B53518160CF453C02196EEADFFADE5
:10401000219731962196FFAFEEAF219724E030E053
:10402000620E731E220E331E21964EAD5FAD219798
:1040300089AD9AAD481759070CF485CFD2016C9120
:1040400011967C918DAD9EAD4BAD5CAD0E94690229
:10405000E9ADFAADEE0FFF1FEE0FFF1F2DAD3EAD28
:104060002E0F3F1F3EAF2DAF8DA99EA9AFA9B8ADB2
:104070000196A11DB11D8DAB9EABAFABB8AFABA987
:10408000BCA91496BCABABABF40186A597A5A0A9BF
:10409000B1A92DA93EA94FA958AD281739074A073C
:1040A0005B070CF426CF81E090E091AF80AF1FC09A
:1040B000F401868D978DA0A1B1A10097A105B1054E
:1040C00049F484E090E0938B828B86AD97AD93A703
:1040D00082A70DC083E090E0D40153969C938E9309
:1040E000529781E090E09B969C938E939A97F4016F
:1040F000828993898230910571F482AD93ADA4AD2C
:10410000B5AD181619061A061B060CF02FC2A1E051
:104110002A2E312C05C0049709F028C2222433240A
:1041200027968EAD9FAD2797880F991F7C01E3E0FE
:10413000EE0CFF1CEA95E1F7E81AF90A25962EAD78
:104140003FAD2597E20EF31ED70112966D917C913B
:1041500013976115710519F480E090E0FAC1F70139
:10416000868197819A838983FE01799684E1DF01B4
:104170001D928A95E9F72B962CAD3DAD4EAD5FAD06
:104180002B9729A73AA74BA75CA72114310409F460
:1041900046C0F401FE962081318142815381F401B1
:1041A00082AD93ADA4ADB5AD281739074A075B07BB
:1041B000B1F5D70114964D915C911597640F751F59
:1041C0001896ED91FC91199784819581A681B7810C
:1041D0009C018B839C83AD83BE83285F3F4FF70197
:1041E00080859185820F931F918780878085918537
:1041F000861B970B97FD04C0480F591F51874087B6
:104200003C832B83F401FE9680819181A281B3814E
:104210000197A109B10980839183A283B383C70168
:1042200064E170E08E010F5F1F4FA8019E012F5EB9
:104230003F4F0E94FB1D90E0009709F08AC18D8DD1
:104240009E8DAF8DB8A10C96A11DB11D8D8F9E8F37
:10425000AF8FB8A3C70164E070E0A8019E01275F9B
:104260003F4F0E94FB1D282F30E03AAB29AB232B98
:1042700009F06DC18D8D9E8DAF8DB8A10496A11DE5
:10428000B11D8D8F9E8FAF8FB8A38E01035D1F4F21
:1042900049855A858B859C85B8010E9469026F8586
:1042A00078896115710551F029853A85200F311FF4
:1042B0004D855E85CB01B9010E9469021D821E8277
:1042C0001F82188627964EAD5FAD2797440F551F66
:1042D00023965FAF4EAF2397CE0105962D969FAFE5
:1042E0008EAF2D97D4C0C901880F991F880F991FD1
:1042F000F401A085B185A80FB91FED91FC9111972C
:10430000E081EE2309F4B8C0E33009F4B5C0129699
:10431000ED91FC91139723962EAD3FAD2397E20FBD
:10432000F31F408051804114510409F4A5C089A1B4
:104330009AA1ABA1BCA10196A11DB11D89A39AA30D
:10434000ABA3BCA3C70164E070E0AE014F5F5F4F59
:104350009E01275F3F4F0E94FB1D90E0009709F0F0
:10436000F8C08D8D9E8DAF8DB8A10496A11DB11D95
:104370008D8F9E8FAF8FB8A349855A858B859C857D
:104380002C966FAD2C972D967FAD2D970E946902CC
:104390006F8578896115710571F029853A8545E049
:1043A00050E04C0F5D1F240F351F4D855E85CB01FE
:1043B000B9010E946902AA24BB24650166247724FE
:1043C00050C0D20114960D911C911597060D171D22
:1043D000F80162817381C701AE014F5F5F4F9E019B
:1043E000275F3F4F0E94FB1D90E0009709F0B1C08E
:1043F000D80112962D913C911397442737FD409593
:10440000542F8D8D9E8DAF8DB8A1820F931FA41F49
:10441000B51F8D8F9E8FAF8FB8A3F801608171811A
:1044200049855A858B859C850E9469026F857889AC
:104430006115710569F0D8012D913C9189859A85A6
:10444000280F391F4D855E85CB01B9010E94690295
:104450000894A11CB11CC11CD11CE4E0F0E06E0E5C
:104460007F1EF20180819181A281B381A816B906D5
:10447000CA06DB060CF4A5CF8D819E81AF81B8857D
:104480000196A11DB11D8D839E83AF83B8872D81B9
:104490003E814F815885F40184819581A681B78141
:1044A000281739074A075B070CF41DCF89A19AA189
:1044B000ABA1BCA10097A105B10509F448C08AE1F0
:1044C00090E0A0E0B0E0898F9A8FAB8FBC8F2796E9
:1044D0002EAD3FAD2797C901AA2797FDA095BA2F0A
:1044E0008DA39EA3AFA3B8A78E01075E1F4F498976
:1044F0005A898B899C89B8010E9469026F89788DDD
:104500006115710551F029893A89200F311F4D89B4
:104510005E89CB01B9010E94690289819A81D70124
:1045200017969C938E93169711961C921E92232891
:10453000E9F0F401FE9680819181A281B381019618
:10454000A11DB11D80839183A283B3830FC089A96C
:104550009AA9232859F4892B49F081E090E0F401CD
:1045600095A784A785E090E0938B828BC45BDF4F97
:104570000FB6F894DEBF0FBECDBFCF91DF911F9174
:104580000F91FF90EF90DF90CF90BF90AF909F90F2
:104590008F907F906F905F904F903F902F900895F5
:1045A0002F923F924F925F926F927F928F929F9243
:1045B000AF92BF92CF92DF92EF92FF920F931F9331
:1045C000DF93CF93CDB7DEB768970FB6F894DEBF11
:1045D0000FBECDBFDC011496ED91FC9115970190B3
:1045E000F081E02D80859185988F8F8BA281B3819A
:1045F000BE8BAD8BFB0181919191A191B19189838A
:104600009A83AB83BC8366247724430165C09E01F3
:104610002B5F3F4FAF0180E1DA010D90AD01D90171
:104620000D929D018150C1F730E1432E512C4E0E69
:104630005F1E8D819E8123E0880F991F2A95E1F7E7
:10464000EF89F88DA281B381A80FB91F2D903C90FE
:104650001197E989FA89EE0FFF1F8D899E89E80F6E
:10466000F91F0190F081E02D14968D919C91159782
:10467000892B19F481E090E002C082E090E08E9FE7
:1046800070018F9FF00C9E9FF00C11240027F7FC07
:104690000095102F2D853E854F855889C801B7019B
:1046A0000E9426365B016C0129853A854B855C8525
:1046B000C801B7010E9426369101260F371FC90194
:1046C000B201A5010E946902F201EA0DFB1D0894E6
:1046D000611C711C811C911C89819A81AB81BC81F8
:1046E000681679068A069B060CF491CF68960FB679
:1046F000F894DEBF0FBECDBFCF91DF911F910F9118
:10470000FF90EF90DF90CF90BF90AF909F908F90F1
:104710007F906F905F904F903F902F900895CF9330
:10472000DF9324E430E0629FE001639FD00D729F2D
:10473000D00D1124C95AD84F8AA99BA9009721F0FE
:104740000E9411021BAA1AAA8EA99FA9009721F004
:104750000E9411021FAA1EAA1B8A1A8A1E8A1F8A79
:10476000188E198E1A8E1B8E1C8E1D8E1E8E1F8EFD
:1047700018A219A281E090E09BA38AA31DA21CA20B
:1047800080E090E0A0E0B0E08EA39FA3A8A7B9A727
:104790001BA61AA61DA61CA61EA61FA618AA19AA05
:1047A0001BAA1AAA1DAA1CAA1FAA1EAA19AE18AED5
:1047B0001AAE1BAE1CAE1DAEFE01FE96108211821B
:1047C00012821382FE01EE5BFF4F11821082DF9195
:1047D000CF9108952F923F924F925F926F927F9266
:1047E0008F929F92AF92BF92CF92DF92EF92FF9201
:1047F0000F931F93DF93CF93CDB7DEB7AC970FB670
:10480000F894DEBF0FBECDBF98A38F8F8B0129A375
:104810003AA34BA35CA3FB0181919191A191B1912A
:10482000AF01BC0189839A83AB83BC8329A13AA1E0
:1048300084E490E0289FF001299FF00D389FF00D4F
:1048400011249F01295A384F3EA32DA3D901559613
:104850007C936E9354979F012359384FD801149637
:104860004D905D906D907C901797D9014D925D921F
:104870006D927C921397BA016C5F7F4F9F012F5806
:10488000384FDA0114964D905D906D907C9017979B
:10489000D9014D925D926D927C921397AB014C5F62
:1048A0005F4F9F012B58384FDB0114964D905D9060
:1048B0006D907C901797D9014D925D926D927C928C
:1048C0001397EB57F84FDA0114964D905D906D9069
:1048D0007C9017974082518262827382FA013896E7
:1048E000FE8FED8F0DA11EA1025D1F4FC20114149A
:1048F00015040CF0C3C0880F991F880F991F0E94E0
:1049000067019C018DA19EA1C296ADA1BEA1D396C7
:104910003C932E93D297232B09F427C122243324CE
:1049200021011A8E198E18A70FA39AA789A7D496CA
:10493000BCA7ABA788C0E9A5FAA50190F081E02D3E
:10494000298D3A8DE20FF31FFC8FEB8FDE01199654
:10495000ED8DFE8D80E101900D928150E1F7AF8DDC
:10496000B8A11496ED91FC91159720813181D90160
:104970001696ED91FC91179789859A8553E0880FDB
:10498000991F5A95E1F7A281B381A80FB91F6D90C5
:104990007C9011978D899E89880F991FF90122813A
:1049A0003381280F391FF9014081518114968D916F
:1049B0009C911597892B19F481E090E002C082E068
:1049C00090E02D8D3E8D205F3F4F3E8F2D8F849F39
:1049D0007001859FF00C949FF00C11240027F7FCC8
:1049E0000095102F29893A894B895C89C801B70144
:1049F0000E9426364B015C016B012D853E854F855B
:104A00005889C801B7010E942636660E771EAB8D05
:104A1000BC8D11967C926E9213969C928E921297F8
:104A2000EBA5FCA580819181C80ED91ED182C082E0
:104A30000894211C311C411C511C298D3A8D2C5F7E
:104A40003F4F3A8F298FEFA1F8A580819181A281F4
:104A5000B381281639064A065B060CF46CCFADA16B
:104A6000BEA1D4968D919C91D5970E946701EDA12E
:104A7000FEA197AB86AB009709F477C0AD8DBE8DD4
:104A80002C9111963C91119712964C911297139676
:104A90005C912D833E834F835887C901DA01AC01B5
:104AA000BD01411551056105710539F0A0E0B0E087
:104AB000423051056105710511F4A1E0B0E029A172
:104AC0003AA184E490E0289FF001299FF00D389FDF
:104AD000F00D1124E95AF84FB3A3A2A315A214A212
:104AE00041505040604070404230510561057105B1
:104AF00020F481E090E095A384A384E490E0E9A110
:104B0000FAA1E89F9001E99F300DF89F300D112424
:104B1000A9014358584FED8DFE8D84819581A68162
:104B2000B781FA0180839183A283B383F901E95AA3
:104B3000F84F268D378D40A151A157FF10C088270F
:104B40009927DC01821B930BA40BB50B82AF93AFAB
:104B5000A4AFB5AF168E178E10A211A204C012AE6C
:104B600013AE14AE15AE80E007C069A17AA18BA187
:104B70009CA10E948F2381E0AC960FB6F894DEBF13
:104B80000FBECDBFCF91DF911F910F91FF90EF909E
:104B9000DF90CF90BF90AF909F908F907F906F905D
:104BA0005F904F903F902F900895CF93DF939B019C
:104BB000AC0184E490E0289FF001299FF00D389F1C
:104BC000F00D1124E95AF84FD901AB59BC4F8C9123
:104BD000882331F084E4EF0119928A95E9F71C9259
:104BE0001482158216821782118610861386128609
:104BF000118A108A17861686CA01B9010E948F236E
:104C0000DF91CF9108952F923F924F925F926F92D2
:104C10007F928F929F92AF92BF92CF92DF92EF924C
:104C2000FF920F931F93DF93CF9300D00F92CDB7D6
:104C3000DEB73B014C015A83498384E490E0689ECF
:104C40007001699EF00C789EF00C112487E597E0C6
:104C5000E80EF91EF70184819581A681B78100973E
:104C6000A105B10509F486C0AA24BB24650144242A
:104C7000552435C0E40DF51D32802380232D322DBF
:104C8000C9019C838B8300E010E017C0AB81BC811D
:104C9000ED91FC91309751F0848195810E94110231
:104CA000EB81FC81808191810E9411020F5F1F4F77
:104CB0008B819C8102969C838B83A981BA810A1780
:104CC0001B0724F3832D922D0E9411020894A11C2E
:104CD000B11CC11CD11CE4E0F0E04E0E5F1ED701F8
:104CE00014962D913D914D915C9117971896ED91E9
:104CF000FC911997A216B306C406D5060CF4BACFD8
:104D0000CF010E941102F70182859385892BF1F072
:104D100000E010E0CC24DD240CC0EC0DFD1D8481EE
:104D200095810E9411020F5F1F4F8EE090E0C80E28
:104D3000D91ED7011A96ED91FC911B9789819A8112
:104D40000817190754F3CF010E941102D70150969A
:104D50008D919C9151970E941102F701868597854C
:104D60000E941102C401B3010E948F23C401B30148
:104D70000E94D5250F900F900F900F90CF91DF914B
:104D80001F910F91FF90EF90DF90CF90BF90AF9069
:104D90009F908F907F906F905F904F903F902F905B
:104DA000089524E430E0629FF001639FF00D729F4C
:104DB000F00D1124E95AF84F138A128A0E94032633
:104DC00008954F925F926F927F928F929F92AF92CF
:104DD000BF92CF92DF92EF92FF920F931F93DF93D8
:104DE000CF9300D00F92CDB7DEB75C0149835A83D1
:104DF0006B837C83290184E490E0489F8001499F74
:104E0000100D589F100D1124095A184FF80182896E
:104E100093890497029708F0B4C0F50111821082BB
:104E200013821282F8011586148688249924662438
:104E3000772460C0F80142855385460D571DFA015D
:104E400080819181892B09F04EC0C084D184E28099
:104E5000F38066817781F801848595859C01A3E0C4
:104E6000220F331FAA95E1F7A089B189A20FB31FC2
:104E7000880F991F26853785280F391FF9019182E0
:104E80008082F8018485958501969587848713969D
:104E9000DC92CE921297FA0173876287C616D70604
:104EA00070F46C197D0911967C936E9315961C9283
:104EB0001E92149717961C921E92169714C0FA0110
:104EC00084819581E80EF91EEC18FD081196FC927C
:104ED000EE92681B790B15967C936E931497179638
:104EE0009C938E9316970894811C911C8EE090E001
:104EF000680E791E841495040CF49CCFF801848507
:104F00009585F50191838083F80120893189F50128
:104F100033832283F80126853785F5013583248381
:104F2000892BB9F5F80182899389059791F510923B
:104F30005607828D938DA48DB58DAE014F5F5F4F67
:104F40008F5F9F4FAF4FBF4F71F480E290E064E0FE
:104F500070E00E946E1669817A818B819C81A2012A
:104F60000E94D12616C08FE190E064E070E00E94BC
:104F70006E16F80113A612A681E090E0938B828B47
:104F800008C0F80115861486F5011182108213827B
:104F900012820F900F900F900F90CF91DF911F9181
:104FA0000F91FF90EF90DF90CF90BF90AF909F90C8
:104FB0008F907F906F905F904F9008952F923F92C7
:104FC0004F925F926F927F928F929F92AF92BF9219
:104FD000CF92DF92EF92FF920F931F93DF93CF93C5
:104FE000CDB7DEB7E6970FB6F894DEBF0FBECDBFE4
:104FF00098AB8FA77AAB69AB7A010BAB1CAB2DAB2F
:105000003EAB84E490E04BA95CA9489F9001499F86
:10501000300D589F300D1124295A384F3AA729A72F
:105020008BA99CA9ADA9BEA9F90180839183A28314
:10503000B383BC01CD0149A95AA90E940326D70117
:105040002D913D914D915C91C901E9A5FAA524836B
:1050500035834683578364E070E00E944B01A9A525
:10506000BAA519969C938E931897009709F04FC193
:1050700004C2E9A5FAA50084F185E02D298D3A8DB9
:10508000E20FF31FFEA7EDA70BA51CA5F801819168
:105090009191A191B1918F019C018D839E83AF83EA
:1050A000B887220F331FAFA5B8A9ED91FC91E20F8D
:1050B000F31F80819181EDA5FEA591838083EBA5EF
:1050C000FCA584819581A681B78189839A83AB836E
:1050D000BC8389A99AA962E070E00E944B01ADA54A
:1050E000BEA513969C938E931297009709F4C5C1A1
:1050F000F8013496FCA7EBA71F8E18A219A21AA2DA
:10510000F7C0EBA5FCA580819181A281B3819C01B0
:105110008D839E83AF83B887220F331FADA5BEA5B5
:1051200012960D911C911397020F131F81E090E0CE
:1051300068E070E00E944B01F801808391838D81CB
:105140009E81880F991FADA5BEA51296ED91FC9189
:105150001397E80FF91F608071806114710409F4DE
:105160008CC10BA51CA50C5F1F4FEBA5FCA52481D2
:10517000358146815781C901D3012D933D934D93CC
:105180005C93139764E070E00E944B01F3019583F8
:105190008483009709F471C198012C5F3F4F3CA7AD
:1051A0002BA72224332421011CA21BA28AC0D301D5
:1051B00014960D90BC91A02DEBA1FCA1AE0FBF1FCA
:1051C000BEA3ADA3DE011996EBA5FCA580E101907D
:1051D0000D928150E1F7AFA5B8A91496ED91FC911D
:1051E000159720813181D9011696ED91FC91179781
:1051F00089859A8553E0880F991F5A95E1F7A28116
:10520000B381A80FB91FED91FC911197F8A7EFA3F7
:105210008D899E89880F991FF90122813381280F7A
:10522000391FF9014081518114968D919C911597F8
:10523000892B19F481E090E002C082E090E02BA578
:105240003CA5205F3F4F3CA72BA7849F7001859F03
:10525000F00C949FF00C11240027F7FC0095102F00
:1052600029893A894B895C89C801B7010E94263691
:105270005B016C012D853E854F855889C801B701BA
:105280000E9426364FA158A5460F571FADA1BEA1BB
:1052900011965C934E931396BC92AE921297F301C3
:1052A000868197818A0D9B1D978386830894211C94
:1052B000311C411C511C2BA13CA12C5F3F4F3CA336
:1052C0002BA3F30180819181A281B3812816390635
:1052D0004A065B060CF46BCF2F8D38A149A15AA169
:1052E0002F5F3F4F4F4F5F4F2F8F38A349A35AA3D4
:1052F00089819A81AB81BC812F8D38A149A15AA1A6
:10530000281739074A075B070CF4FBCED8C0A70162
:105310004C5F5F4F5CA74BA71B8E1C8E1D8E1E8E95
:105320001A8E198EE9A5FAA584819581A681B78187
:105330002B8D3C8D4D8D5E8D281739074A075B07F5
:105340000CF497CE89A99AA96EE070E00E944B01F7
:10535000A9A5BAA51A968C931A971B969C934424D8
:105360005524222433246624772401E0C02ED12C36
:105370005BC0EBA5FCA580819181A281B3819C01DA
:1053800089839A83AB83BC83A9A5BAA51A964D914C
:105390005C911B97790137FD70C08A01060D171DBE
:1053A000F801D182C0822115310559F0C9010E944E
:1053B0006701D80115969C938E931497009721F45A
:1053C0005CC0F801158214822BA53CA52C5F3F4FD1
:1053D0003CA72BA7D8011396FC92EE921297149635
:1053E0008D919C91159717969C938E93169719966D
:1053F0009C938E9318971B961C921E921A9720E0EE
:1054000030E089819A81AB81BC810097A105B1050B
:1054100011F021E030E0420E531E0894211C311C93
:10542000EEE0F0E06E0E7F1E29A93AA9221633069F
:105430000CF49FCFA9A5BAA51D961C921E921C978D
:10544000C20113E0880F991F1A95E1F70E946701C6
:10545000E9A5FAA5918B808B009779F0C201880F9E
:10546000991F0E946701A9A5BAA51F969C938E93C8
:105470001E97009711F080E009C06BA97CA98DA947
:105480009EA949A95AA90E94032681E0E6960FB673
:10549000F894DEBF0FBECDBFCF91DF911F910F916A
:1054A000FF90EF90DF90CF90BF90AF909F908F9044
:1054B0007F906F905F904F903F902F9008952B8D2D
:1054C0003C8D4D8D5E8D2F5F3F4F4F4F5F4F2B8F2C
:1054D0003C8F4D8F5E8F498D5A8D4C5F5F4F5A8F39
:1054E000498F20CF2F923F924F925F926F927F927F
:1054F0008F929F92AF92BF92CF92DF92EF92FF92E4
:105500000F931F93DF93CF93CDB7DEB72F970FB6CF
:10551000F894DEBF0FBECDBF7C016B01DB0111969D
:105520008C91882309F4E6C11A821B821C821D8299
:1055300019828EE7F7018083818383E085878687E0
:10554000108A1786128A118AD70153961D921D92CE
:105550001D921C92569757961C9237010894611C15
:10556000711C32E0432E512C4E0C5F1C23E0822E26
:10557000912C8E0C9F1C9DE0A92EB12CAE0CBF1C53
:10558000FE013A96FF87EE8781E0282E312CC60176
:10559000BE016F5F7F4F21E030E040E050E08E01C0
:1055A0000E5F1F4F0E94E731882309F0A4C18A8152
:1055B0009B81AC81BD810197A105B10551F0D70157
:1055C00050961C921E921F9752961C921E925197B3
:1055D00091C1F701878590890297039708F587891C
:1055E0009981882329F0178AF0E29F27998318C0B0
:1055F0009D3729F09E3741F0933091F408C0E1E0E7
:10560000D7015796EC93C3CFD7019C932BC0D701FA
:1056100052961C921E92519750961C921E921F9762
:10562000F701878590898230910509F446C083305F
:10563000910534F4009781F0019709F0A8CF27C0B5
:105640008430910509F4D6C0843091050CF463C010
:10565000059709F09CCF12C189818E3709F097CF49
:10566000D7018C9352967C926E92519753968D915E
:105670009D910D90BC91A02D0196A11DB11DF7012A
:10568000838B948BA58BB68B308A278680CF8981BC
:105690008E3709F02AC1D7015196ED91FC915297AE
:1056A0008083F701138A148A158A168A82E090E0B3
:1056B000908B8787528A418A6ACFF70183899489C0
:1056C000A589B6890097A105B10509F00EC18981A8
:1056D0000188F289E02D8193D7015296FC93EE93D5
:1056E000519753968D919D910D90BC91A02D01964F
:1056F000A11DB11DF701838B948BA58BB68B0197F0
:10570000A105B10509F043CF83E090E0908B878736
:10571000928A818AABC0F70183899489A589B68969
:105720000497A105B10508F0E0C089810188F289DC
:10573000E02D8193D7015296FC93EE9351975396A7
:105740008D919D910D90BC91A02D0196A11DB11D33
:10575000F701838B948BA58BB68B0497A105B105BC
:1057600009F015CFD6012C911A861B861C861D8642
:10577000F40180819181A281B3818E839F83A88768
:10578000B987222389F4DE011696FE013D968D919C
:10579000808331978E859F85A817B907C1F78A85C1
:1057A0009B85AC85BD8504C08E819F81A885B98508
:1057B000F70183839483A583B683138A148A158A99
:1057C000168A0097A105B10549F084E090E0908B1E
:1057D000878787819085928B818BD9CEE5E0F0E039
:1057E000D7015096FC93EE931F975296BC92AE92BF
:1057F0005197CDCED70153962D913D914D915C910E
:10580000569713968D919D910D90BC91A02D2817C0
:1058100039074A075B0708F068C08981D7015196AC
:10582000ED91FC91529781935296FC93EE93519790
:1058300053968D919D910D90BC91A02D0196A11D27
:10584000B11DF701838B948BA58BB68B238134819B
:105850004581568182179307A407B50709F097CEB3
:1058600085E090E0908B8787B28AA18AD701539612
:105870001D921D921D921C92569789CEF701838925
:105880009489A589B6890297A105B10570F589812A
:10589000833059F50188F289E02D8193D701529622
:1058A000FC93EE93519753968D919D910D90BC91E1
:1058B000A02D0196A11DB11DF701838B948BA58BA3
:1058C000B68B0297A105B10509F061CE86E090E0A4
:1058D000908B8787128A118AD70153961D921D9249
:1058E0001D921C92569780E006C0F701128A118A19
:1058F000108A178681E02F960FB6F894DEBF0FBE90
:10590000CDBFCF91DF911F910F91FF90EF90DF906E
:10591000CF90BF90AF909F908F907F906F905F904F
:105920004F903F902F9008956F927F928F929F9209
:10593000AF92BF92CF92DF92EF92FF920F931F939D
:10594000DF93CF93CDB7DEB760970FB6F894DEBF85
:105950000FBECDBF6C015B01DB0111968C918823DA
:1059600009F4D4C08EE7F6018083818383E08587C4
:105970008687108A1786128A118AD60153961D923D
:105980001D921D921C92569757961C92CB01B60100
:1059900022E030E040E050E00E949032882309F09D
:1059A000B5C0F60182818E3729F0833019F08D372A
:1059B00009F0C1C08DE78987D60112968C9190E2DB
:1059C00089278A8722E030E040E050E0C501BE012F
:1059D000675F7F4F0E949032882309F097C0F501DE
:1059E0002081F60183819481A581B6818D839E8378
:1059F000AF83B8872223A9F4FE013896DE01119601
:105A00009E012C5F3F4F80818D933197E217F30702
:105A1000D1F789819A81AB81BC818D839E83AF83CD
:105A2000B887BE016B5F7F4FDE01199624E030E03E
:105A300040E050E0EDE7FE2E90E28E01085F1F4F40
:105A4000FB0180818E3729F0833019F08D3709F002
:105A500078C0FD01F192892711968C93DF01119690
:105A60002F5F3F4F4F4F5F4F6017710719F06F5F08
:105A70007F4FE6CF69E0862E912C8C0E9D1EC501CE
:105A8000B4010E949032882309F040C0EE24FF2424
:105A900087015DE7652E40E2742E22C0D60117967D
:105AA000ED91FC911897EE0DFF1D80818E3729F046
:105AB000833019F08D3709F046C0698680818725CB
:105AC0008A8722E030E040E050E0C501B4010E9446
:105AD00090328823D9F40894E11CF11C011D111D9A
