:100000000C941C010C9405080C9436080C94670899
:100010000C9498080C94C9080C94FA080C942B09B9
:100020000C945C090C9449010C9449010C9449010D
:100030000C9449010C9449010C9449010C94490118
:100040000C9449010C9449010C9449010C94490108
:100050000C9449010C9449010C9449010C948D09AC
:100060000C9449010C9482020C947E030C94490177
:100070000C9449010C9449010C9449010C944901D8
:100080000C9449010C9449010C9449010C944901C8
:100090000C94C1020C94BD030C9449010C94CB1038
:1000A0000C9449010C9449010C9449010C944901A8
:1000B0000C9449010C9449010C9449010C94490198
:1000C0000C9449010C9449010C946D0F0C9400039D
:1000D0000C94FC030C9449010C943F030C943B04D6
:1000E0000C944901084AD73B3BCE016E84BCBFFD4E
:1000F000C12F3D6C74319ABD56833DDA3D00C77FF8
:1001000011BED9E4BB4C3E916BAAAABE0000008090
:100110003F00002100240027002A002D003000337A
:100120000001010000040107010A0100002200256E
:100130000028002B002E00310034000201000005D1
:100140000108010B01000020002300260029002CDB
:10015000002F003200000100000301060109010523
:10016000050505070508080808020202020A0A0830
:100170000804040404010101010101010103030356
:100180000303030303040707070C0C0C0C0C0C0CF3
:100190000C0202020206060606060606060B0B0BFA
:1001A0000B0B0B0B0B010210202008081020401035
:1001B000204080020102010804020101020408102B
:1001C0002040808040201008040201800402018049
:1001D0004020100804020108040201010204081072
:1001E00020408001020408102040800000090A021B
:1001F000080B0C0D070603040100000000000000BE
:1002000000000000000000000000000000000000EE
:100210000000000000000011100F000000000000AE
:1002200000000000000000000000000000000000CE
:100230000000AB05E1066F1311241FBECFEFD1E222
:10024000DEBFCDBF00E00CBF13E0A0E0B2E0E4E809
:10025000FEE600E00BBF02C007900D92A63CB1077E
:10026000D9F71BBE18E0A6ECB3E001C01D92A23C7A
:10027000B107E1F712E0C8E3D2E004C02297FE0123
:100280000E943C37C233D107C9F70E94A40E0C94D8
:1002900040370C9400000F931F93CF93DF93689F18
:1002A0008001699F100D789F100D1124C8010E94D4
:1002B0006701EC01009729F060E070E0A8010E945E
:1002C0007202CE01DF91CF911F910F910895CF93CC
:1002D000DF93BC018230910510F462E070E0A091E0
:1002E000C008B091C108ED01E0E0F0E040E050E06E
:1002F00021C0888199818617970769F48A819B813B
:10030000309719F09383828304C09093C10880933F
:10031000C008FE0134C06817790738F4411551054B
:1003200019F08417950708F4AC01FE018A819B81BE
:100330009C01E9012097E9F641155105A9F1CA018F
:10034000861B970B049708F4BA01E0E0F0E02AC09E
:100350008D919C91119784179507F9F4641775078F
:1003600081F412968D919C911397309719F0938395
:10037000828304C09093C1088093C008FD01329627
:100380004CC0CA01861B970BFD01E80FF91F619352
:10039000719302978D939C9340C0FD01828193815C
:1003A0009C01D9011097A1F68091BE089091BF08D9
:1003B000892B41F48091FF02909100039093BF0834
:1003C0008093BE08409101035091020341155105ED
:1003D00041F44DB75EB78091FD029091FE02481B3B
:1003E000590B2091BE083091BF08CA01821B930BA4
:1003F0008617970780F0AB014E5F5F4F8417950714
:1004000050F0420F531F5093BF084093BE08F901AC
:100410006193719302C0E0E0F0E0CF01DF91CF91F2
:100420000895CF93DF93009709F450C0EC01229711
:100430001B821A82A091C008B091C108109709F1DF
:1004400040E050E0AC17BD0708F1BB83AA83FE0172
:1004500021913191E20FF31FAE17BF0779F48D910F
:100460009C911197280F391F2E5F3F4F39832883A6
:1004700012968D919C9113979B838A834115510508
:1004800071F4D093C108C093C00820C012968D911A
:100490009C911397AD01009711F0DC01D3CFFA01C5
:1004A000D383C28321913191E20FF31FCE17DF076F
:1004B00069F488819981280F391F2E5F3F4FFA0117
:1004C000318320838A819B8193838283DF91CF91C3
:1004D0000895FB01DC0102C001900D924150504093
:1004E000D8F70895DC0101C06D9341505040E0F70A
:1004F0000895FB01DC018D91019080190110D9F361
:10050000990B08951F920F920FB60F920BB60F9290
:1005100011242F933F934F938F939F93EF93FF93C8
:100520008091C00082FD1DC04091C600209106044C
:10053000309107042F5F3F4F2F7330708091080474
:10054000909109042817390771F0E0910604F091A1
:100550000704EA53FC4F40833093070420930604BA
:1005600002C08091C600FF91EF919F918F914F91B2
:100570003F912F910F900BBE0F900FBE0F901F90C9
:1005800018951F920F920FB60F920BB60F9211246F
:100590002F933F934F938F939F93EF93FF9380916C
:1005A000C80082FD1DC04091CE0020918E04309184
:1005B0008F042F5F3F4F2F73307080919004909184
:1005C00091042817390771F0E0918E04F0918F049F
:1005D000E25BFB4F408330938F0420938E0402C074
:1005E0008091CE00FF91EF919F918F914F913F911C
:1005F0002F910F900BBE0F900FBE0F901F9018956C
:100600001F920F920FB60F920BB60F9211242F93D9
:100610003F934F938F939F93EF93FF938091D000DD
:1006200082FD1DC04091D60020911605309117051E
:100630002F5F3F4F2F7330708091180590911905EF
:100640002817390771F0E0911605F0911705EA5265
:10065000FB4F4083309317052093160502C080910D
:10066000D600FF91EF919F918F914F913F912F91E4
:100670000F900BBE0F900FBE0F901F9018951F92FA
:100680000F920FB60F920BB60F9211242F933F9338
:100690004F938F939F93EF93FF938091300182FD4F
:1006A0001DC04091360120919E0530919F052F5F1E
:1006B0003F4F2F7330708091A0059091A1052817AE
:1006C000390771F0E0919E05F0919F05E25AFA4FCB
:1006D000408330939F0520939E0502C08091360190
:1006E000FF91EF919F918F914F913F912F910F909B
:1006F0000BBE0F900FBE0F901F9018951F920F9278
:100700000FB60F920BB60F9211242F933F938F9336
:100710009F93EF93FF9320914A0430914B04809173
:100720004C0490914D042817390731F48091C10091
:100730008F7D8093C10014C0E0914C04F0914D0472
:10074000E65FFB4F208180914C0490914D0401960F
:100750008F73907090934D0480934C042093C60047
:10076000FF91EF919F918F913F912F910F900BBE31
:100770000F900FBE0F901F9018951F920F920FB6FB
:100780000F920BB60F9211242F933F938F939F9349
:10079000EF93FF932091D2043091D3048091D4043D
:1007A0009091D5042817390731F48091C9008F7DC5
:1007B0008093C90014C0E091D404F091D504EE56A2
:1007C000FB4F20818091D4049091D50401968F73C2
:1007D00090709093D5048093D4042093CE00FF9121
:1007E000EF919F918F913F912F910F900BBE0F90A2
:1007F0000FBE0F901F9018951F920F920FB60F9279
:100800000BB60F9211242F933F938F939F93EF93E7
:10081000FF9320915A0530915B0580915C05909182
:100820005D052817390731F48091D1008F7D8093C1
:10083000D10014C0E0915C05F0915D05E65EFA4FD1
:10084000208180915C0590915D0501968F73907079
:1008500090935D0580935C052093D600FF91EF9106
:100860009F918F913F912F910F900BBE0F900FBED4
:100870000F901F9018951F920F920FB60F920BB604
:100880000F9211242F933F938F939F93EF93FF9396
:100890002091E2053091E3058091E4059091E50512
:1008A0002817390731F4809131018F7D8093310110
:1008B00014C0E091E405F091E505EE55FA4F208172
:1008C0008091E4059091E50501968F739070909367
:1008D000E5058093E40520933601FF91EF919F9108
:1008E0008F913F912F910F900BBE0F900FBE0F90E5
:1008F0001F901895AF92BF92DF92EF92FF920F93E5
:100900001F93CF93DF93EC017A018B01DD244030FC
:1009100081EE580780E0680780E0780711F0DD2459
:10092000D39491E0A92EB12CEC89FD89DD2069F0EA
:10093000C50108A002C0880F991F0A94E2F78083BE
:1009400060E079E08DE390E005C0108260E874E833
:100950008EE190E0A80197010E94183721503040A5
:1009600040405040569547953795279580E1203077
:10097000380720F0DD2011F0DD24D6CFE889F98991
:100980003083EA89FB89208319A2EE89FF8940819F
:1009900021E030E0C9010C8C02C0880F991F0A9435
:1009A000E2F7482B4083EE89FF894081C9010D8C15
:1009B00002C0880F991F0A94E2F7482B4083EE8902
:1009C000FF894081C9010E8C02C0880F991F0A94CB
:1009D000E2F7482B4083EE89FF8980810F8C02C0AB
:1009E000220F331F0A94E2F7209528232083DF91FA
:1009F000CF911F910F91FF90EF90DF90BF90AF903C
:100A00000895DC011C96ED91FC911D97E05CFF4F71
:100A10002191319180819181281B390B2F73307086
:100A2000C9010895DC011C96ED91FC911D97E05CD5
:100A3000FF4F20813181E054F040DF01AE5BBF4FBA
:100A40008D919C9111972817390719F42FEF3FEFDB
:100A500007C08D919C91E80FF91F8081282F30E00D
:100A6000C9010895DC011C96ED91FC911D97E05C95
:100A7000FF4F20813181E054F040DF01AE5BBF4F7A
:100A80008D919C9111972817390719F42FEF3FEF9B
:100A900010C08D919C911197E80FF91F20818D91C5
:100AA0009C91119701968F73907011969C938E93E1
:100AB00030E0C9010895DC0191968C9191978823CB
:100AC00039F05496ED91FC915597808186FFF9CFCE
:100AD00091961C920895CF93DF93EC01EE85FF85EC
:100AE000E05CFF4F20813181E054F0402F5F3F4FA9
:100AF0002F733070DF01AE5BBF4F8D919C911197CA
:100B000028173907D1F3E05CFF4F80819181E054D1
:100B1000F040E80FF91F6083EE85FF85E05CFF4F32
:100B200031832083EE89FF89208181E090E00F8C62
:100B300002C0880F991F0A94E2F7282B208381E0D6
:100B400089A3EC89FD8980818064808381E090E0C5
:100B5000DF91CF9108951F931092E9051092E80557
:100B600028EE33E040E050E02093EA053093EB05B7
:100B70004093EC055093ED0561EA73E07093E7054F
:100B80006093E60586EC93E09093F3058093F2057D
:100B90008AE094E09093F5058093F40585EC90E06D
:100BA0009093F7058093F60584EC90E09093F90517
:100BB0008093F80580EC90E09093FB058093FA0514
:100BC00081EC90E09093FD058093FC0582EC90E031
:100BD0009093FF058093FE0586EC90E090930106CC
:100BE0008093000614E010930206B3E0B09303066E
:100BF000A7E0A0930406F5E0F0930506E1E0E0939A
:100C0000060610920B0610920A0620930C063093EB
:100C10000D0640930E0650930F06709309066093DD
:100C200008068EE494E0909315068093140682E9FA
:100C300094E090931706809316068DEC90E09093C5
:100C40001906809318068CEC90E090931B06809315
:100C50001A0688EC90E090931D0680931C0689ECA0
:100C600090E090931F0680931E068AEC90E090938C
:100C70002106809320068EEC90E0909323068093CB
:100C8000220610932406B0932506A0932606F0931F
:100C90002706E093280610922D0610922C0620932A
:100CA0002E0630932F0640933006509331067093F2
:100CB0002B0660932A0686ED94E090933706809386
:100CC00036068AE195E0909339068093380685EDE3
:100CD00090E090933B0680933A0684ED90E09093E9
:100CE0003D0680933C0680ED90E090933F06809314
:100CF0003E0681ED90E0909341068093400682EDA0
:100D000090E0909343068093420686ED90E09093A6
:100D100045068093440610934606B0934706A09379
:100D20004806F0934906E0934A0610924F06109247
:100D30004E0620935006309351064093520650932E
:100D4000530670934D0660934C068EE595E09093A4
:100D500059068093580682EA95E090935B0680934B
:100D60005A0685E391E090935D0680935C0684E3E8
:100D700091E090935F0680935E0680E391E090930C
:100D800061068093600681E391E09093630680930F
:100D9000620682E391E0909365068093640686E3A1
:100DA00091E0909367068093660610936806B0936F
:100DB0006906A0936A06F0936B06E0936C061F9198
:100DC000089581EB93E090936F0680936E061092E6
:100DD00070061092710610927206109273060895B2
:100DE0008F929F92AF92BF92CF92DF92EF92FF923B
:100DF0000F931F93CF93DF934C016B017C01AA24C7
:100E0000BB24C0E0D0E0C601F70162814AE050E0B7
:100E10000E94F3078C01C6016EE20E945C07080F76
:100E2000191FA00EB11E21960894E11CF11CC330BD
:100E3000D10549F7C601F40165814AE050E00E94FE
:100E4000F3079501280F391FC901DF91CF911F9139
:100E50000F91FF90EF90DF90CF90BF90AF909F9059
:100E60008F900895CF92DF92EF92FF920F931F938E
:100E7000CF93DF937C016B018A01C0E0D0E00FC00B
:100E8000D6016D916D01D701ED91FC910190F0813A
:100E9000E02DC7011995C80FD91F01501040011549
:100EA000110571F7CE01DF91CF911F910F91FF9046
:100EB000EF90DF90CF900895DC01ED91FC910190CF
:100EC000F081E02D19950895CF93DF93EC01611522
:100ED000710519F420E030E00FC0DB010D90002017
:100EE000E9F71197A61BB70BE881F9810280F3811E
:100EF000E02DAD0119959C01C901DF91CF910895B5
:100F00004F925F927F928F929F92AF92BF92CF92B9
:100F1000DF92EF92FF920F931F93DF93CF93CDB7A2
:100F2000DEB7A1970FB6F894DEBF0FBECDBF2C0180
:100F3000742ECB01223008F42AE019A231E2C32E2C
:100F4000D12CCC0EDD1E822E9924AA24BB24672D21
:100F5000752FA50194010E94183779018A01C801F3
:100F6000B701A50194010E94F936472D461B08944C
:100F7000C108D1084A3014F4405D01C0495CF60153
:100F80004083E114F1040105110521F07E2C5F2D51
:100F9000C801DDCFC201B6010E946407A1960FB659
:100FA000F894DEBF0FBECDBFCF91DF911F910F919F
:100FB000FF90EF90DF90CF90BF90AF909F908F9079
:100FC0007F905F904F900895DC012115310541F429
:100FD000ED91FC910190F081E02D642F1995089519
:100FE0000E9480070895EF92FF920F931F939A013A
:100FF000E62EFF2400E010E0B801A7010E94E407FC
:101000001F910F91FF90EF9008951F920F920FB6CE
:101010000F920BB60F9211242F933F934F935F9330
:101020006F937F938F939F93AF93BF93EF93FF93B0
:101030008091780690917906892B29F0E0917806C5
:10104000F09179061995FF91EF91BF91AF919F9122
:101050008F917F916F915F914F913F912F910F9061
:101060000BBE0F900FBE0F901F9018951F920F92FE
:101070000FB60F920BB60F9211242F933F934F93FD
:101080005F936F937F938F939F93AF93BF93EF93F0
:10109000FF9380917A0690917B06892B29F0E0914D
:1010A0007A06F0917B061995FF91EF91BF91AF9170
:1010B0009F918F917F916F915F914F913F912F9170
:1010C0000F900BBE0F900FBE0F901F9018951F92A0
:1010D0000F920FB60F920BB60F9211242F933F93DE
:1010E0004F935F936F937F938F939F93AF93BF9330
:1010F000EF93FF9380917C0690917D06892B29F0D8
:10110000E0917C06F0917D061995FF91EF91BF91DA
:10111000AF919F918F917F916F915F914F913F918F
:101120002F910F900BBE0F900FBE0F901F90189530
:101130001F920F920FB60F920BB60F9211242F939E
:101140003F934F935F936F937F938F939F93AF934F
:10115000BF93EF93FF9380917E0690917F06892B3A
:1011600029F0E0917E06F0917F061995FF91EF91AD
:10117000BF91AF919F918F917F916F915F914F91AF
:101180003F912F910F900BBE0F900FBE0F901F90AD
:1011900018951F920F920FB60F920BB60F92112453
:1011A0002F933F934F935F936F937F938F939F936F
:1011B000AF93BF93EF93FF93809174069091750660
:1011C000892B29F0E0917406F09175061995FF912D
:1011D000EF91BF91AF919F918F917F916F915F91AF
:1011E0004F913F912F910F900BBE0F900FBE0F901C
:1011F0001F9018951F920F920FB60F920BB60F9279
:1012000011242F933F934F935F936F937F938F930B
:101210009F93AF93BF93EF93FF9380917606909146
:101220007706892B29F0E0917606F09177061995DB
:10123000FF91EF91BF91AF919F918F917F916F91AE
:101240005F914F913F912F910F900BBE0F900FBE6A
:101250000F901F9018951F920F920FB60F920BB61A
:101260000F9211242F933F934F935F936F937F932C
:101270008F939F93AF93BF93EF93FF9380918006DB
:1012800090918106892B29F0E0918006F0918106EA
:101290001995FF91EF91BF91AF919F918F917F91A0
:1012A0006F915F914F913F912F910F900BBE0F90D7
:1012B0000FBE0F901F9018951F920F920FB60F92AE
:1012C0000BB60F9211242F933F934F935F936F931D
:1012D0007F938F939F93AF93BF93EF93FF938091EF
:1012E000820690918306892B29F0E0918206F09185
:1012F00083061995FF91EF91BF91AF919F918F91C7
:101300007F916F915F914F913F912F910F900BBE05
:101310000F900FBE0F901F9018951F920F920FB64F
:101320000F9211242F933F938F939F93AF93BF936B
:101330008091880690918906A0918A06B0918B06CB
:1013400030918C060196A11DB11D232F2D5F2D37E5
:1013500020F02D570196A11DB11D20938C0680937E
:10136000880690938906A0938A06B0938B06809195
:10137000840690918506A0918606B0918706019615
:10138000A11DB11D8093840690938506A0938606C7
:10139000B0938706BF91AF919F918F913F912F910D
:1013A0000F900FBE0F901F9018958FB7F894209153
:1013B00088063091890640918A0650918B068FBF2E
:1013C000B901CA0108959B01AC017FB7F8948091DF
:1013D000840690918506A0918606B091870666B531
:1013E000A89B05C06F3F19F00196A11DB11D7FBFDD
:1013F000BA2FA92F982F8827860F911DA11DB11DE7
:1014000062E0880F991FAA1FBB1F6A95D1F7BC0124
:101410002DC0FFB7F8948091840690918506A09125
:101420008606B0918706E6B5A89B05C0EF3F19F088
:101430000196A11DB11DFFBFBA2FA92F982F882794
:101440008E0F911DA11DB11DE2E0880F991FAA1FEB
:10145000BB1FEA95D1F7861B970B885E9340C8F2B5
:10146000215030404040504068517C4F211531059B
:101470004105510571F60895789484B5826084BD64
:1014800084B5816084BD85B5826085BD85B5816088
:1014900085BDEEE6F0E0808181608083E1E8F0E0E8
:1014A0001082808182608083808181608083E0E817
:1014B000F0E0808181608083E1EBF0E080818460F6
:1014C0008083E0EBF0E0808181608083E1E9F0E0FF
:1014D000808182608083808181608083E0E9F0E0A8
:1014E000808181608083E1EAF0E080818260808396
:1014F000808181608083E0EAF0E080818160808388
:10150000E1E2F1E08081826080838081816080837C
:10151000E0E2F1E0808181608083EAE7F0E08081B1
:101520008460808380818260808380818160808309
:101530008081806880831092C1000895893009F409
:1015400049C08A30A0F4843051F1853040F48230B3
:1015500079F1833000F5813009F063C026C087300F
:1015600079F1883098F5863009F05BC025C08D3060
:1015700009F442C08E3028F48B30B1F18C30C0F5C4
:101580002DC0803109F442C0813109F445C08F304B
:1015900009F047C037C0809180008F7703C08091E9
:1015A00080008F7D80938000089584B58F7702C07E
:1015B00084B58F7D84BD08958091B0008F7703C07E
:1015C0008091B0008F7D8093B0000895809190004D
:1015D0008F7707C0809190008F7D03C0809190002D
:1015E000877F8093900008958091A0008F7707C037
:1015F0008091A0008F7D03C08091A000877F8093A1
:10160000A0000895809120018F7703C08091200170
:101610008F7D80932001089580912001877F8093A2
:1016200020010895FF920F931F93F62E482F50E04C
:10163000CA0185519E4FFC012491CA018B559E4FD2
:10164000FC011491415A5E4FFA0104910023C9F044
:10165000222319F0822F0E949E0AE02FF0E0EE0F65
:10166000FF1FE55DFE4FA591B4919FB7F894FF2051
:1016700021F48C911095812302C08C91812B8C9345
:101680009FBF1F910F91FF90089580E090E0089513
:10169000EF92FF920F931F93CF93DF93162F072F95
:1016A0007A01E9011982188286EE95E00E9401050F
:1016B000892BD1F0812F902F9C01890110C086EEDB
:1016C00095E00E9432052FEF8F3F920741F0F8011D
:1016D00081938F018881998101969983888388817C
:1016E00099818E159F0558F380E090E0DF91CF91AE
:1016F0001F910F91FF90EF900895EF92FF920F933B
:101700001F938A01790186EE95E00E943207F70166
:101710001183008380E090E01F910F91FF90EF9084
:1017200008950E943C0A86EE95E040E052EC61E0AC
:1017300070E00E947A0404C086EE95E00E943205B3
:1017400086EE95E00E940105892BB1F780E090E0DC
:101750000895089584E090E00E94EF0FE1E7F8E03B
:1017600087E2DF011D928A95E9F780E090E0A0E82A
:10177000BFEB8093930890939408A0939508B0933F
:1017800096088DEC9CECACE4BEE380938F089093BC
:101790009008A0939108B093920884ED9AEAA6EE7F
:1017A000BCEC8093750890937608A0937708B0936B
:1017B000780886EA96E9ABE3B0EF809379089093D6
:1017C0007A08A0937B08B0937C088AE595EFAAE29B
:1017D000BBEF80937D0890937E08A0937F08B09321
:1017E000800882EF97E4A1E9B4EC8093810890939C
:1017F0008208A0938308B093840881EA96E09093CE
:101800007408809373088FE996E09093A206809302
:10181000A10685EB93E09093A00680939F067496B3
:10182000F093A606E093A5067097F093A406E093C4
:10183000A3067296F093A806E093A7068CE1E5E56F
:10184000F8E0DF011D928A95E9F78EE0E8E9F8E01B
:10185000DF011D928A95E9F7EDE8F6E082E1DF010C
:101860001D928A95E9F7F0938608E09385088EE04B
:1018700090E090938E0680938D0683E093E09093A2
:10188000900680938F068FE193E090939206809369
:1018900091068BE393E090939406809393068FE3F5
:1018A00093E09093960680939506809177039091AC
:1018B0007803A0917903B0917A038093980890936C
:1018C0009908A0939A08B0939B0880E090E0A0E06C
:1018D000B0E080939C0890939D08A0939E08B093DD
:1018E0009F088091870390918803A0918903B0910C
:1018F0008A038093A0089093A108A093A208B093B4
:10190000A3080895AF92BF92CF92DF92EF92FF9219
:101910000F931F936091730370917403809175030B
:101920009091760320915D0830915E0840915F08A8
:10193000509160080E9493369B01AC016091980819
:101940007091990880919A0890919B080E947F3429
:10195000609398087093990880939A0890939B08D5
:1019600085E698E067E678E049E658E02BE638E05F
:101970000DE618E0FFE6EF2EF8E0FF2EECE9CE2EA4
:10198000E8E0DE2E0E945C1680916108909162086A
:10199000A0916308B09164088093A0089093A10877
:1019A000A093A208B093A308A0909308B0909408C5
:1019B000C0909508D0909608C601B50120E030E0AF
:1019C00040E85FEB0E944535882331F1E0908708BD
:1019D000F09088080091890810918A08C601B50125
:1019E000A80197010E947E345B016C01C801B70118
:1019F00020E030E040E054E30E9493369B01AC01CC
:101A0000C601B5010E948836181634F080E092E0D5
:101A1000909372088093710880919708882331F021
:101A200080E092E0909372088093710860918B0837
:101A300070918C0880918D0890918E086F5F7F4F18
:101A40008F4F9F4F60938B0870938C0880938D0805
:101A500090938E080E94B13520918F0830919008A4
:101A600040919108509192080E94933660938708A4
:101A7000709388088093890890938A081F910F912A
:101A8000FF90EF90DF90CF90BF90AF900895AF920E
:101A9000BF92CF92DF92EF92FF920F931F93CF935B
:101AA000DF937B018C0159016A010E94E40F8823B6
:101AB00031F4C601B5010E94E40F882349F060911A
:101AC000B2087091B3088091B4089091B50872C0C3
:101AD000C801B7010E94B90F8823C9F1C601B50139
:101AE0000E94B90F882399F1C801B70120E030E0C6
:101AF00040E050E00E94883618161CF00FEF1FEFF0
:101B000002C001E010E0C601B50120E030E040E095
:101B100050E00E94883618161CF0CFEFDFEF02C0AD
:101B2000C1E0D0E0B801882777FD8095982F0E940A
:101B3000B3357B018C01BE01882777FD8095982FF6
:101B40000E94B3359B01AC01C801B70131C0C60189
:101B5000B50120E030E040E050E00E9445358823A8
:101B600019F5C801B70120E030E040E050E00E94E4
:101B7000883618162CF46BED7FE089EC9FE31AC0D1
:101B8000C801B70120E030E040E050E00E94453558
:101B900087FD05C060E070E080E090E00BC06BED79
:101BA0007FE089EC9FEB06C0C801B701A601950153
:101BB0000E94F234DF91CF911F910F91FF90EF902F
:101BC000DF90CF90BF90AF900895AF92BF92CF9229
:101BD000DF92EF92FF920F931F9365E578E080917B
:101BE000980890919908A0919A08B0919B088093C9
:101BF000550890935608A0935708B0935808AB0126
:101C00004C5E5F4F9B012A5E3F4F8B01085E1F4F6A
:101C1000FB017A96CB0140966E5E7F4F7F01ACE967
:101C2000CA2EA8E0DA2E0E940F1560916D087091FF
:101C30006E08882777FD8095982F0E94B3357B0129
:101C40008C0160916F0870917008882777FD8095EE
:101C5000982F0E94B3359B01AC01C801B7010E94C7
:101C6000470D5B016C016093590870935A0880938B
:101C70005B0890935C0860916508709166088827FE
:101C800077FD8095982F0E94B33520917B0330918A
:101C90007C0340917D0350917E030E947E3420910D
:101CA0007F033091800340918103509182030E9411
:101CB000933660935D0870935E0880935F089093FD
:101CC00060082091830330918403409185035091F3
:101CD00086030E9493362091A0083091A10840917C
:101CE000A2085091A3080E947F3420918B03309169
:101CF0008C0340918D0350918E030E9493367B019B
:101D00008C01C601B50120918F0330919003409161
:101D10009103509192030E9493369B01AC01C8013C
:101D2000B7010E947F3460936108709362088093CA
:101D30006308909364081F910F91FF90EF90DF90DC
:101D4000CF90BF90AF900895DF92EF92FF920F93E4
:101D50001F93DF93CF930F92CDB7DEB70E943C0A5B
:101D600080E090E060E070E00E94A31D0E94AA0B5A
:101D70000091B3031091B403C80182960E94A11D83
:101D800081E090E00E94AD1D1982F801828193816B
:101D900061E070E0AE014F5F5F4F0E94CC1D898112
:101DA000882319F081E0F80186A30E94A21D8BEC24
:101DB00093EF9093250180932401809173008E7F8F
:101DC00080937300809120018C7F8093200180910B
:101DD0002101877E8093210180912101856080937C
:101DE0002101809121018D7F8093210180917300D9
:101DF0008160809373007E010894E11CF11CDD2456
:101E0000D39410C01982F8018281938161E070E05F
:101E1000A7010E94B91D8981882311F0F801D6A27B
:101E20000E94B31DF80180819181892B19F486A14C
:101E3000882341F381E090E00E94AA1D68EE73E0E0
:101E400080E090E00E94E3090E94A90BF89480E0F2
:101E500090E00F90CF91DF911F910F91FF90EF9045
:101E6000DF9008952091AF062F5F2093AF06215099
:101E700049F081E090E09093AE068093AD06209308
:101E8000AF06089578940E94E50D81E090E00E94ED
:101E9000B01DE091B303F091B40346895789608D7A
:101EA000718D80E090E00E94B61D0E94820CF89433
:101EB0002091AF0621502093AF069091B006992350
:101EC00059F08091B006882339F47894F8949150B1
:101ED0009093B0062093AF0608951F920F920FB60D
:101EE0000F920BB60F9211242F933F934F935F9352
:101EF0006F937F938F939F93AF93BF93EF93FF93D2
:101F00008BEC93EF90932501809324010E94320F74
:101F1000FF91EF91BF91AF919F918F917F916F91C1
:101F20005F914F913F912F910F900BBE0F900FBE7D
:101F30000F901F90189560E070E080E89FE708958B
:101F400060E070E080E89FE7089560E070E080E87E
:101F50009FEF089560E070E080E89FEF089560E0F3
:101F600070E080EC9FEF089560E070E080EC9FEF00
:101F70000895DF92EF92FF920F931F937B018C01E4
:101F80002091AE083091AF084091B0085091B1084F
:101F90000E944535882379F0DD24C801B7012091DE
:101FA000B6083091B7084091B8085091B9080E941E
:101FB0004535882311F4DD24D3948D2D1F910F9185
:101FC000FF90EF90DF9008951F939B01AC0110E00C
:101FD0000E944535811111E0812F1F9108950E94C3
:101FE000AF0F6093B2087093B3088093B4089093D6
:101FF000B5080E94B40F6093A6087093A708809359
:10200000A8089093A9080E949B0F6093AE08709354
:10201000AF088093B0089093B1080E94A00F60931E
:10202000AA087093AB088093AC089093AD080E9407
:10203000A50F6093B6087093B7088093B808909383
:10204000B9080E94AA0F6093BA087093BB088093E6
:10205000BC089093BD080895382F413210F040E03D
:1020600042C0809137078823E1F791E090933707CA
:10207000209335078FEF8093380710921307415054
:10208000409314074F5F9093120780911207330F0C
:10209000832B8093120780913607813041F4109290
:1020A0003607809112078093BB0085EC01C085EE56
:1020B0008093BC00809137078130E1F38091130752
:1020C000841710F44091130720E030E00AC0FB01B0
:1020D000E20FF31FD901AB5EB84F8C9180832F5F65
:1020E0003F4F2417A0F3842F08950F931F93582F69
:1020F000122F413210F081E045C0809137078823CC
:10210000E1F782E080933707009335078FEF8093E4
:1021100038071092130740931407A5E1B7E0FB01BD
:1021200002C081918D938E2F861B8417D0F310925D
:10213000120780911207550F852B8093120780910B
:102140003607813041F41092360780911207809350
:10215000BB0085EC01C085EE8093BC001123A9F083
:1021600080913707823089F4FBCF80913807803225
:1021700011F482E007C080913807803311F084E0C9
:1021800001C083E01F910F910895809138078F3F20
:1021900061F780E0F7CF1F920F920FB60F920BB648
:1021A0000F9211242F933F934F935F936F937F93DD
:1021B0008F939F93AF93BF93EF93FF938091B90059
:1021C00090E0887F90708036910509F4F2C08136E6
:1021D0009105CCF58832910509F47BC089329105CF
:1021E000B4F48031910509F46FC0813191053CF45C
:1021F000009709F447C1089709F04FC165C08831BD
:10220000910509F466C0809709F047C182C0803407
:10221000910509F4A4C08134910544F480339105FB
:1022200009F482C0C89709F038C189C0803591058A
:1022300009F489C08835910509F496C08834910560
:1022400009F02BC1AEC08839910509F413C1893951
:102250009105ECF48837910509F4ABC089379105F5
:102260004CF48836910509F4A4C08037910509F033
:1022700014C19FC08838910509F4FCC080399105CC
:1022800009F49DC08038910509F007C198C0803BD2
:10229000910509F4C6C0813B91054CF4803A910543
:1022A00009F49FC0883A910509F0F7C0BAC0803C94
:1022B000910509F4E3C0883C910509F4DFC0883B2F
:1022C000910509F0EAC0C2C0809112078093BB005B
:1022D000CFC09091130780911407981768F49091DC
:1022E0001307E92FF0E0EB5EF84F80818093BB008D
:1022F0009F5F90931307BCC080913507882309F432
:102300004BC085ED8093BC008091BC0084FDFCCF68
:10231000C2C080E28093380785ED8093BC00809135
:10232000BC0084FDFCCFB7C080E38093380785ED07
:102330008093BC008091BC0084FDFCCFACC088E3DE
:10234000809338079BC0809113079091BB00E82FC2
:10235000F0E0EB5EF84F90838F5F809313079091CE
:1023600013078091140782C0809113079091BB00DE
:10237000E82FF0E0EB5EF84F90838F5F80931307B8
:1023800080913507882341F085ED8093BC008091D2
:10239000BC0084FDFCCF7FC081E08093360784EAD7
:1023A0006EC085ED8093BC008091BC0084FDFCCFA5
:1023B00072C083E0809337071092390759C080912B
:1023C0003907803208F056C0809139079091BB00E0
:1023D000E82FF0E0E65CF84F90838F5F8093390739
:1023E00047C080913907803230F4E0913907F0E03E
:1023F000E65CF84F108285ED8093BC008091BC00B4
:1024000084FDFCCF1092370760913907E0915A079D
:10241000F0915B078AE397E070E019951092390715
:102420002DC084E08093370710925C0710925D07FF
:10243000E0915E07F0915F07199580915D07882311
:1024400029F481E080935D071092600790915C070A
:10245000E92FF0E0E05AF84F80818093BB009F5F46
:1024600090935C0790915C0780915D07981710F43A
:1024700085EC01C085E88093BC000FC085EC80939B
:10248000BC0009C01092380785ED8093BC00809194
:10249000BC0084FDFCCF10923707FF91EF91BF91F4
:1024A000AF919F918F917F916F915F914F913F91EC
:1024B0002F910F900BBE0F900FBE0F901F9018958D
:1024C000413208F040E2862F61EB76E00E942C104A
:1024D0001092D1068093D206089521E00E946012E6
:1024E00008950F93062F8091D30664ED76E0409116
:1024F000F50621E00E9475101092F4061092F50680
:102500001092F6060F91089561E00E9471120895ED
:10251000DF93CF930F92CDB7DEB7FC016983809133
:10252000F6068823C9F08091F506803238F081E004
:1025300090E09383828320E030E01AC08091F4061B
:10254000E82FF0E0EC52F94F998190838F5F8093F0
:10255000F4068093F5060AC080913707843031F481
:1025600081E080935D0789818093600721E030E0FE
:10257000C9010F90CF91DF910895CF92DF92EF9232
:10258000FF920F931F93CF93DF936C018B017A011E
:102590008091F6068823A1F0C0E0D0E00DC0D601FE
:1025A000ED91FC91D801AC0FBD1F0190F081E02DA1
:1025B000C6016C9119952196CE15DF0580F313C0E5
:1025C000413288F480913707843069F4E0925D07E6
:1025D000562FA0E6B7E0FB0102C081918D938E2FAC
:1025E000851B8417D0F3C701DF91CF911F910F9105
:1025F000FF90EF90DF90CF9008952091D20630E0C9
:102600008091D106281B3109C90108954091D10656
:102610008091D206481718F02FEF3FEF0AC0E42F41
:10262000F0E0EF54F94F8081282F30E04F5F409366
:10263000D106C9010895E091D1068091D206E8172C
:1026400018F0EFEFFFEF06C0F0E0EF54F94F808194
:10265000E82FF0E0CF0108950895FF920F931F93A4
:10266000CF93DF93F42E122F032F91E09093F60671
:102670008093D3061092F4061092F50687EF96E049
:102680000E948812212F302FC901EC0110E006C0F2
:1026900087EF96E069910E9488121F5F1F15C0F3B3
:1026A00087EF96E00E94841290E0882309F491E07D
:1026B000892FDF91CF911F910F91FF900895DF93A4
:1026C000CF930F92CDB7DEB7498341E09E012F5FD4
:1026D0003F4F0E942D130F90CF91DF9108951092DC
:1026E000FA061092F90688EE93E0A0E0B0E080933D
:1026F000FB069093FC06A093FD06B093FE068AEBC2
:1027000093E09093F8068093F70688E6809303079A
:1027100008952F923F924F925F926F927F928F9285
:102720009F92AF92BF92CF92DF92EF92FF920F9360
:102730001F93DF93CF9300D00F920F92CDB7DEB7E8
:10274000882E6983942E3B832A830E94D5095B01DE
:102750006C01FF24EE24292C3324280166247724DD
:1027600061C021E02093F6068092D3061092F40611
:102770001092F50687EF96E069810E94881287EF34
:1027800096E00E94841231E03093F6068092D306E0
:102790001092F4061092F506A1014E19510941322A
:1027A000510514F040E250E087EF96E0682D0E945A
:1027B0006D128F2D992787FD9095EA81FB818E0FF1
:1027C0009F1F9D838C830FC0E92FF0E0EF54F94FDA
:1027D0008081282F9F5F9093D106EC81FD8121930A
:1027E000FD83EC83F3949091D2068091D1069817E3
:1027F00009F450C00115110561F00E94D5096A194C
:102800007B098C099D09641575058605970508F0F7
:1028100041C09091D1068091D2069817A8F22FEF6F
:102820003FEFDBCFE91408F49CCF01151105C9F087
:102830000E94D5096A197B098C099D09980140E01D
:1028400050E0621773078407950758F02F2D332740
:1028500027FD3095892D90E02817390714F4FF24BF
:10286000FA948F2D0F900F900F900F900F90CF91A3
:10287000DF911F910F91FF90EF90DF90CF90BF906D
:10288000AF909F908F907F906F905F904F903F9010
:102890002F90089587EF96E00E948412892DF0E230
:1028A000F91508F480E2E80EBDCFEF92FF920F9386
:1028B0001F937C019C012F5F3F4F00919503109166
:1028C0009603FC01808167E442E00E948913F701CE
:1028D000918180E0228130E0282B392BC9011F91A2
:1028E0000F91FF90EF900895EF92FF920F931F9337
:1028F0007C019C012F5F3F4F00919503109196033F
:10290000FC01808165E442E00E948913F701918116
:1029100080E0228130E0282B392BC9011F910F91D3
:10292000FF90EF900895EF92FF920F931F937C0119
:102930009C012F5F3F4F0091950310919603FC017E
:10294000808163E442E00E948913F701918180E075
:10295000228130E0282B392BC9011F910F91FF9064
:10296000EF900895EF92FF920F931F937C019C01CB
:102970002F5F3F4F0091950310919603FC018081DA
:102980006FE342E00E948913F701918180E0228188
:1029900030E0282B392BC9011F910F91FF90EF9048
:1029A0000895EF92FF920F931F937C019C012F5F7C
:1029B0003F4F0091950310919603FC0180816DE3D8
:1029C00042E00E948913F701918180E0228130E08A
:1029D000282B392BC9011F910F91FF90EF9008957B
:1029E000EF92FF920F931F937C019C012F5F3F4F4B
:1029F0000091950310919603FC0180816BE342E006
:102A00000E948913F701918180E0228130E0282B18
:102A1000392BC9011F910F91FF90EF9008956F928C
:102A20007F928F929F92AF92BF92CF92DF92EF925E
:102A3000FF920F931F93CF93DF93EC015B014A0149
:102A40003901F601608171818281938120E030E05B
:102A500040E85FE30E944535882349F583E097E02D
:102A60000E9493149983888383E097E00E947414F2
:102A7000F5019183808383E097E00E945514F4016F
:102A80009183808383E097E00E94F014F3019183A7
:102A9000808383E097E00E94D114F80191838083C2
:102AA00083E097E00E94B214F70191838083DF9165
:102AB000CF911F910F91FF90EF90DF90CF90BF903B
:102AC000AF909F908F907F906F9008950F931F937A
:102AD000FA01890141E09F010E9489131F910F9122
:102AE0000895DF92EF92FF920F931F93DF93CF939E
:102AF0000F92CDB7DEB7E82ED62EF42E122F2091EE
:102B0000950330919603AE014F5F5F4F0E946615AB
:102B1000882341F1212F30E04F2D50E04F5F5F4F70
:102B2000421B530B81E090E002C0880F991F1A9559
:102B3000E2F70197042E02C0880F991F0A94E2F76A
:102B4000202F30E002C0220F331F4A95E2F7482FB2
:102B50004095598145238223482B49838E2D6D2D25
:102B60000E945F130F90CF91DF911F910F91FF9003
:102B7000EF90DF9008950F93FC01062F80816BE6A4
:102B800042E023E00E9471150F9108950F93FC011C
:102B9000062F80816CE144E022E00E9471150F91C4
:102BA00008950F93FC01062F80816BE144E022E041
:102BB0000E9471150F910895EF92FF920F931F934A
:102BC000DF93CF930F92CDB7DEB7F82EE62E042F0A
:102BD000122F2091950330919603AE014F5F5F4F06
:102BE0000E9466152981112351F081E090E002C016
:102BF000880F991F0A95E2F7422F482B0AC081E0FF
:102C000090E002C0880F991F0A95E2F7482F40957F
:102C1000422349838F2D6E2D0E945F130F90CF9119
:102C2000DF911F910F91FF90EF900895FC01262FE7
:102C300080816BE646E00E94DC1508950F931F9398
:102C40008C0161E00E94BB15C80160E00E94D115B3
:102C5000C80160E00E94C615C80160E00E94161617
:102C60001F910F9108951092370781E080933507E7
:102C70001092360784E161E00E94120B85E161E069
:102C80000E94120BE9EBF0E080818E7F80838081CF
:102C90008D7F808388E48093B80085E48093BC00B6
:102CA00008951092D1061092D2061092F406109256
:102CB000F5060E9433160895CF92DF92CF93DF93EB
:102CC000E601688179818A819B8120E030E040E8DB
:102CD0005FE30E944535882381F087EF96E00E94EC
:102CE000511683E097E00E941E1680E090E0A0E875
:102CF000BFE388839983AA83BB83DF91CF91DF9061
:102D0000CF900895AF92BF92CF92DF92EF92FF9251
:102D10000F931F935C016A017B0100E010E020E04B
:102D200030E00E94DC1FC501B701A60101E010E000
:102D300020E030E00E94DC1F1F910F91FF90EF9088
:102D4000DF90CF90BF90AF90089560E070E080E09A
:102D500090E00E94B41F61E070E080E090E00E948B
:102D6000B41F08950F931F938C0160E070E080E022
:102D700090E0A8010E944B1F61E070E080E090E0CD
:102D8000A8010E944B1F1F910F910895CF92DF92CF
:102D9000EF92FF920F931F93DF93CF9300D00F9288
:102DA000CDB7DEB77C0180918707909188078E159B
:102DB0009F050CF58091850790918607009731F06B
:102DC0000E9411021092880710928707C7010E9483
:102DD00067019093860780938507009741F400E090
:102DE00010E083E0C82ED12CCC0EDD1E1CC0F0926A
:102DF0008807E092870700E010E06E010894C11C8C
:102E0000D11C27C0809183079091840761E070E016
:102E1000A60129E837E00E947C30882311F58B81D8
:102E20009C81080F191F0E151F0564F31AC0B70106
:102E3000601B710B200F311F8091830790918407D5
:102E4000A6010E947C30882361F489819A81080F51
:102E5000191F20918507309186070E151F053CF339
:102E600002C020E030E0C9010F900F900F900F904A
:102E7000CF91DF911F910F91FF90EF90DF90CF9056
:102E80000895AF92BF92CF92DF92FF920F931F935C
:102E9000DF93CF93CDB7DEB72A970FB6F894DEBF96
:102EA0000FBECDBF8B016A01A0E0B0E08B839C8395
:102EB000AD83BE83CB01AA2797FDA095BA2F8F8340
:102EC0009887A987BA87809183079091840768E0E3
:102ED00070E0AE014D5F5F4F5E010894A11CB11C14
:102EE00095010E94772FF82E8823B9F489819A8161
:102EF000089799F4C114D10491F0809183079091BF
:102F00008407B801A60195010E94772F882329F430
:102F100089819A818017910711F0FF24F3948F2DF6
:102F20002A960FB6F894DEBF0FBECDBFCF91DF91CA
:102F30001F910F91FF90DF90CF90BF90AF900895B9
:102F4000AF92BF92CF92DF92EF92FF920F931F93B7
:102F5000DF93CF93CDB7DEB72C970FB6F894DEBFD3
:102F60000FBECDBF7C016B01CA0159010E94C6167C
:102F7000FC010097D1F481E090E0A0E0B0E08D8307
:102F80009E83AF83B8878FEF9FEFAFEFBFEF898747
:102F90009A87AB87BC87C70168E070E0AE014B5FE2
:102FA0005F4F0E94411711E04FC0008111812281C3
:102FB000338109831A832B833C838BE1E816F10468
:102FC00061F08CE1E816F10451F53496C601BF01B9
:102FD000A90198010E94BD2406C03496C601B5011E
:102FE000AF010E94B128182F8823C9F029813A81A6
:102FF0004B815C8181E090E0A0E0B0E08D839E8316
:10300000AF83B88729873A874B875C87C70168E019
:1030100070E0AE014B5F5F4F0E94411715C0898180
:103020009A81AB81BC811D821E821F82188689878E
:103030009A87AB87BC87C70168E070E0AE014B5F41
:103040005F4F0E944117182F812F2C960FB6F894CE
:10305000DEBF0FBECDBFCF91DF911F910F91FF90CB
:10306000EF90DF90CF90BF90AF900895EF92FF92D6
:103070000F931F93DF93CF93CDB7DEB72C970FB687
:10308000F894DEBF0FBECDBF8C01CB017A010E9448
:10309000C616FC010097D1F481E090E0A0E0B0E01A
:1030A0008D839E83AF83B8878FEF9FEFAFEFBFEF26
:1030B00089879A87AB87BC87C80168E070E0AE015A
:1030C0004B5F5F4F0E94411781E028C06081718192
:1030D0008281938169837A838B839C830D3111056F
:1030E00031F00E31110531F40E94721E03C0A701A8
:1030F0000E94251E89819A81AB81BC811D821E821E
:103100001F82188689879A87AB87BC87C80168E0C9
:1031100070E0AE014B5F5F4F0E9441172C960FB6D7
:10312000F894DEBF0FBECDBFCF91DF911F910F91FD
:10313000FF90EF9008950F931F938C0110928207D8
:103140001092810760E070E080E090E0A8010E94AA
:10315000A42761E070E080E090E0A8010E94A4272D
:1031600080918307909184070E94962E1F910F9162
:103170000895CF92DF92EF92FF920F931F936B010E
:103180007C0189019A018091830790918407B7019E
:10319000A6010E94952E1F910F91FF90EF90DF9056
:1031A000CF9008951F9380918307909184070E9488
:1031B0007C2E182F882361F460E070E080E090E0BE
:1031C0000E94A82661E070E080E090E00E94A826BE
:1031D000812F1F9108952F923F924F925F926F928D
:1031E0007F928F929F92AF92BF92CF92DF92EF9297
:1031F000FF920F931F93DF93CF93CDB7DEB72A973C
:103200000FB6F894DEBF0FBECDBF5B016C012A0183
:1032100080918207882309F46FC08E010D5F1F4FD4
:10322000C801B601A50192010E94B4271E010894AD
:10323000211C311C09871A8752C00D811E81060D81
:10324000171DF801E080F18042815381809183074E
:1032500090918407B70191010E94772F882309F08C
:1032600048C089819A818E159F0509F042C0F801F6
:10327000E480F5801E141F048CF4468157818091F0
:10328000830790918407B70191010E94772F8823CB
:1032900081F589819A818E159F0559F5C401880FA2
:1032A000991FEF81F885E80FF91F80819181B601A0
:1032B000A5010E949E1E0894811C911C88E090E04C
:1032C000680E791E8B819C81881699060CF4B5CF07
:1032D00089859A85B601A50192010E94B4278B8148
:1032E0009C811816190644F48824992466247724AE
:1032F000E9CFC2010E949B182A960FB6F894DEBF50
:103300000FBECDBFCF91DF911F910F91FF90EF9036
:10331000DF90CF90BF90AF909F908F907F906F90F5
:103320005F904F903F902F9008951F93CF93DF931E
:10333000EC0160E070E080E090E00E94081E60E038
:1033400070E080E090E0AE010E94EB1860E070E079
:1033500080E090E0AE010E94D62680918507909192
:103360008607009731F00E94110210928607109292
:10337000850761E070E080E090E00E94081E61E057
:1033800070E080E090E0AE010E94EB1861E070E038
:1033900080E090E0AE010E94D62680918507909152
:1033A0008607009731F00E94110210928607109252
:1033B000850780918107882311F410E00BC084E118
:1033C00090E060E070E040E050E00E944117182F6C
:1033D0001092810780918207882341F01092820722
:1033E00081E090E090939A03809399038091830702
:1033F000909184070E949B3280918307909184076B
:103400000E94942E812FDF91CF911F9108952F92CA
:103410003F924F925F926F927F928F929F92AF9264
:10342000BF92CF92DF92EF92FF920F931F93DF93A1
:10343000CF93CDB7DEB7A0970FB6F894DEBF0FBE1F
:10344000CDBF6C017B012A0180918207882359F44A
:10345000809183079091840762E877E00E947E2E36
:10346000882309F012C380918207882309F40DC3D1
:103470001A82198200E010E058E0652E712C4BE0B2
:10348000842E912C8C0E9D1E5E010894A11CB11CF3
:10349000B301601B710B9401200F311F80918307D2
:1034A00090918407A5010E947C30282F882351F435
:1034B00089819A81080F191F0115110519F008302B
:1034C000110534F389819A81222309F0DBC2181691
:1034D00019060CF0DAC280918107882321F41B863B
:1034E0001C861D861E868B859C85AD85BE85863097
:1034F0009105A105B10509F468C087309105A105C2
:10350000B10510F582309105A105B10509F4BAC2E3
:1035100083309105A105B10558F40097A105B105C7
:1035200009F468C00197A105B10509F0AEC24BC20C
:1035300084309105A105B10509F458C10597A1058D
:10354000B10509F0A2C281C189309105A105B1057B
:1035500009F490C28A309105A105B10558F487306D
:103560009105A105B105D1F10897A105B10509F0B3
:103570008CC226C08B309105A105B10509F476C235
:103580008B309105A105B10508F463C20F97A10521
:10359000B10509F07AC2D6011696ED91FC91179704
:1035A00080819181A281B3818B839C83AD83BE8313
:1035B00085E190E064E070E0AE014D5F5F4F2DC1AA
:1035C0006F8578898DE190E059C24F8558898BE1EC
:1035D00090E0B601970107E913E009C04F855889CB
:1035E0008CE190E0B6012FEF3FEF08E913E00E9475
:1035F000A0174BC2D6011496ED91FC91159700814E
:103600001181F801F281FD8FD8011396BC91BE8F14
:10361000F801F081FB8FD8011196BC91BC8F30E18D
:10362000832E912CA12CB12C8B8A9C8AAD8ABE8AC8
:1036300088E090E0A0E0B0E08F8B988FA98FBA8FE0
:1036400023E1422E512C4C0E5D1E809183079091F8
:10365000840768E070E0A2013E010894611C711CBF
:1036600093010E94772F882309F0BAC089819A813B
:10367000089709F0B5C0F801E080F18088E090E09B
:10368000E80EF91EEE0CFF1CEE0CFF1CC7010E9499
:1036900067018F8F98A38C011C01009709F4A2C0C9
:1036A0008B8A9C8AAD8ABE8AC701AA2797FDA095FE
:1036B000BA2F8F8B988FA98FBA8F809183079091A3
:1036C000840768E070E0A20193010E94772F8823AD
:1036D00009F088C089819A81089709F083C04B8DD1
:1036E0005C8DD6011296ED91FC911397A080B1806C
:1036F000C280D380D801AD92BD92CD92DC92139757
:10370000A480B580C680D7801496AD92BD92CD922C
:10371000DC921797A084B184C284D3841896AD92AA
:10372000BD92CD92DC921B9784859585A685B78541
:10373000F80184879587A687B787D80150961D9290
:103740001D921D921C92539784E090E0A0E0B0E09F
:10375000848B958BA68BB78B8091990390919A035C
:10376000A0E0B0E0808F918FA28FB38FCA01AA270B
:1037700097FDA095BA2F848F958FA68FB78F2D8D2B
:103780003E8DC901BC012F8D38A1C901FC0120E08B
:1037900030E00CC0DB018D919D91BD01A0E0B0E057
:1037A000848F958FA68FB78F2F5F3F4F3496241746
:1037B000350784F38091830790918407B701A801AE
:1037C0009E012F5F3F4F0E94772F882359F48981F4
:1037D0009A818E159F0531F481E08093810702C0A4
:1037E00022243324C1010E9411024FC18F85988980
:1037F0000E94C616BC018E01095F1F4F009781F41D
:1038000081E090E0A0E0B0E08F839887A987BA8735
:1038100082E190E064E070E0A8010E94411735C1A8
:10382000C6010E94A3231F82188619861A8682E188
:1038300090E064E070E0A8010E944117882309F03D
:1038400024C181E08093800720C1D6011496ED91B8
:10385000FC9115970190F081E02DA084B184A11412
:10386000B10409F495C0D5016D907C90828093805D
:1038700000E010E060E070E040E050E021C0F501C1
:10388000A281B381A40FB51F1296ED91FC911397FD
:10389000EE0FFF1FE80DF91D2081318116968D91E5
:1038A0009C911797DC012A9FC0012B9F900D3A9F96
:1038B000900D1124080F191F6F5F7F4F485F5F4FF6
:1038C00066157705E4F283E190E0A0E0B0E08B8B31
:1038D0009C8BAD8BBE8BC801AA2797FDA095BA2FF4
:1038E0008F8B988FA98FBA8F8091830790918407CF
:1038F00068E070E0AE014D5E5F4F6E010894C11C40
:10390000D11C96010E94772F882309F0BEC08981BF
:103910009A81089709F0B9C0EE24FF2400E010E076
:10392000260132C0F501A281B381A00FB11F12960A
:10393000ED91FC911397EE0FFF1FE80DF91D20810B
:10394000318116968D919C911797289F6001299F30
:10395000D00C389FD00C11244D915C91809183073D
:1039600090918407B60192010E94772F882309F075
:103970008CC0085F1F4F89819A818C159D0509F0C5
:1039800084C00894E11CF11CE614F7045CF27DC0CD
:1039900083E190E0A0E0B0E08B8B9C8BAD8BBE8B85
:1039A0001F8A188E198E1A8E809183079091840732
:1039B00068E070E0AE014D5E5F4F9E012F5F3F4FAC
:1039C0000E94772F62C081E190E060E070E040E00B
:1039D00050E00E944117882309F057C060E070E072
:1039E00080E090E00E94081E80918C07882339F0C7
:1039F00060E070E080E090E0A7010E94EB1860E0DA
:103A000070E080E090E0A7010E94D62661E070E0BF
:103A100080E090E00E94081E80918C07882339F096
:103A200061E070E080E090E0A7010E94EB1861E0A7
:103A300070E080E090E0A7010E94D62610928207F5
:103A40001092810780918307909184070E948B2EAA
:103A50001CC081E090E090938B0780938A0786E1F9
:103A600090E060E070E040E050E0D7CE81E0D2012D
:103A70008C930BC06F8578898EE190E0A7010E943E
:103A8000361803C0C7010E949B18A0960FB6F89481
:103A9000DEBF0FBECDBFCF91DF911F910F91FF9081
:103AA000EF90DF90CF90BF90AF909F908F907F90DE
:103AB0006F905F904F903F902F9008950F931F93BA
:103AC0008C0160E070E080E090E0A8010E94EB18BB
:103AD00061E070E080E090E0A8010E94EB181F9187
:103AE0000F91089580918307909184070E948E2EF4
:103AF00008950F931F93CF93DF93EC018B010E94E6
:103B0000912E9093840780938307009719F4C7E957
:103B1000D2E007C0BE01A8010E941932EC01009753
:103B200051F080918307909184070E94942E109207
:103B3000840710928307CE01DF91CF911F910F91DF
:103B400008950895089580E090E060E070E00E949C
:103B5000791D08950E94951908950E94D21808951C
:103B60000E94B21608950E94A51608950E9482161A
:103B70000895CF93DF939C01EB018091990390917D
:103B80009A03049731F0C9010E94071ACE010E94DE
:103B90005E1DDF91CF910895EF92FF920F931F93D7
:103BA000CF93DF937C018B01EA010E94721D882371
:103BB00099F41BC060E070E080E090E028ED38EB05
:103BC00045E050E00E94B918C701B801AE010E945B
:103BD000071AC8010E945E1D80918A0790918B0789
:103BE000892B19F48881882329F380919903909176
:103BF0009A03049731F083E090E090939A038093C6
:103C00009903DF91CF911F910F91FF90EF9008954D
:103C100024E430E0629FF001639FF00D729FF00D8D
:103C20001124E357F84F828993890497029760F42F
:103C300085E090E0938B828B8FEF9FEFAFEFBFEF2C
:103C4000828F938FA48FB58F0895CF93DF9324E451
:103C500030E0629FD001639FB00D729FB00D1124C0
:103C6000A357B84F10928C079D961C921E929C975A
:103C700060E070E020E030E0C1E0D0E019C01A96CA
:103C8000ED91FC911B97E20FF31F8281938118162F
:103C9000190654F484819581978386839187808760
:103CA00013861286D183C0836F5F7F4F225F3F4FA1
:103CB0006417750724F39B961C921E929A97D996C7
:103CC0001C921E92D897FD01FE96108211821282DC
:103CD000138282E090E053969C938E935297DF91EB
:103CE000CF91089524E430E0629FF001639FF00DCE
:103CF000729FF00D1124E357F84F82899389813028
:103D00009105D8F08530910518F00597B1F40DC0F4
:103D10008FEF9FEFAFEFBFEF828F938FA48FB58FA1
:103D200085E090E0938B828B08958FEF9FEFAFEF4C
:103D3000BFEF828F938FA48FB58F089524E430E076
:103D4000429FF001439FF00D529FF00D1124E35765
:103D5000F84F9C01220F331FC90143E0880F991FC0
:103D60004A95E1F7821B930B0284F385E02DE80F5F
:103D7000F91F81E080938C078285938591878087E6
:103D8000208531858681978140E050E028173907EA
:103D900011F441E050E0518340830895EF92FF9287
:103DA0000F931F93CF93DF93DC01EA01F90114967F
:103DB000ED90FC90159712964D915C911397288188
:103DC000398118968D919C9119978217930730F03D
:103DD0008D919C911197892B09F43FC08701040FA5
:103DE000151FA801421B530B18968D919C91199792
:103DF0008E199F09840F951F861797070CF443C0EF
:103E0000260F371F888199812017310728F4718385
:103E10006083938382832EC0518340839383828304
:103E2000CB01841B950B95838483181619061CF00F
:103E300080E090E004C014968D919C911597978333
:103E4000868314968D919C91159724813581820FDC
:103E5000931F9983888380E017C018968D919C9159
:103E60001997821B930B861797076CF071836083F9
:103E70003383228315821482178216828881998166
:103E8000860F971FE6CF81E0DF91CF911F910F91B1
:103E9000FF90EF900895EF92FF920F931F93CF93AF
:103EA000DF937B018C01FA0184E490E0E89EE0015D
:103EB000E99ED00DF89ED00D1124C357D84F8A89A2
:103EC0009B89009709F449C00197C1F48AA59BA575
:103ED0002A8D3B8D4C8D5D8D01969BA78AA70197FE
:103EE000AA2797FDA095BA2F82179307A407B507B5
:103EF000A1F5C801B701AF010E94251E8A899B89DF
:103F0000039759F58AA59BA52E8D3F8D48A159A1F0
:103F100001969BA78AA70197AA2797FDA095BA2F7C
:103F200082179307A407B507C4F08EAD9FAD9BA77A
:103F30008AA784E090E09B8B8A8B8AAD9BADACAD69
:103F4000BDAD181619061A061B063CF4FE01EE5B01
:103F5000FF4F81E090E091838083DF91CF911F91AB
:103F60000F91FF90EF90089524E430E0629FF001FC
:103F7000639FF00D729FF00D1124E357F84F828973
:103F800093890097C1F00497B1F482A593A5019697
:103F900093A782A7AA2797FDA095BA2F26893789CC
:103FA000408D518D82179307A407B50721F485E052
:103FB00090E0938B828B08952F923F924F925F9265
:103FC0006F927F928F929F92AF92BF92CF92DF9229
:103FD000EF92FF920F931F93DF93CF93CDB7DEB78E
:103FE000CC54D0400FB6F894DEBF0FBECDBF27969D
:103FF0009FAF8EAF27974DA75EA76FA778AB2B9685
:104000000CAF1DAF2EAF3FAF2B9784E490E0299605
:104010002EAD3FAD2997289F4001299F900C389FD6
:10402000900C11244DE857E0840E951ED4011A9689
:104030000D90BC91A02D2596BFAFAEAF2597F40192
:1040400082899389029709F025C186A597A5A0A921
:10405000B1A90097A105B10529F484E090E0938B04
:10406000828B18C1D40154968D919C9155972796B7
:10407000EEADFFAD2797E817F90709F00BC1D6960B
:104080002D913C91D7973EAF2DAF1DAA1EAA1FAA16
:1040900018AE1CAA1BAACBC0D401D2964D905C903E
:1040A000D397EBA9FCA94E0E5F1ED20112960D907C
:1040B000BC91A02DBCAFABAFB695A795B695A79513
:1040C000BAAFA9AFF40180AD91AD892B09F489C0D5
:1040D000E6A0F7A000A511A56DAC7EACD2012D9095
:1040E0003C9021961FAE1EAE219771C0F40182A1B3
:1040F00093A1892B61F1D101AD90BD90CD90DC9061
:10410000C601B501A80197010E94883688235CF09A
:10411000F3016081718182819381A80197010E94DE
:10412000453587FD98C0C601B501A80197010E94D9
:104130008836181664F4D3016D917D918D919C9110
:10414000A80197010E944535882309F484C0F40131
:1041500084A195A1892B61F1D101AD90BD90CD9045
:10416000DC90C601B501A80197010E94453588235E
:104170005CF4F3016081718182819381A8019701D0
:104180000E94883687FF67C0C601B501A801970164
:104190000E944535882361F4D3016D917D918D9105
:1041A0009C91A80197010E94883618160CF453C000
:1041B0002196EEADFFAD219731962196FFAFEEAF80
:1041C000219724E030E0620E731E220E331E2196EA
:1041D0004EAD5FAD219789AD9AAD481759070CF4E4
:1041E00085CFD2016C9111967C918DAD9EAD4BAD7A
:1041F0005CAD0E946902E9ADFAADEE0FFF1FEE0F54
:10420000FF1F2DAD3EAD2E0F3F1F3EAF2DAF8DA931
:104210009EA9AFA9B8AD0196A11DB11D8DAB9EABF6
:10422000AFABB8AFABA9BCA91496BCABABABF401B8
:1042300086A597A5A0A9B1A92DA93EA94FA958ADBA
:10424000281739074A075B070CF426CF81E090E076
:1042500091AF80AF1FC0F401868D978DA0A1B1A151
:104260000097A105B10549F484E090E0938B828B1F
:1042700086AD97AD93A782A70DC083E090E0D401EF
:1042800053969C938E93529781E090E09B969C93DB
:104290008E939A97F401828993898230910571F403
:1042A00082AD93ADA4ADB5AD181619061A061B065E
:1042B0000CF02FC2A1E02A2E312C05C0049709F082
:1042C00028C22224332427968EAD9FAD2797880FCE
:1042D000991F7C01E3E0EE0CFF1CEA95E1F7E81A78
:1042E000F90A25962EAD3FAD2597E20EF31ED701B4
:1042F00012966D917C9113976115710519F480E008
:1043000090E0FAC1F701868197819A838983FE0143
:10431000799684E1DF011D928A95E9F72B962CAD01
:104320003DAD4EAD5FAD2B9729A73AA74BA75CA734
:104330002114310409F446C0F401FE962081318134
:1043400042815381F40182AD93ADA4ADB5AD281780
:1043500039074A075B07B1F5D70114964D915C9177
:104360001597640F751F1896ED91FC91199784812C
:104370009581A681B7819C018B839C83AD83BE838D
:10438000285F3F4FF70180859185820F931F9187AA
:10439000808780859185861B970B97FD04C0480F09
:1043A000591F518740873C832B83F401FE968081FF
:1043B0009181A281B3810197A109B1098083918381
:1043C000A283B383C70164E170E08E010F5F1F4FCA
:1043D000A8019E012F5E3F4F0E94CE1E90E00097E5
:1043E00009F08AC18D8D9E8DAF8DB8A10C96A11D4F
:1043F000B11D8D8F9E8FAF8FB8A3C70164E070E0B1
:10440000A8019E01275F3F4F0E94CE1E282F30E05B
:104410003AAB29AB232B09F06DC18D8D9E8DAF8DED
:10442000B8A10496A11DB11D8D8F9E8FAF8FB8A32B
:104430008E01035D1F4F49855A858B859C85B80188
:104440000E9469026F8578896115710551F029858F
:104450003A85200F311F4D855E85CB01B9010E9441
:1044600069021D821E821F82188627964EAD5FAD9F
:104470002797440F551F23965FAF4EAF2397CE016A
:1044800005962D969FAF8EAF2D97D4C0C901880F8A
:10449000991F880F991FF401A085B185A80FB91F36
:1044A000ED91FC911197E081EE2309F4B8C0E3305F
:1044B00009F4B5C01296ED91FC91139723962EAD99
:1044C0003FAD2397E20FF31F408051804114510408
:1044D00009F4A5C089A19AA1ABA1BCA10196A11D17
:1044E000B11D89A39AA3ABA3BCA3C70164E070E08C
:1044F000AE014F5F5F4F9E01275F3F4F0E94CE1E70
:1045000090E0009709F0F8C08D8D9E8DAF8DB8A119
:104510000496A11DB11D8D8F9E8FAF8FB8A34985C5
:104520005A858B859C852C966FAD2C972D967FADEB
:104530002D970E9469026F8578896115710571F068
:1045400029853A8545E050E04C0F5D1F240F351F4B
:104550004D855E85CB01B9010E946902AA24BB2466
:1045600065016624772450C0D20114960D911C91E8
:104570001597060D171DF80162817381C701AE0101
:104580004F5F5F4F9E01275F3F4F0E94CE1E90E01E
:10459000009709F0B1C0D80112962D913C91139764
:1045A000442737FD4095542F8D8D9E8DAF8DB8A13A
:1045B000820F931FA41FB51F8D8F9E8FAF8FB8A33F
:1045C000F8016081718149855A858B859C850E949F
:1045D00069026F8578896115710569F0D8012D919F
:1045E0003C9189859A85280F391F4D855E85CB01C1
:1045F000B9010E9469020894A11CB11CC11CD11C04
:10460000E4E0F0E06E0E7F1EF20180819181A281D4
:10461000B381A816B906CA06DB060CF4A5CF8D81B6
:104620009E81AF81B8850196A11DB11D8D839E83AA
:10463000AF83B8872D813E814F815885F4018481F5
:104640009581A681B781281739074A075B070CF4C3
:104650001DCF89A19AA1ABA1BCA10097A105B1056D
:1046600009F448C08AE190E0A0E0B0E0898F9A8F19
:10467000AB8FBC8F27962EAD3FAD2797C901AA27D8
:1046800097FDA095BA2F8DA39EA3AFA3B8A78E01C7
:10469000075E1F4F49895A898B899C89B8010E94FE
:1046A00069026F89788D6115710551F029893A8900
:1046B000200F311F4D895E89CB01B9010E9469022B
:1046C00089819A81D70117969C938E93169711969C
:1046D0001C921E922328E9F0F401FE9680819181BC
:1046E000A281B3810196A11DB11D80839183A28314
:1046F000B3830FC089A99AA9232859F4892B49F0BB
:1047000081E090E0F40195A784A785E090E0938B89
:10471000828BC45BDF4F0FB6F894DEBF0FBECDBFF8
:10472000CF91DF911F910F91FF90EF90DF90CF908D
:10473000BF90AF909F908F907F906F905F904F90C1
:104740003F902F9008952F923F924F925F926F92D9
:104750007F928F929F92AF92BF92CF92DF92EF9211
:10476000FF920F931F93DF93CF93CDB7DEB7689778
:104770000FB6F894DEBF0FBECDBFDC011496ED91ED
:10478000FC9115970190F081E02D80859185988F9F
:104790008F8BA281B381BE8BAD8BFB0181919191F7
:1047A000A191B19189839A83AB83BC8366247724DA
:1047B000430165C09E012B5F3F4FAF0180E1DA01ED
:1047C0000D90AD01D9010D929D018150C1F730E1ED
:1047D000432E512C4E0E5F1E8D819E8123E0880F4B
:1047E000991F2A95E1F7EF89F88DA281B381A80F6F
:1047F000B91F2D903C901197E989FA89EE0FFF1FA0
:104800008D899E89E80FF91F0190F081E02D1496A3
:104810008D919C911597892B19F481E090E002C04D
:1048200082E090E08E9F70018F9FF00C9E9FF00CB5
:1048300011240027F7FC0095102F2D853E854F850C
:104840005889C801B7010E94F9365B016C012985BE
:104850003A854B855C85C801B7010E94F936910104
:10486000260F371FC901B201A5010E946902F2019A
:10487000EA0DFB1D0894611C711C811C911C89812F
:104880009A81AB81BC81681679068A069B060CF476
:1048900091CF68960FB6F894DEBF0FBECDBFCF9113
:1048A000DF911F910F91FF90EF90DF90CF90BF901D
:1048B000AF909F908F907F906F905F904F903F90C0
:1048C0002F900895CF93DF9324E430E0629FE001BE
:1048D000639FD00D729FD00D1124C357D84F8AA962
:1048E0009BA9009721F00E9411021BAA1AAA8EA967
:1048F0009FA9009721F00E9411021FAA1EAA1B8ADD
:104900001A8A1E8A1F8A188E198E1A8E1B8E1C8E6A
:104910001D8E1E8E1F8E18A219A281E090E09BA30F
:104920008AA31DA21CA280E090E0A0E0B0E08EA3CC
:104930009FA3A8A7B9A71BA61AA61DA61CA61EA6BC
:104940001FA618AA19AA1BAA1AAA1DAA1CAA1FAA3E
:104950001EAA19AE18AE1AAE1BAE1CAE1DAEFE01DD
:10496000FE961082118212821382FE01EE5BFF4FCF
:1049700011821082DF91CF9108952F923F924F9232
:104980005F926F927F928F929F92AF92BF92CF92DF
:10499000DF92EF92FF920F931F93DF93CF93CDB7E8
:1049A000DEB7AC970FB6F894DEBF0FBECDBF98A3AD
:1049B0008F8F8B0129A33AA34BA35CA3FB018191A9
:1049C0009191A191B191AF01BC0189839A83AB838D
:1049D000BC8329A13AA184E490E0289FF001299F9B
:1049E000F00D389FF00D11249F012357384F3EA33F
:1049F0002DA3D90155967C936E9354979F012D5505
:104A0000384FD80114964D905D906D907C9017971B
:104A1000D9014D925D926D927C921397BA016C5FB1
:104A20007F4F9F012955384FDA0114964D905D90C4
:104A30006D907C901797D9014D925D926D927C920A
:104A40001397AB014C5F5F4F9F012555384FDB013A
:104A500014964D905D906D907C901797D9014D9272
:104A60005D926D927C921397E554F84FDA0114969B
:104A70004D905D906D907C9017974082518262823C
:104A80007382FA013896FE8FED8F0DA11EA1025D93
:104A90001F4FC201141415040CF0C3C0880F991FD6
:104AA000880F991F0E9467019C018DA19EA1C2964B
:104AB000ADA1BEA1D3963C932E93D297232B09F49C
:104AC00027C12224332421011A8E198E18A70FA37F
:104AD0009AA789A7D496BCA7ABA788C0E9A5FAA5D1
:104AE0000190F081E02D298D3A8DE20FF31FFC8FAC
:104AF000EB8FDE011996ED8DFE8D80E101900D9218
:104B00008150E1F7AF8DB8A11496ED91FC91159706
:104B100020813181D9011696ED91FC9117978985F5
:104B20009A8553E0880F991F5A95E1F7A281B381C6
:104B3000A80FB91F6D907C9011978D899E89880F61
:104B4000991FF90122813381280F391FF901408112
:104B5000518114968D919C911597892B19F481E0C0
:104B600090E002C082E090E02D8D3E8D205F3F4FAF
:104B70003E8F2D8F849F7001859FF00C949FF00CC9
:104B800011240027F7FC0095102F29893A894B89B9
:104B90005C89C801B7010E94F9364B015C016B01C9
:104BA0002D853E854F855889C801B7010E94F93689
:104BB000660E771EAB8DBC8D11967C926E9213960D
:104BC0009C928E921297EBA5FCA580819181C80ED4
:104BD000D91ED182C0820894211C311C411C511C59
:104BE000298D3A8D2C5F3F4F3A8F298FEFA1F8A581
:104BF00080819181A281B381281639064A065B061D
:104C00000CF46CCFADA1BEA1D4968D919C91D5979B
:104C10000E946701EDA1FEA197AB86AB009709F456
:104C200077C0AD8DBE8D2C9111963C911197129647
:104C30004C91129713965C912D833E834F83588736
:104C4000C901DA01AC01BD014115510561057105CC
:104C500039F0A0E0B0E0423051056105710511F472
:104C6000A1E0B0E029A13AA184E490E0289FF001FE
:104C7000299FF00D389FF00D1124E357F84FB3A38F
:104C8000A2A315A214A2415050406040704042308F
:104C900051056105710520F481E090E095A384A39E
:104CA00084E490E0E9A1FAA1E89F9001E99F300D2A
:104CB000F89F300D1124A9014D54584FED8DFE8DF4
:104CC00084819581A681B781FA0180839183A28333
:104CD000B383F901E357F84F268D378D40A151A1D9
:104CE00057FF10C088279927DC01821B930BA40B68
:104CF000B50B82AF93AFA4AFB5AF168E178E10A2CF
:104D000011A204C012AE13AE14AE15AE80E007C0FF
:104D100069A17AA18BA19CA10E94622481E0AC963A
:104D20000FB6F894DEBF0FBECDBFCF91DF911F91BC
:104D30000F91FF90EF90DF90CF90BF90AF909F903A
:104D40008F907F906F905F904F903F902F9008953D
:104D5000CF93DF939B01AC0184E490E0289FF001A6
:104D6000299FF00D389FF00D1124E357F84FD9011A
:104D7000A556BC4F8C91882331F084E4EF01199241
:104D80008A95E9F71C921482158216821782118681
:104D9000108613861286118A108A17861686CA0113
:104DA000B9010E946224DF91CF9108952F923F9222
:104DB0004F925F926F927F928F929F92AF92BF922B
:104DC000CF92DF92EF92FF920F931F93DF93CF93D7
:104DD00000D00F92CDB7DEB73B014C015A83498317
:104DE00084E490E0689E7001699EF00C789EF00C5F
:104DF00011248DE897E0E80EF91EF7018481958172
:104E0000A681B7810097A105B10509F486C0AA243F
:104E1000BB2465014424552435C0E40DF51D3280C2
:104E20002380232D322DC9019C838B8300E010E069
:104E300017C0AB81BC81ED91FC91309751F084811A
:104E400095810E941102EB81FC81808191810E94F9
:104E500011020F5F1F4F8B819C8102969C838B8375
:104E6000A981BA810A171B0724F3832D922D0E9472
:104E700011020894A11CB11CC11CD11CE4E0F0E09B
:104E80004E0E5F1ED70114962D913D914D915C9170
:104E900017971896ED91FC911997A216B306C406C0
:104EA000D5060CF4BACFCF010E941102F70182851A
:104EB0009385892BF1F000E010E0CC24DD240CC0B8
:104EC000EC0DFD1D848195810E9411020F5F1F4F23
:104ED0008EE090E0C80ED91ED7011A96ED91FC9194
:104EE0001B9789819A810817190754F3CF010E94F3
:104EF0001102D70150968D919C9151970E941102F9
:104F0000F701868597850E941102C401B3010E94B2
:104F10006224C401B3010E94A8260F900F900F9045
:104F20000F90CF91DF911F910F91FF90EF90DF9045
:104F3000CF90BF90AF909F908F907F906F905F9039
:104F40004F903F902F90089524E430E0629FF0014D
:104F5000639FF00D729FF00D1124E357F84F138AF1
:104F6000128A0E94D62608954F925F926F927F9286
:104F70008F929F92AF92BF92CF92DF92EF92FF9269
:104F80000F931F93DF93CF9300D00F92CDB7DEB76F
:104F90005C0149835A836B837C83290184E490E01C
:104FA000489F8001499F100D589F100D11240357F1
:104FB000184FF801828993890497029708F0B4C0CA
:104FC000F5011182108213821282F801158614866F
:104FD000882499246624772460C0F801428553858B
:104FE000460D571DFA0180819181892B09F04EC031
:104FF000C084D184E280F38066817781F801848562
:1050000095859C01A3E0220F331FAA95E1F7A089A3
:10501000B189A20FB31F880F991F26853785280FE6
:10502000391FF90191828082F80184859585019666
:10503000958784871396DC92CE921297FA01738734
:105040006287C616D70670F46C197D0911967C9399
:105050006E9315961C921E92149717961C921E9290
:10506000169714C0FA0184819581E80EF91EEC1898
:10507000FD081196FC92EE92681B790B15967C93B5
:105080006E93149717969C938E9316970894811C91
:10509000911C8EE090E0680E791E841495040CF447
:1050A0009CCFF80184859585F50191838083F80173
:1050B00020893189F50133832283F80126853785DC
:1050C000F50135832483892BB9F5F8018289938909
:1050D000059791F510928C07828D938DA48DB58DD7
:1050E000AE014F5F5F4F8F5F9F4FAF4FBF4F71F468
:1050F00080E290E064E070E00E94411769817A816B
:105100008B819C81A2010E94A42716C08FE190E0B0
:1051100064E070E00E944117F80113A612A681E036
:1051200090E0938B828B08C0F80115861486F501F8
:1051300011821082138212820F900F900F900F90A5
:10514000CF91DF911F910F91FF90EF90DF90CF9063
:10515000BF90AF909F908F907F906F905F904F9097
:1051600008952F923F924F925F926F927F928F920B
:105170009F92AF92BF92CF92DF92EF92FF920F93E6
:105180001F93DF93CF93CDB7DEB7E6970FB6F894B2
:10519000DEBF0FBECDBF98AB8FA77AAB69AB7A01EC
:1051A0000BAB1CAB2DAB3EAB84E490E04BA95CA9F0
:1051B000489F9001499F300D589F300D112423576F
:1051C000384F3AA729A78BA99CA9ADA9BEA9F90177
:1051D00080839183A283B383BC01CD0149A95AA9DD
:1051E0000E94D626D7012D913D914D915C91C90128
:1051F000E9A5FAA5248335834683578364E070E0EC
:105200000E944B01A9A5BAA519969C938E93189755
:10521000009709F04FC104C2E9A5FAA50084F18501
:10522000E02D298D3A8DE20FF31FFEA7EDA70BA508
:105230001CA5F80181919191A191B1918F019C01DF
:105240008D839E83AF83B887220F331FAFA5B8A984
:10525000ED91FC91E20FF31F80819181EDA5FEA5F8
:1052600091838083EBA5FCA584819581A681B7817C
:1052700089839A83AB83BC8389A99AA962E070E091
:105280000E944B01ADA5BEA513969C938E931297D9
:10529000009709F4C5C1F8013496FCA7EBA71F8E4F
:1052A00018A219A21AA2F7C0EBA5FCA580819181D2
:1052B000A281B3819C018D839E83AF83B887220F27
:1052C000331FADA5BEA512960D911C911397020F29
:1052D000131F81E090E068E070E00E944B01F8014C
:1052E000808391838D819E81880F991FADA5BEA576
:1052F0001296ED91FC911397E80FF91F6080718071
:105300006114710409F48CC10BA51CA50C5F1F4F1F
:10531000EBA5FCA52481358146815781C901D301C4
:105320002D933D934D935C93139764E070E00E943E
:105330004B01F30195838483009709F471C19801AF
:105340002C5F3F4F3CA72BA72224332421011CA212
:105350001BA28AC0D30114960D90BC91A02DEBA185
:10536000FCA1AE0FBF1FBEA3ADA3DE011996EBA536
:10537000FCA580E101900D928150E1F7AFA5B8A99D
:105380001496ED91FC91159720813181D9011696E3
:10539000ED91FC91179789859A8553E0880F991FA5
:1053A0005A95E1F7A281B381A80FB91FED91FC9145
:1053B0001197F8A7EFA38D899E89880F991FF9018E
:1053C00022813381280F391FF901408151811496C0
:1053D0008D919C911597892B19F481E090E002C082
:1053E00082E090E02BA53CA5205F3F4F3CA72BA778
:1053F000849F7001859FF00C949FF00C112400276E
:10540000F7FC0095102F29893A894B895C89C801DE
:10541000B7010E94F9365B016C012D853E854F85F1
:105420005889C801B7010E94F9364FA158A5460F07
:10543000571FADA1BEA111965C934E931396BC92DB
:10544000AE921297F301868197818A0D9B1D9783F7
:1054500086830894211C311C411C511C2BA13CA1AA
:105460002C5F3F4F3CA32BA3F30180819181A2814C
:10547000B381281639064A065B060CF46BCF2F8DD4
:1054800038A149A15AA12F5F3F4F4F4F5F4F2F8F38
:1054900038A349A35AA389819A81AB81BC812F8DFE
:1054A00038A149A15AA1281739074A075B070CF40C
:1054B000FBCED8C0A7014C5F5F4F5CA74BA71B8EEC
:1054C0001C8E1D8E1E8E1A8E198EE9A5FAA584815A
:1054D0009581A681B7812B8D3C8D4D8D5E8D2817D2
:1054E00039074A075B070CF497CE89A99AA96EE0A1
:1054F00070E00E944B01A9A5BAA51A968C931A9741
:105500001B969C9344245524222433246624772418
:1055100001E0C02ED12C5BC0EBA5FCA58081918160
:10552000A281B3819C0189839A83AB83BC83A9A5A3
:10553000BAA51A964D915C911B97790137FD70C001
:105540008A01060D171DF801D182C082211531058F
:1055500059F0C9010E946701D80115969C938E935A
:105560001497009721F45CC0F801158214822BA5D2
:105570003CA52C5F3F4F3CA72BA7D8011396FC926C
:10558000EE92129714968D919C91159717969C9375
:105590008E93169719969C938E9318971B961C9230
:1055A0001E921A9720E030E089819A81AB81BC81FC
:1055B0000097A105B10511F021E030E0420E531E25
:1055C0000894211C311CEEE0F0E06E0E7F1E29A92C
:1055D0003AA9221633060CF49FCFA9A5BAA51D96A9
:1055E0001C921E921C97C20113E0880F991F1A95F6
:1055F000E1F70E946701E9A5FAA5918B808B0097DE
:1056000079F0C201880F991F0E946701A9A5BAA568
:105610001F969C938E931E97009711F080E009C00F
:105620006BA97CA98DA99EA949A95AA90E94D62631
:1056300081E0E6960FB6F894DEBF0FBECDBFCF91E6
:10564000DF911F910F91FF90EF90DF90CF90BF906F
:10565000AF909F908F907F906F905F904F903F9012
:105660002F9008952B8D3C8D4D8D5E8D2F5F3F4F7C
:105670004F4F5F4F2B8F3C8F4D8F5E8F498D5A8DD3
:105680004C5F5F4F5A8F498F20CF2F923F924F929E
:105690005F926F927F928F929F92AF92BF92CF92C2
:1056A000DF92EF92FF920F931F93DF93CF93CDB7CB
:1056B000DEB72F970FB6F894DEBF0FBECDBF7C01CB
:1056C0006B01DB0111968C91882309F4E6C11A82E3
:1056D0001B821C821D8219828EE7F70180838183E1
:1056E00083E085878687108A1786128A118AD701F8
:1056F00053961D921D921D921C92569757961C927E
:1057000037010894611C711C32E0432E512C4E0C61
:105710005F1C23E0822E912C8E0C9F1C9DE0A92EF5
:10572000B12CAE0CBF1CFE013A96FF87EE8781E0DC
:10573000282E312CC601BE016F5F7F4F21E030E083
:1057400040E050E08E010E5F1F4F0E94BA32882366
:1057500009F0A4C18A819B81AC81BD810197A1051B
:10576000B10551F0D70150961C921E921F97529688
:105770001C921E92519791C1F701878590890297DB
:10578000039708F587899981882329F0178AF0E221
:105790009F27998318C09D3729F09E3741F0933099
:1057A00091F408C0E1E0D7015796EC93C3CFD7013D
:1057B0009C932BC0D70152961C921E9251975096E3
:1057C0001C921E921F97F701878590898230910560
:1057D00009F446C08330910534F4009781F00197B5
:1057E00009F0A8CF27C08430910509F4D6C08430D1
:1057F00091050CF463C0059709F09CCF12C1898113
:105800008E3709F097CFD7018C9352967C926E9287
:10581000519753968D919D910D90BC91A02D01961D
:10582000A11DB11DF701838B948BA58BB68B308A9C
:10583000278680CF89818E3709F02AC1D7015196FA
:10584000ED91FC9152978083F701138A148A158A8F
:10585000168A82E090E0908B8787528A418A6ACFCD
:10586000F70183899489A589B6890097A105B105B7
:1058700009F00EC189810188F289E02D8193D70159
:105880005296FC93EE93519753968D919D910D9066
:10589000BC91A02D0196A11DB11DF701838B948BA6
:1058A000A58BB68B0197A105B10509F043CF83E025
:1058B00090E0908B8787928A818AABC0F7018389B9
:1058C0009489A589B6890497A105B10508F0E0C0BF
:1058D00089810188F289E02D8193D7015296FC934A
:1058E000EE93519753968D919D910D90BC91A02D63
:1058F0000196A11DB11DF701838B948BA58BB68BEF
:105900000497A105B10509F015CFD6012C911A868F
:105910001B861C861D86F40180819181A281B38142
:105920008E839F83A887B987222389F4DE01169688
:10593000FE013D968D91808331978E859F85A817B6
:10594000B907C1F78A859B85AC85BD8504C08E816A
:105950009F81A885B985F70183839483A583B68346
:10596000138A148A158A168A0097A105B10549F091
:1059700084E090E0908B878787819085928B818BE4
:10598000D9CEE5E0F0E0D7015096FC93EE931F9757
:105990005296BC92AE925197CDCED70153962D918F
:1059A0003D914D915C91569713968D919D910D90DF
:1059B000BC91A02D281739074A075B0708F068C07B
:1059C0008981D7015196ED91FC915297819352961E
:1059D000FC93EE93519753968D919D910D90BC91B0
:1059E000A02D0196A11DB11DF701838B948BA58B72
:1059F000B68B238134814581568182179307A40792
:105A0000B50709F097CE85E090E0908B8787B28A42
:105A1000A18AD70153961D921D921D921C925697F2
:105A200089CEF70183899489A589B6890297A10552
:105A3000B10570F58981833059F50188F289E02D2F
:105A40008193D7015296FC93EE93519753968D9183
:105A50009D910D90BC91A02D0196A11DB11DF70146
:105A6000838B948BA58BB68B0297A105B10509F0AA
:105A700061CE86E090E0908B8787128A118AD701E9
:105A800053961D921D921D921C92569780E006C05F
:105A9000F701128A118A108A178681E02F960FB6B5
:105AA000F894DEBF0FBECDBFCF91DF911F910F9154
:105AB000FF90EF90DF90CF90BF90AF909F908F902E
:105AC0007F906F905F904F903F902F9008956F92CE
:105AD0007F928F929F92AF92BF92CF92DF92EF927E
