:100000000C9474000C9426060C9457060C948806E5
:100010000C94B9060C94EA060C941B070C944C073C
:100020000C947D070C94A1000C94A1000C94A100E9
:100030000C94A1000C94A1000C94A1000C94A100BC
:100040000C94A1000C94A1000C94A1000C94A100AC
:100050000C94A1000C94A1000C94A1000C94AE0788
:100060000C94A1000C94A3000C949F010C94A1008B
:100070000C94A1000C94A1000C94A1000C94A1007C
:100080000C94A1000C94A1000C94A1000C94A1006C
:100090000C94E2000C94DE010C94A1000C94A100DD
:1000A0000C94A1000C94A1000C94A1000C94A1004C
:1000B0000C94A1000C94A1000C94A1000C94A1003C
:1000C0000C94A1000C94A1000C9422090C94210121
:1000D0000C941D020C94A1000C9460010C945C0221
:1000E0000C94A100CC03020511241FBECFEFD1E276
:1000F000DEBFCDBF00E00CBF12E0A0E0B2E0EAE757
:10010000F3E100E00BBF02C007900D92AA33B107E4
:10011000D9F71BBE15E0AAE3B2E001C01D92AF30D3
:10012000B107E1F710E0C8EED0E004C02297FE016D
:100130000E94B709C43ED107C9F70E94B1080C94C8
:10014000BB090C9400001F920F920FB60F920BB6D2
:100150000F9211242F933F934F938F939F93EF937D
:10016000FF938091C00082FD1DC04091C600209188
:100170007A0230917B022F5F3F4F2F733070809156
:100180007C0290917D022817390771F0E0917A0284
:10019000F0917B02E65CFD4F408330937B0220931D
:1001A0007A0202C08091C600FF91EF919F918F91DA
:1001B0004F913F912F910F900BBE0F900FBE0F905C
:1001C0001F9018951F920F920FB60F920BB60F92B9
:1001D00011242F933F934F938F939F93EF93FF930C
:1001E0008091C80082FD1DC04091CE002091020385
:1001F000309103032F5F3F4F2F73307080910403C2
:10020000909105032817390771F0E0910203F091EE
:100210000303EE53FD4F4083309303032093020307
:1002200002C08091CE00FF91EF919F918F914F91ED
:100230003F912F910F900BBE0F900FBE0F901F900C
:1002400018951F920F920FB60F920BB60F921124B2
:100250002F933F934F938F939F93EF93FF938091AF
:10026000D00082FD1DC04091D60020918A033091BC
:100270008B032F5F3F4F2F73307080918C039091D1
:100280008D032817390771F0E0918A03F0918B03F1
:10029000E65BFC4F408330938B0320938A0302C0BC
:1002A0008091D600FF91EF919F918F914F913F9157
:1002B0002F910F900BBE0F900FBE0F901F901895AF
:1002C0001F920F920FB60F920BB60F9211242F931D
:1002D0003F934F938F939F93EF93FF9380913001C0
:1002E00082FD1DC04091360120911204309113040B
:1002F0002F5F3F4F2F73307080911404909115043D
:100300002817390771F0E0911204F0911304EE52AE
:10031000FC4F4083309313042093120402C0809159
:100320003601FF91EF919F918F914F913F912F91C6
:100330000F900BBE0F900FBE0F901F9018951F923D
:100340000F920FB60F920BB60F9211242F933F937B
:100350008F939F93EF93FF932091BE023091BF0242
:100360008091C0029091C1022817390731F4809121
:10037000C1008F7D8093C10014C0E091C002F09154
:10038000C102E258FD4F20818091C0029091C102CC
:1003900001968F7390709093C1028093C002209356
:1003A000C600FF91EF919F918F913F912F910F90F8
:1003B0000BBE0F900FBE0F901F9018951F920F92BB
:1003C0000FB60F920BB60F9211242F933F938F937A
:1003D0009F93EF93FF9320914603309147038091C1
:1003E0004803909149032817390731F48091C900D7
:1003F0008F7D8093C90014C0E0914803F0914903B8
:10040000EA5FFC4F20818091480390914903019657
:100410008F73907090934903809348032093CE008C
:10042000FF91EF919F918F913F912F910F900BBE74
:100430000F900FBE0F901F9018951F920F920FB63E
:100440000F920BB60F9211242F933F938F939F938C
:10045000EF93FF932091CE033091CF038091D0038F
:100460009091D1032817390731F48091D1008F7D05
:100470008093D10014C0E091D003F091D103E257F2
:10048000FC4F20818091D0039091D10301968F730E
:1004900090709093D1038093D0032093D600FF9166
:1004A000EF919F918F913F912F910F900BBE0F90E5
:1004B0000FBE0F901F9018951F920F920FB60F92BC
:1004C0000BB60F9211242F933F938F939F93EF932B
:1004D000FF932091560430915704809158049091D5
:1004E00059042817390731F4809131018F7D8093A9
:1004F000310114C0E0915804F0915904EA5EFB4FB9
:100500002081809158049091590401968F739070C6
:10051000909359048093580420933601FF91EF91F2
:100520009F918F913F912F910F900BBE0F900FBE17
:100530000F901F901895AF92BF92DF92EF92FF92AB
:100540000F931F93CF93DF93EC017A018B01DD248E
:10055000403081EE580780E0680780E0780711F0AE
:10056000DD24D39491E0A92EB12CEC89FD89DD2006
:1005700069F0C50108A002C0880F991F0A94E2F72C
:10058000808360E079E08DE390E005C0108260E850
:1005900074E88EE190E0A80197010E949309215030
:1005A000304040405040569547953795279580E11B
:1005B0002030380720F0DD2011F0DD24D6CFE88987
:1005C000F9893083EA89FB89208319A2EE89FF89A2
:1005D000408121E030E0C9010C8C02C0880F991FD6
:1005E0000A94E2F7482B4083EE89FF894081C901D4
:1005F0000D8C02C0880F991F0A94E2F7482B4083A4
:10060000EE89FF894081C9010E8C02C0880F991FB5
:100610000A94E2F7482B4083EE89FF8980810F8C92
:1006200002C0220F331F0A94E2F72095282320836B
:10063000DF91CF911F910F91FF90EF90DF90BF90CE
:10064000AF900895DC011C96ED91FC911D97E05C44
:10065000FF4F2191319180819181281B390B2F739C
:100660003070C9010895DC011C96ED91FC911D9735
:10067000E05CFF4F20813181E054F040DF01AE5B50
:10068000BF4F8D919C9111972817390719F42FEFBF
:100690003FEF07C08D919C91E80FF91F8081282FB3
:1006A00030E0C9010895DC011C96ED91FC911D9785
:1006B000E05CFF4F20813181E054F040DF01AE5B10
:1006C000BF4F8D919C9111972817390719F42FEF7F
:1006D0003FEF10C08D919C911197E80FF91F208179
:1006E0008D919C91119701968F73907011969C93A8
:1006F0008E9330E0C9010895DC0191968C91919719
:10070000882339F05496ED91FC915597808186FFAE
:10071000F9CF91961C920895CF93DF93EC01EE856B
:10072000FF85E05CFF4F20813181E054F0402F5F76
:100730003F4F2F733070DF01AE5BBF4F8D919C91A7
:10074000119728173907D1F3E05CFF4F8081918121
:10075000E054F040E80FF91F6083EE85FF85E05C10
:10076000FF4F31832083EE89FF89208181E090E073
:100770000F8C02C0880F991F0A94E2F7282B208360
:1007800081E089A3EC89FD8980818064808381E098
:1007900090E0DF91CF9108951F9310925D04109225
:1007A0005C0428EE33E040E050E020935E04309398
:1007B0005F04409360045093610465E272E07093BB
:1007C0005B0460935A048AE392E0909367048093F9
:1007D00066048EE792E0909369048093680485EC48
:1007E00090E090936B0480936A0484EC90E0909383
:1007F0006D0480936C0480EC90E090936F04809380
:100800006E0481EC90E0909371048093700482EC0C
:1008100090E0909373048093720486EC90E0909340
:1008200075048093740414E010937604B3E0B093DD
:100830007704A7E0A0937804F5E0F0937904E1E071
:10084000E0937A0410927F0410927E042093800437
:1008500030938104409382045093830470937D0409
:1008600060937C0482EC92E09093890480938804E6
:1008700086E093E090938B0480938A048DEC90E063
:1008800090938D0480938C048CEC90E090938F0473
:1008900080938E0488EC90E0909391048093900470
:1008A00089EC90E090939304809392048AEC90E01A
:1008B00090939504809394048EEC90E09093970429
:1008C0008093960410939804B0939904A0939A048B
:1008D000F0939B04E0939C041092A1041092A00456
:1008E0002093A2043093A3044093A4045093A5043E
:1008F00070939F0460939E048AE493E09093AB040A
:100900008093AA048EE893E09093AD048093AC04A6
:1009100085ED90E09093AF048093AE0484ED90E079
:100920009093B1048093B00480ED90E09093B30471
:100930008093B20481ED90E09093B5048093B40469
:1009400082ED90E09093B7048093B60486ED90E03A
:100950009093B9048093B8041093BA04B093BB0485
:10096000A093BC04F093BD04E093BE041092C304B2
:100970001092C2042093C4043093C5044093C6046B
:100980005093C7047093C1046093C00482ED93E058
:100990009093CD048093CC0486E194E09093CF04AF
:1009A0008093CE0485E391E09093D1048093D004AA
:1009B00084E391E09093D3048093D20480E391E0A8
:1009C0009093D5048093D40481E391E09093D7046D
:1009D0008093D60482E391E09093D9048093D80465
:1009E00086E391E09093DB048093DA041093DC04B7
:1009F000B093DD04A093DE04F093DF04E093E00401
:100A00001F91089585E392E09093E3048093E204BC
:100A10001092E4041092E5041092E6041092E704A8
:100A200008958F929F92AF92BF92CF92DF92EF92F2
:100A3000FF920F931F93CF93DF934C016B017C01C7
:100A4000AA24BB24C0E0D0E0C601F70162814AE0DD
:100A500050E00E9414068C01C6016EE20E947D05E2
:100A6000080F191FA00EB11E21960894E11CF11C5D
:100A7000C330D10549F7C601F40165814AE050E071
:100A80000E9414069501280F391FC901DF91CF91EB
:100A90001F910F91FF90EF90DF90CF90BF90AF909C
:100AA0009F908F900895CF92DF92EF92FF920F93D5
:100AB0001F93CF93DF937C016B018A01C0E0D0E0EC
:100AC0000FC0D6016D916D01D701ED91FC910190A0
:100AD000F081E02DC7011995C80FD91F01501040B2
:100AE0000115110571F7CE01DF91CF911F910F9183
:100AF000FF90EF90DF90CF900895DC01ED91FC9195
:100B00000190F081E02D19950895CF93DF93EC01CA
:100B10006115710519F420E030E00FC0DB010D9084
:100B20000020E9F71197A61BB70BE881F981028035
:100B3000F381E02DAD0119959C01C901DF91CF91A1
:100B400008954F925F927F928F929F92AF92BF9241
:100B5000CF92DF92EF92FF920F931F93DF93CF9389
:100B6000CDB7DEB7A1970FB6F894DEBF0FBECDBFED
:100B70002C01742ECB01223008F42AE019A231E2B4
:100B8000C32ED12CCC0EDD1E822E9924AA24BB2488
:100B9000672D752FA50194010E94930979018A019F
:100BA000C801B701A50194010E947409472D461B95
:100BB0000894C108D1084A3014F4405D01C0495C72
:100BC000F6014083E114F1040105110521F07E2CAA
:100BD0005F2DC801DDCFC201B6010E948505A19637
:100BE0000FB6F894DEBF0FBECDBFCF91DF911F913E
:100BF0000F91FF90EF90DF90CF90BF90AF909F90BC
:100C00008F907F905F904F900895DC012115310502
:100C100041F4ED91FC910190F081E02D642F199544
:100C200008950E94A1050895EF92FF920F931F93DC
:100C30009A01E62EFF2400E010E0B801A7010E940F
:100C400005061F910F91FF90EF9008951F920F924C
:100C50000FB60F920BB60F9211242F933F934F9321
:100C60005F936F937F938F939F93AF93BF93EF9314
:100C7000FF938091EC049091ED04892B29F0E09191
:100C8000EC04F091ED041995FF91EF91BF91AF91B4
:100C90009F918F917F916F915F914F913F912F9194
:100CA0000F900BBE0F900FBE0F901F9018951F92C4
:100CB0000F920FB60F920BB60F9211242F933F9302
:100CC0004F935F936F937F938F939F93AF93BF9354
:100CD000EF93FF938091EE049091EF04892B29F01C
:100CE000E091EE04F091EF041995FF91EF91BF911F
:100CF000AF919F918F917F916F915F914F913F91B4
:100D00002F910F900BBE0F900FBE0F901F90189554
:100D10001F920F920FB60F920BB60F9211242F93C2
:100D20003F934F935F936F937F938F939F93AF9373
:100D3000BF93EF93FF938091F0049091F104892B7E
:100D400029F0E091F004F091F1041995FF91EF91F1
:100D5000BF91AF919F918F917F916F915F914F91D3
:100D60003F912F910F900BBE0F900FBE0F901F90D1
:100D700018951F920F920FB60F920BB60F92112477
:100D80002F933F934F935F936F937F938F939F9393
:100D9000AF93BF93EF93FF938091F2049091F3048C
:100DA000892B29F0E091F204F091F3041995FF9159
:100DB000EF91BF91AF919F918F917F916F915F91D3
:100DC0004F913F912F910F900BBE0F900FBE0F9040
:100DD0001F9018951F920F920FB60F920BB60F929D
:100DE00011242F933F934F935F936F937F938F9330
:100DF0009F93AF93BF93EF93FF938091E8049091FB
:100E0000E904892B29F0E091E804F091E9041995AF
:100E1000FF91EF91BF91AF919F918F917F916F91D2
:100E20005F914F913F912F910F900BBE0F900FBE8E
:100E30000F901F9018951F920F920FB60F920BB63E
:100E40000F9211242F933F934F935F936F937F9350
:100E50008F939F93AF93BF93EF93FF938091EA0497
:100E60009091EB04892B29F0E091EA04F091EB04D6
:100E70001995FF91EF91BF91AF919F918F917F91C4
:100E80006F915F914F913F912F910F900BBE0F90FB
:100E90000FBE0F901F9018951F920F920FB60F92D2
:100EA0000BB60F9211242F933F934F935F936F9341
:100EB0007F938F939F93AF93BF93EF93FF93809113
:100EC000F4049091F504892B29F0E091F404F09159
:100ED000F5041995FF91EF91BF91AF919F918F917B
:100EE0007F916F915F914F913F912F910F900BBE2A
:100EF0000F900FBE0F901F9018951F920F920FB674
:100F00000F920BB60F9211242F933F934F935F9341
:100F10006F937F938F939F93AF93BF93EF93FF93C1
:100F20008091F6049091F704892B29F0E091F60462
:100F3000F091F7041995FF91EF91BF91AF919F91B7
:100F40008F917F916F915F914F913F912F910F9072
:100F50000BBE0F900FBE0F901F9018951F920F920F
:100F60000FB60F9211242F933F938F939F93AF93BC
:100F7000BF938091FC049091FD04A091FE04B09178
:100F8000FF04309100050196A11DB11D232F2D5F97
:100F90002D3720F02D570196A11DB11D209300057E
:100FA0008093FC049093FD04A093FE04B093FF048F
:100FB0008091F8049091F904A091FA04B091FB0497
:100FC0000196A11DB11D8093F8049093F904A0939C
:100FD000FA04B093FB04BF91AF919F918F913F9121
:100FE0002F910F900FBE0F901F901895789484B595
:100FF000826084BD84B5816084BD85B5826085BD15
:1010000085B5816085BDEEE6F0E0808181608083FA
:10101000E1E8F0E0108280818260808380818160DD
:101020008083E0E8F0E0808181608083E1EBF0E0A4
:10103000808184608083E0EBF0E080818160808348
:10104000E1E9F0E08081826080838081816080833B
:10105000E0E9F0E0808181608083E1EAF0E0808176
:1010600082608083808181608083E0EAF0E080811B
:1010700081608083E1E2F1E0808182608083808111
:1010800081608083E0E2F1E0808181608083EAE733
:10109000F0E08081846080838081826080838081B1
:1010A000816080838081806880831092C100089570
:1010B0008130910579F0823091051CF4892B39F04B
:1010C00008958230910549F0039781F40BC08AE5B9
:1010D00094E005C08CE794E002C08EE994E00E94A1
:1010E0005305089580EC94E00E94530508958130E3
:1010F000910579F0823091051CF4892B39F008951F
:101100008230910549F0039781F40BC08AE594E0A1
:1011100005C08CE794E002C08EE994E00E949B0237
:10112000089580EC94E00E949B020895FC01808168
:101130009181A281B3818093050590930605A093C8
:101140000705B093080580910805FB018083809115
:10115000070581838091060582838091050583833D
:1011600008950E94F60780E090E040E855E260E0D4
:1011700070E00E94770880E090E060E072E04AE171
:1011800050E00E9458080E9452098BEC93EF909314
:10119000250180932401809173008E7F80937300DA
:1011A000809120018C7F8093200180912101877E96
:1011B000809321018091210185608093210180919C
:1011C00021018D7F80932101809173008160809344
:1011D0007300E0913702F091380280819181892B70
:1011E000E1F30E945109F89480E090E00895209185
:1011F00003052F5F20930305215049F081E090E023
:101200009093020580930105209303050895789437
:101210000E945F090E945009F89420910305215013
:101220002093030590910405992359F080910405BA
:10123000882339F47894F89491509093040520937E
:10124000030508951F920F920FB60F920BB60F92DF
:1012500011242F933F934F935F936F937F938F93BB
:101260009F93AF93BF93EF93FF938BEC93EF909388
:101270002501809324010E94F708FF91EF91BF910F
:10128000AF919F918F917F916F915F914F913F911E
:101290002F910F900BBE0F900FBE0F901F901895BF
:1012A0000895089510920E0510920D0510920905EB
:1012B00010920A0510920B0510920C0508950F93D9
:1012C0001F9309E015E08DE192E0B8010E949608B5
:1012D0008091190290911A02B80144E050E00E94F6
:1012E00058081F910F910895629FD001739FF001DC
:1012F000829FE00DF11D649FE00DF11D929FF00DA6
:10130000839FF00D749FF00D659FF00D9927729FDC
:10131000B00DE11DF91F639FB00DE11DF91FBD0167
:10132000CF0111240895A1E21A2EAA1BBB1BFD01B7
:101330000DC0AA1FBB1FEE1FFF1FA217B307E407B4
:10134000F50720F0A21BB30BE40BF50B661F771F0C
:10135000881F991F1A9469F76095709580959095EC
:101360009B01AC01BD01CF010895EE0FFF1F059059
:0A137000F491E02D1994F894FFCFDA
:10137A002A2A2A7374617274696E672074686520F8
:10138A006D6F64656C2A2A2A0000000000DB0F4991
:10139A00C0000000008C0353052203530333037C6F
:0A13AA00030000000011050D05000E
:00000001FF
